{
	"DualERC1155ERC20Converter.sol": {
		"DualERC1155ERC20Converter": {
			"abi": [
				{
					"inputs": [],
					"stateMutability": "nonpayable",
					"type": "constructor"
				},
				{
					"inputs": [
						{
							"internalType": "address",
							"name": "owner",
							"type": "address"
						}
					],
					"name": "OwnableInvalidOwner",
					"type": "error"
				},
				{
					"inputs": [
						{
							"internalType": "address",
							"name": "account",
							"type": "address"
						}
					],
					"name": "OwnableUnauthorizedAccount",
					"type": "error"
				},
				{
					"anonymous": false,
					"inputs": [
						{
							"indexed": true,
							"internalType": "address",
							"name": "erc1155Contract",
							"type": "address"
						},
						{
							"indexed": true,
							"internalType": "uint256",
							"name": "tokenId",
							"type": "uint256"
						}
					],
					"name": "AllowedERC1155ForwardAdded",
					"type": "event"
				},
				{
					"anonymous": false,
					"inputs": [
						{
							"indexed": true,
							"internalType": "address",
							"name": "erc1155Contract",
							"type": "address"
						},
						{
							"indexed": true,
							"internalType": "uint256",
							"name": "tokenId",
							"type": "uint256"
						}
					],
					"name": "AllowedERC1155ForwardRemoved",
					"type": "event"
				},
				{
					"anonymous": false,
					"inputs": [
						{
							"indexed": true,
							"internalType": "address",
							"name": "erc1155Contract",
							"type": "address"
						},
						{
							"indexed": true,
							"internalType": "uint256",
							"name": "tokenId",
							"type": "uint256"
						}
					],
					"name": "AllowedERC1155ReverseAdded",
					"type": "event"
				},
				{
					"anonymous": false,
					"inputs": [
						{
							"indexed": true,
							"internalType": "address",
							"name": "erc1155Contract",
							"type": "address"
						},
						{
							"indexed": true,
							"internalType": "uint256",
							"name": "tokenId",
							"type": "uint256"
						}
					],
					"name": "AllowedERC1155ReverseRemoved",
					"type": "event"
				},
				{
					"anonymous": false,
					"inputs": [
						{
							"indexed": true,
							"internalType": "address",
							"name": "sender",
							"type": "address"
						},
						{
							"indexed": true,
							"internalType": "uint256",
							"name": "erc1155TokenId",
							"type": "uint256"
						},
						{
							"indexed": false,
							"internalType": "uint256",
							"name": "erc1155Amount",
							"type": "uint256"
						},
						{
							"indexed": false,
							"internalType": "uint256",
							"name": "erc20Amount",
							"type": "uint256"
						},
						{
							"indexed": false,
							"internalType": "uint256",
							"name": "timestamp",
							"type": "uint256"
						}
					],
					"name": "ConversionPerformed",
					"type": "event"
				},
				{
					"anonymous": false,
					"inputs": [
						{
							"indexed": true,
							"internalType": "address",
							"name": "sender",
							"type": "address"
						},
						{
							"indexed": true,
							"internalType": "address",
							"name": "erc1155Contract",
							"type": "address"
						},
						{
							"indexed": true,
							"internalType": "uint256",
							"name": "tokenId",
							"type": "uint256"
						},
						{
							"indexed": false,
							"internalType": "uint256",
							"name": "amount",
							"type": "uint256"
						},
						{
							"indexed": false,
							"internalType": "uint256",
							"name": "timestamp",
							"type": "uint256"
						}
					],
					"name": "ERC1155ToERC20Conversion",
					"type": "event"
				},
				{
					"anonymous": false,
					"inputs": [
						{
							"indexed": true,
							"internalType": "address",
							"name": "user",
							"type": "address"
						},
						{
							"indexed": true,
							"internalType": "address",
							"name": "erc1155Contract",
							"type": "address"
						},
						{
							"indexed": true,
							"internalType": "uint256",
							"name": "tokenId",
							"type": "uint256"
						},
						{
							"indexed": false,
							"internalType": "uint256",
							"name": "amount",
							"type": "uint256"
						},
						{
							"indexed": false,
							"internalType": "uint256",
							"name": "timestamp",
							"type": "uint256"
						}
					],
					"name": "ERC20ToERC1155Conversion",
					"type": "event"
				},
				{
					"anonymous": false,
					"inputs": [
						{
							"indexed": true,
							"internalType": "address",
							"name": "previousERC20",
							"type": "address"
						},
						{
							"indexed": true,
							"internalType": "address",
							"name": "newERC20",
							"type": "address"
						}
					],
					"name": "ERC20TokenUpdated",
					"type": "event"
				},
				{
					"anonymous": false,
					"inputs": [
						{
							"indexed": true,
							"internalType": "address",
							"name": "previousOwner",
							"type": "address"
						},
						{
							"indexed": true,
							"internalType": "address",
							"name": "newOwner",
							"type": "address"
						}
					],
					"name": "OwnershipTransferred",
					"type": "event"
				},
				{
					"inputs": [
						{
							"internalType": "address",
							"name": "erc1155Contract",
							"type": "address"
						},
						{
							"internalType": "uint256",
							"name": "tokenId",
							"type": "uint256"
						}
					],
					"name": "addAllowedERC1155Forward",
					"outputs": [],
					"stateMutability": "nonpayable",
					"type": "function"
				},
				{
					"inputs": [
						{
							"internalType": "address",
							"name": "erc1155Contract",
							"type": "address"
						},
						{
							"internalType": "uint256",
							"name": "tokenId",
							"type": "uint256"
						}
					],
					"name": "addAllowedERC1155Reverse",
					"outputs": [],
					"stateMutability": "nonpayable",
					"type": "function"
				},
				{
					"inputs": [
						{
							"internalType": "address",
							"name": "",
							"type": "address"
						},
						{
							"internalType": "uint256",
							"name": "",
							"type": "uint256"
						}
					],
					"name": "allowedERC1155Forward",
					"outputs": [
						{
							"internalType": "bool",
							"name": "",
							"type": "bool"
						}
					],
					"stateMutability": "view",
					"type": "function"
				},
				{
					"inputs": [
						{
							"internalType": "address",
							"name": "",
							"type": "address"
						},
						{
							"internalType": "uint256",
							"name": "",
							"type": "uint256"
						}
					],
					"name": "allowedERC1155Reverse",
					"outputs": [
						{
							"internalType": "bool",
							"name": "",
							"type": "bool"
						}
					],
					"stateMutability": "view",
					"type": "function"
				},
				{
					"inputs": [
						{
							"internalType": "uint256",
							"name": "",
							"type": "uint256"
						}
					],
					"name": "conversionHistory",
					"outputs": [
						{
							"internalType": "uint256",
							"name": "erc1155TokenId",
							"type": "uint256"
						},
						{
							"internalType": "uint256",
							"name": "erc1155Amount",
							"type": "uint256"
						},
						{
							"internalType": "uint256",
							"name": "erc20Amount",
							"type": "uint256"
						},
						{
							"internalType": "uint256",
							"name": "timestamp",
							"type": "uint256"
						}
					],
					"stateMutability": "view",
					"type": "function"
				},
				{
					"inputs": [
						{
							"internalType": "address",
							"name": "",
							"type": "address"
						},
						{
							"internalType": "uint256",
							"name": "",
							"type": "uint256"
						}
					],
					"name": "conversionRecordsBySender",
					"outputs": [
						{
							"internalType": "uint256",
							"name": "erc1155TokenId",
							"type": "uint256"
						},
						{
							"internalType": "uint256",
							"name": "erc1155Amount",
							"type": "uint256"
						},
						{
							"internalType": "uint256",
							"name": "erc20Amount",
							"type": "uint256"
						},
						{
							"internalType": "uint256",
							"name": "timestamp",
							"type": "uint256"
						}
					],
					"stateMutability": "view",
					"type": "function"
				},
				{
					"inputs": [
						{
							"internalType": "address",
							"name": "",
							"type": "address"
						},
						{
							"internalType": "uint256",
							"name": "",
							"type": "uint256"
						}
					],
					"name": "conversionRecordsERC20ToERC1155ByUser",
					"outputs": [
						{
							"internalType": "address",
							"name": "user",
							"type": "address"
						},
						{
							"internalType": "address",
							"name": "erc1155Contract",
							"type": "address"
						},
						{
							"internalType": "uint256",
							"name": "tokenId",
							"type": "uint256"
						},
						{
							"internalType": "uint256",
							"name": "amount",
							"type": "uint256"
						},
						{
							"internalType": "uint256",
							"name": "timestamp",
							"type": "uint256"
						}
					],
					"stateMutability": "view",
					"type": "function"
				},
				{
					"inputs": [
						{
							"internalType": "address",
							"name": "erc1155Contract",
							"type": "address"
						},
						{
							"internalType": "uint256",
							"name": "tokenId",
							"type": "uint256"
						},
						{
							"internalType": "uint256",
							"name": "amount",
							"type": "uint256"
						}
					],
					"name": "convertToERC1155",
					"outputs": [],
					"stateMutability": "nonpayable",
					"type": "function"
				},
				{
					"inputs": [
						{
							"internalType": "uint256",
							"name": "",
							"type": "uint256"
						}
					],
					"name": "erc20ToErc1155History",
					"outputs": [
						{
							"internalType": "address",
							"name": "user",
							"type": "address"
						},
						{
							"internalType": "address",
							"name": "erc1155Contract",
							"type": "address"
						},
						{
							"internalType": "uint256",
							"name": "tokenId",
							"type": "uint256"
						},
						{
							"internalType": "uint256",
							"name": "amount",
							"type": "uint256"
						},
						{
							"internalType": "uint256",
							"name": "timestamp",
							"type": "uint256"
						}
					],
					"stateMutability": "view",
					"type": "function"
				},
				{
					"inputs": [],
					"name": "erc20Token",
					"outputs": [
						{
							"internalType": "contract IERC20MintableBurnable",
							"name": "",
							"type": "address"
						}
					],
					"stateMutability": "view",
					"type": "function"
				},
				{
					"inputs": [
						{
							"internalType": "address",
							"name": "operator",
							"type": "address"
						},
						{
							"internalType": "address",
							"name": "from",
							"type": "address"
						},
						{
							"internalType": "uint256[]",
							"name": "ids",
							"type": "uint256[]"
						},
						{
							"internalType": "uint256[]",
							"name": "values",
							"type": "uint256[]"
						},
						{
							"internalType": "bytes",
							"name": "data",
							"type": "bytes"
						}
					],
					"name": "onERC1155BatchReceived",
					"outputs": [
						{
							"internalType": "bytes4",
							"name": "",
							"type": "bytes4"
						}
					],
					"stateMutability": "nonpayable",
					"type": "function"
				},
				{
					"inputs": [
						{
							"internalType": "address",
							"name": "operator",
							"type": "address"
						},
						{
							"internalType": "address",
							"name": "from",
							"type": "address"
						},
						{
							"internalType": "uint256",
							"name": "id",
							"type": "uint256"
						},
						{
							"internalType": "uint256",
							"name": "value",
							"type": "uint256"
						},
						{
							"internalType": "bytes",
							"name": "data",
							"type": "bytes"
						}
					],
					"name": "onERC1155Received",
					"outputs": [
						{
							"internalType": "bytes4",
							"name": "",
							"type": "bytes4"
						}
					],
					"stateMutability": "nonpayable",
					"type": "function"
				},
				{
					"inputs": [],
					"name": "owner",
					"outputs": [
						{
							"internalType": "address",
							"name": "",
							"type": "address"
						}
					],
					"stateMutability": "view",
					"type": "function"
				},
				{
					"inputs": [
						{
							"internalType": "address",
							"name": "erc1155Contract",
							"type": "address"
						},
						{
							"internalType": "uint256",
							"name": "tokenId",
							"type": "uint256"
						}
					],
					"name": "removeAllowedERC1155Forward",
					"outputs": [],
					"stateMutability": "nonpayable",
					"type": "function"
				},
				{
					"inputs": [
						{
							"internalType": "address",
							"name": "erc1155Contract",
							"type": "address"
						},
						{
							"internalType": "uint256",
							"name": "tokenId",
							"type": "uint256"
						}
					],
					"name": "removeAllowedERC1155Reverse",
					"outputs": [],
					"stateMutability": "nonpayable",
					"type": "function"
				},
				{
					"inputs": [],
					"name": "renounceOwnership",
					"outputs": [],
					"stateMutability": "nonpayable",
					"type": "function"
				},
				{
					"inputs": [
						{
							"internalType": "address",
							"name": "_erc20Token",
							"type": "address"
						}
					],
					"name": "setERC20Token",
					"outputs": [],
					"stateMutability": "nonpayable",
					"type": "function"
				},
				{
					"inputs": [
						{
							"internalType": "bytes4",
							"name": "interfaceId",
							"type": "bytes4"
						}
					],
					"name": "supportsInterface",
					"outputs": [
						{
							"internalType": "bool",
							"name": "",
							"type": "bool"
						}
					],
					"stateMutability": "view",
					"type": "function"
				},
				{
					"inputs": [
						{
							"internalType": "address",
							"name": "newOwner",
							"type": "address"
						}
					],
					"name": "transferOwnership",
					"outputs": [],
					"stateMutability": "nonpayable",
					"type": "function"
				}
			],
			"devdoc": {
				"errors": {
					"OwnableInvalidOwner(address)": [
						{
							"details": "The owner is not a valid owner account. (eg. `address(0)`)"
						}
					],
					"OwnableUnauthorizedAccount(address)": [
						{
							"details": "The caller account is not authorized to perform an operation."
						}
					]
				},
				"kind": "dev",
				"methods": {
					"addAllowedERC1155Forward(address,uint256)": {
						"params": {
							"erc1155Contract": "The ERC1155 contract address.",
							"tokenId": "The ERC1155 token id."
						}
					},
					"addAllowedERC1155Reverse(address,uint256)": {
						"params": {
							"erc1155Contract": "The ERC1155 contract address.",
							"tokenId": "The ERC1155 token id."
						}
					},
					"convertToERC1155(address,uint256,uint256)": {
						"params": {
							"amount": "The amount of ERC20 tokens to convert (and thus ERC1155 tokens to mint).",
							"erc1155Contract": "The address of the ERC1155 contract on which to mint tokens.",
							"tokenId": "The ERC1155 token id to mint."
						}
					},
					"onERC1155BatchReceived(address,address,uint256[],uint256[],bytes)": {
						"returns": {
							"_0": "bytes4 indicating acceptance."
						}
					},
					"onERC1155Received(address,address,uint256,uint256,bytes)": {
						"returns": {
							"_0": "bytes4 indicating acceptance."
						}
					},
					"owner()": {
						"details": "Returns the address of the current owner."
					},
					"removeAllowedERC1155Forward(address,uint256)": {
						"params": {
							"erc1155Contract": "The ERC1155 contract address.",
							"tokenId": "The ERC1155 token id."
						}
					},
					"removeAllowedERC1155Reverse(address,uint256)": {
						"params": {
							"erc1155Contract": "The ERC1155 contract address.",
							"tokenId": "The ERC1155 token id."
						}
					},
					"renounceOwnership()": {
						"details": "Leaves the contract without owner. It will not be possible to call `onlyOwner` functions. Can only be called by the current owner. NOTE: Renouncing ownership will leave the contract without an owner, thereby disabling any functionality that is only available to the owner."
					},
					"setERC20Token(address)": {
						"params": {
							"_erc20Token": "The address of the ERC20 token contract."
						}
					},
					"supportsInterface(bytes4)": {
						"details": "See {IERC165-supportsInterface}."
					},
					"transferOwnership(address)": {
						"details": "Transfers ownership of the contract to a new account (`newOwner`). Can only be called by the current owner."
					}
				},
				"title": "DualERC1155ERC20Converter",
				"version": 1
			},
			"evm": {
				"assembly": "    /* \"DualERC1155ERC20Converter.sol\":1442:12923  contract DualERC1155ERC20Converter is Ownable, ERC1155Holder {... */\n  mstore(0x40, 0x80)\n    /* \"DualERC1155ERC20Converter.sol\":4699:4735  constructor() Ownable(msg.sender) {} */\n  callvalue\n  dup1\n  iszero\n  tag_1\n  jumpi\n  0x00\n  dup1\n  revert\ntag_1:\n  pop\n    /* \"DualERC1155ERC20Converter.sol\":4721:4731  msg.sender */\n  caller\n    /* \"@openzeppelin/contracts/access/Ownable.sol\":1297:1298  0 */\n  0x00\n    /* \"@openzeppelin/contracts/access/Ownable.sol\":1273:1299  initialOwner == address(0) */\n  0xffffffffffffffffffffffffffffffffffffffff\n  and\n    /* \"@openzeppelin/contracts/access/Ownable.sol\":1273:1285  initialOwner */\n  dup2\n    /* \"@openzeppelin/contracts/access/Ownable.sol\":1273:1299  initialOwner == address(0) */\n  0xffffffffffffffffffffffffffffffffffffffff\n  and\n  sub\n    /* \"@openzeppelin/contracts/access/Ownable.sol\":1269:1364  if (initialOwner == address(0)) {... */\n  tag_5\n  jumpi\n    /* \"@openzeppelin/contracts/access/Ownable.sol\":1350:1351  0 */\n  0x00\n    /* \"@openzeppelin/contracts/access/Ownable.sol\":1322:1353  OwnableInvalidOwner(address(0)) */\n  mload(0x40)\n  0x1e4fbdf700000000000000000000000000000000000000000000000000000000\n  dup2\n  mstore\n  0x04\n  add\n  tag_6\n  swap2\n  swap1\n  tag_7\n  jump\t// in\ntag_6:\n  mload(0x40)\n  dup1\n  swap2\n  sub\n  swap1\n  revert\n    /* \"@openzeppelin/contracts/access/Ownable.sol\":1269:1364  if (initialOwner == address(0)) {... */\ntag_5:\n    /* \"@openzeppelin/contracts/access/Ownable.sol\":1373:1405  _transferOwnership(initialOwner) */\n  tag_8\n    /* \"@openzeppelin/contracts/access/Ownable.sol\":1392:1404  initialOwner */\n  dup2\n    /* \"@openzeppelin/contracts/access/Ownable.sol\":1373:1391  _transferOwnership */\n  shl(0x20, tag_9)\n    /* \"@openzeppelin/contracts/access/Ownable.sol\":1373:1405  _transferOwnership(initialOwner) */\n  0x20\n  shr\n  jump\t// in\ntag_8:\n    /* \"@openzeppelin/contracts/access/Ownable.sol\":1225:1412  constructor(address initialOwner) {... */\n  pop\n    /* \"DualERC1155ERC20Converter.sol\":1442:12923  contract DualERC1155ERC20Converter is Ownable, ERC1155Holder {... */\n  jump(tag_11)\n    /* \"@openzeppelin/contracts/access/Ownable.sol\":2912:3099  function _transferOwnership(address newOwner) internal virtual {... */\ntag_9:\n    /* \"@openzeppelin/contracts/access/Ownable.sol\":2985:3001  address oldOwner */\n  0x00\n    /* \"@openzeppelin/contracts/access/Ownable.sol\":3004:3010  _owner */\n  dup1\n  0x00\n  swap1\n  sload\n  swap1\n  0x0100\n  exp\n  swap1\n  div\n  0xffffffffffffffffffffffffffffffffffffffff\n  and\n    /* \"@openzeppelin/contracts/access/Ownable.sol\":2985:3010  address oldOwner = _owner */\n  swap1\n  pop\n    /* \"@openzeppelin/contracts/access/Ownable.sol\":3029:3037  newOwner */\n  dup2\n    /* \"@openzeppelin/contracts/access/Ownable.sol\":3020:3026  _owner */\n  0x00\n  dup1\n    /* \"@openzeppelin/contracts/access/Ownable.sol\":3020:3037  _owner = newOwner */\n  0x0100\n  exp\n  dup2\n  sload\n  dup2\n  0xffffffffffffffffffffffffffffffffffffffff\n  mul\n  not\n  and\n  swap1\n  dup4\n  0xffffffffffffffffffffffffffffffffffffffff\n  and\n  mul\n  or\n  swap1\n  sstore\n  pop\n    /* \"@openzeppelin/contracts/access/Ownable.sol\":3083:3091  newOwner */\n  dup2\n    /* \"@openzeppelin/contracts/access/Ownable.sol\":3052:3092  OwnershipTransferred(oldOwner, newOwner) */\n  0xffffffffffffffffffffffffffffffffffffffff\n  and\n    /* \"@openzeppelin/contracts/access/Ownable.sol\":3073:3081  oldOwner */\n  dup2\n    /* \"@openzeppelin/contracts/access/Ownable.sol\":3052:3092  OwnershipTransferred(oldOwner, newOwner) */\n  0xffffffffffffffffffffffffffffffffffffffff\n  and\n  0x8be0079c531659141344cd1fd0a4f28419497f9722a3daafe3b4186f6b6457e0\n  mload(0x40)\n  mload(0x40)\n  dup1\n  swap2\n  sub\n  swap1\n  log3\n    /* \"@openzeppelin/contracts/access/Ownable.sol\":2975:3099  {... */\n  pop\n    /* \"@openzeppelin/contracts/access/Ownable.sol\":2912:3099  function _transferOwnership(address newOwner) internal virtual {... */\n  pop\n  jump\t// out\n    /* \"#utility.yul\":7:133   */\ntag_13:\n    /* \"#utility.yul\":44:51   */\n  0x00\n    /* \"#utility.yul\":84:126   */\n  0xffffffffffffffffffffffffffffffffffffffff\n    /* \"#utility.yul\":77:82   */\n  dup3\n    /* \"#utility.yul\":73:127   */\n  and\n    /* \"#utility.yul\":62:127   */\n  swap1\n  pop\n    /* \"#utility.yul\":7:133   */\n  swap2\n  swap1\n  pop\n  jump\t// out\n    /* \"#utility.yul\":139:235   */\ntag_14:\n    /* \"#utility.yul\":176:183   */\n  0x00\n    /* \"#utility.yul\":205:229   */\n  tag_19\n    /* \"#utility.yul\":223:228   */\n  dup3\n    /* \"#utility.yul\":205:229   */\n  tag_13\n  jump\t// in\ntag_19:\n    /* \"#utility.yul\":194:229   */\n  swap1\n  pop\n    /* \"#utility.yul\":139:235   */\n  swap2\n  swap1\n  pop\n  jump\t// out\n    /* \"#utility.yul\":241:359   */\ntag_15:\n    /* \"#utility.yul\":328:352   */\n  tag_21\n    /* \"#utility.yul\":346:351   */\n  dup2\n    /* \"#utility.yul\":328:352   */\n  tag_14\n  jump\t// in\ntag_21:\n    /* \"#utility.yul\":323:326   */\n  dup3\n    /* \"#utility.yul\":316:353   */\n  mstore\n    /* \"#utility.yul\":241:359   */\n  pop\n  pop\n  jump\t// out\n    /* \"#utility.yul\":365:587   */\ntag_7:\n    /* \"#utility.yul\":458:462   */\n  0x00\n    /* \"#utility.yul\":496:498   */\n  0x20\n    /* \"#utility.yul\":485:494   */\n  dup3\n    /* \"#utility.yul\":481:499   */\n  add\n    /* \"#utility.yul\":473:499   */\n  swap1\n  pop\n    /* \"#utility.yul\":509:580   */\n  tag_23\n    /* \"#utility.yul\":577:578   */\n  0x00\n    /* \"#utility.yul\":566:575   */\n  dup4\n    /* \"#utility.yul\":562:579   */\n  add\n    /* \"#utility.yul\":553:559   */\n  dup5\n    /* \"#utility.yul\":509:580   */\n  tag_15\n  jump\t// in\ntag_23:\n    /* \"#utility.yul\":365:587   */\n  swap3\n  swap2\n  pop\n  pop\n  jump\t// out\n    /* \"DualERC1155ERC20Converter.sol\":1442:12923  contract DualERC1155ERC20Converter is Ownable, ERC1155Holder {... */\ntag_11:\n  dataSize(sub_0)\n  dup1\n  dataOffset(sub_0)\n  0x00\n  codecopy\n  0x00\n  return\nstop\n\nsub_0: assembly {\n        /* \"DualERC1155ERC20Converter.sol\":1442:12923  contract DualERC1155ERC20Converter is Ownable, ERC1155Holder {... */\n      mstore(0x40, 0x80)\n      callvalue\n      dup1\n      iszero\n      tag_1\n      jumpi\n      0x00\n      dup1\n      revert\n    tag_1:\n      pop\n      jumpi(tag_2, lt(calldatasize, 0x04))\n      shr(0xe0, calldataload(0x00))\n      dup1\n      0x9c3c4345\n      gt\n      tag_22\n      jumpi\n      dup1\n      0xdf84aae9\n      gt\n      tag_23\n      jumpi\n      dup1\n      0xdf84aae9\n      eq\n      tag_17\n      jumpi\n      dup1\n      0xea6a5b0e\n      eq\n      tag_18\n      jumpi\n      dup1\n      0xf23a6e61\n      eq\n      tag_19\n      jumpi\n      dup1\n      0xf2fde38b\n      eq\n      tag_20\n      jumpi\n      dup1\n      0xfce3fb2f\n      eq\n      tag_21\n      jumpi\n      jump(tag_2)\n    tag_23:\n      dup1\n      0x9c3c4345\n      eq\n      tag_12\n      jumpi\n      dup1\n      0xb1fd0a42\n      eq\n      tag_13\n      jumpi\n      dup1\n      0xbc197c81\n      eq\n      tag_14\n      jumpi\n      dup1\n      0xc953e56e\n      eq\n      tag_15\n      jumpi\n      dup1\n      0xde562487\n      eq\n      tag_16\n      jumpi\n      jump(tag_2)\n    tag_22:\n      dup1\n      0x58be702f\n      gt\n      tag_24\n      jumpi\n      dup1\n      0x58be702f\n      eq\n      tag_7\n      jumpi\n      dup1\n      0x652ca87e\n      eq\n      tag_8\n      jumpi\n      dup1\n      0x715018a6\n      eq\n      tag_9\n      jumpi\n      dup1\n      0x8a13eea7\n      eq\n      tag_10\n      jumpi\n      dup1\n      0x8da5cb5b\n      eq\n      tag_11\n      jumpi\n      jump(tag_2)\n    tag_24:\n      dup1\n      0x01ffc9a7\n      eq\n      tag_3\n      jumpi\n      dup1\n      0x0fcd1e84\n      eq\n      tag_4\n      jumpi\n      dup1\n      0x15614d5d\n      eq\n      tag_5\n      jumpi\n      dup1\n      0x453a1e75\n      eq\n      tag_6\n      jumpi\n    tag_2:\n      0x00\n      dup1\n      revert\n        /* \"@openzeppelin/contracts/token/ERC1155/utils/ERC1155Holder.sol\":650:871  function supportsInterface(bytes4 interfaceId) public view virtual override(ERC165, IERC165) returns (bool) {... */\n    tag_3:\n      tag_25\n      0x04\n      dup1\n      calldatasize\n      sub\n      dup2\n      add\n      swap1\n      tag_26\n      swap2\n      swap1\n      tag_27\n      jump\t// in\n    tag_26:\n      tag_28\n      jump\t// in\n    tag_25:\n      mload(0x40)\n      tag_29\n      swap2\n      swap1\n      tag_30\n      jump\t// in\n    tag_29:\n      mload(0x40)\n      dup1\n      swap2\n      sub\n      swap1\n      return\n        /* \"DualERC1155ERC20Converter.sol\":2166:2239  mapping(address => mapping(uint256 => bool)) public allowedERC1155Reverse */\n    tag_4:\n      tag_31\n      0x04\n      dup1\n      calldatasize\n      sub\n      dup2\n      add\n      swap1\n      tag_32\n      swap2\n      swap1\n      tag_33\n      jump\t// in\n    tag_32:\n      tag_34\n      jump\t// in\n    tag_31:\n      mload(0x40)\n      tag_35\n      swap2\n      swap1\n      tag_30\n      jump\t// in\n    tag_35:\n      mload(0x40)\n      dup1\n      swap2\n      sub\n      swap1\n      return\n        /* \"DualERC1155ERC20Converter.sol\":3202:3263  ConversionRecordERC20ToERC1155[] public erc20ToErc1155History */\n    tag_5:\n      tag_36\n      0x04\n      dup1\n      calldatasize\n      sub\n      dup2\n      add\n      swap1\n      tag_37\n      swap2\n      swap1\n      tag_38\n      jump\t// in\n    tag_37:\n      tag_39\n      jump\t// in\n    tag_36:\n      mload(0x40)\n      tag_40\n      swap6\n      swap5\n      swap4\n      swap3\n      swap2\n      swap1\n      tag_41\n      jump\t// in\n    tag_40:\n      mload(0x40)\n      dup1\n      swap2\n      sub\n      swap1\n      return\n        /* \"DualERC1155ERC20Converter.sol\":2849:2892  ConversionRecord[] public conversionHistory */\n    tag_6:\n      tag_42\n      0x04\n      dup1\n      calldatasize\n      sub\n      dup2\n      add\n      swap1\n      tag_43\n      swap2\n      swap1\n      tag_38\n      jump\t// in\n    tag_43:\n      tag_44\n      jump\t// in\n    tag_42:\n      mload(0x40)\n      tag_45\n      swap5\n      swap4\n      swap3\n      swap2\n      swap1\n      tag_46\n      jump\t// in\n    tag_45:\n      mload(0x40)\n      dup1\n      swap2\n      sub\n      swap1\n      return\n        /* \"DualERC1155ERC20Converter.sol\":1893:1966  mapping(address => mapping(uint256 => bool)) public allowedERC1155Forward */\n    tag_7:\n      tag_47\n      0x04\n      dup1\n      calldatasize\n      sub\n      dup2\n      add\n      swap1\n      tag_48\n      swap2\n      swap1\n      tag_33\n      jump\t// in\n    tag_48:\n      tag_49\n      jump\t// in\n    tag_47:\n      mload(0x40)\n      tag_50\n      swap2\n      swap1\n      tag_30\n      jump\t// in\n    tag_50:\n      mload(0x40)\n      dup1\n      swap2\n      sub\n      swap1\n      return\n        /* \"DualERC1155ERC20Converter.sol\":6472:6815  function addAllowedERC1155Reverse(address erc1155Contract, uint256 tokenId) external onlyOwner {... */\n    tag_8:\n      tag_51\n      0x04\n      dup1\n      calldatasize\n      sub\n      dup2\n      add\n      swap1\n      tag_52\n      swap2\n      swap1\n      tag_33\n      jump\t// in\n    tag_52:\n      tag_53\n      jump\t// in\n    tag_51:\n      stop\n        /* \"@openzeppelin/contracts/access/Ownable.sol\":2293:2394  function renounceOwnership() public virtual onlyOwner {... */\n    tag_9:\n      tag_54\n      tag_55\n      jump\t// in\n    tag_54:\n      stop\n        /* \"DualERC1155ERC20Converter.sol\":1561:1601  IERC20MintableBurnable public erc20Token */\n    tag_10:\n      tag_56\n      tag_57\n      jump\t// in\n    tag_56:\n      mload(0x40)\n      tag_58\n      swap2\n      swap1\n      tag_59\n      jump\t// in\n    tag_58:\n      mload(0x40)\n      dup1\n      swap2\n      sub\n      swap1\n      return\n        /* \"@openzeppelin/contracts/access/Ownable.sol\":1638:1723  function owner() public view virtual returns (address) {... */\n    tag_11:\n      tag_60\n      tag_61\n      jump\t// in\n    tag_60:\n      mload(0x40)\n      tag_62\n      swap2\n      swap1\n      tag_63\n      jump\t// in\n    tag_62:\n      mload(0x40)\n      dup1\n      swap2\n      sub\n      swap1\n      return\n        /* \"DualERC1155ERC20Converter.sol\":5469:5812  function addAllowedERC1155Forward(address erc1155Contract, uint256 tokenId) external onlyOwner {... */\n    tag_12:\n      tag_64\n      0x04\n      dup1\n      calldatasize\n      sub\n      dup2\n      add\n      swap1\n      tag_65\n      swap2\n      swap1\n      tag_33\n      jump\t// in\n    tag_65:\n      tag_66\n      jump\t// in\n    tag_64:\n      stop\n        /* \"DualERC1155ERC20Converter.sol\":3367:3464  mapping(address => ConversionRecordERC20ToERC1155[]) public conversionRecordsERC20ToERC1155ByUser */\n    tag_13:\n      tag_67\n      0x04\n      dup1\n      calldatasize\n      sub\n      dup2\n      add\n      swap1\n      tag_68\n      swap2\n      swap1\n      tag_33\n      jump\t// in\n    tag_68:\n      tag_69\n      jump\t// in\n    tag_67:\n      mload(0x40)\n      tag_70\n      swap6\n      swap5\n      swap4\n      swap3\n      swap2\n      swap1\n      tag_41\n      jump\t// in\n    tag_70:\n      mload(0x40)\n      dup1\n      swap2\n      sub\n      swap1\n      return\n        /* \"DualERC1155ERC20Converter.sol\":10129:10961  function onERC1155BatchReceived(... */\n    tag_14:\n      tag_71\n      0x04\n      dup1\n      calldatasize\n      sub\n      dup2\n      add\n      swap1\n      tag_72\n      swap2\n      swap1\n      tag_73\n      jump\t// in\n    tag_72:\n      tag_74\n      jump\t// in\n    tag_71:\n      mload(0x40)\n      tag_75\n      swap2\n      swap1\n      tag_76\n      jump\t// in\n    tag_75:\n      mload(0x40)\n      dup1\n      swap2\n      sub\n      swap1\n      return\n        /* \"DualERC1155ERC20Converter.sol\":6024:6263  function removeAllowedERC1155Forward(address erc1155Contract, uint256 tokenId) external onlyOwner {... */\n    tag_15:\n      tag_77\n      0x04\n      dup1\n      calldatasize\n      sub\n      dup2\n      add\n      swap1\n      tag_78\n      swap2\n      swap1\n      tag_33\n      jump\t// in\n    tag_78:\n      tag_79\n      jump\t// in\n    tag_77:\n      stop\n        /* \"DualERC1155ERC20Converter.sol\":4923:5260  function setERC20Token(address _erc20Token) external onlyOwner {... */\n    tag_16:\n      tag_80\n      0x04\n      dup1\n      calldatasize\n      sub\n      dup2\n      add\n      swap1\n      tag_81\n      swap2\n      swap1\n      tag_82\n      jump\t// in\n    tag_81:\n      tag_83\n      jump\t// in\n    tag_80:\n      stop\n        /* \"DualERC1155ERC20Converter.sol\":11630:12921  function convertToERC1155(address erc1155Contract, uint256 tokenId, uint256 amount) external {... */\n    tag_17:\n      tag_84\n      0x04\n      dup1\n      calldatasize\n      sub\n      dup2\n      add\n      swap1\n      tag_85\n      swap2\n      swap1\n      tag_86\n      jump\t// in\n    tag_85:\n      tag_87\n      jump\t// in\n    tag_84:\n      stop\n        /* \"DualERC1155ERC20Converter.sol\":7027:7266  function removeAllowedERC1155Reverse(address erc1155Contract, uint256 tokenId) external onlyOwner {... */\n    tag_18:\n      tag_88\n      0x04\n      dup1\n      calldatasize\n      sub\n      dup2\n      add\n      swap1\n      tag_89\n      swap2\n      swap1\n      tag_33\n      jump\t// in\n    tag_89:\n      tag_90\n      jump\t// in\n    tag_88:\n      stop\n        /* \"DualERC1155ERC20Converter.sol\":7815:8361  function onERC1155Received(... */\n    tag_19:\n      tag_91\n      0x04\n      dup1\n      calldatasize\n      sub\n      dup2\n      add\n      swap1\n      tag_92\n      swap2\n      swap1\n      tag_93\n      jump\t// in\n    tag_92:\n      tag_94\n      jump\t// in\n    tag_91:\n      mload(0x40)\n      tag_95\n      swap2\n      swap1\n      tag_76\n      jump\t// in\n    tag_95:\n      mload(0x40)\n      dup1\n      swap2\n      sub\n      swap1\n      return\n        /* \"@openzeppelin/contracts/access/Ownable.sol\":2543:2758  function transferOwnership(address newOwner) public virtual onlyOwner {... */\n    tag_20:\n      tag_96\n      0x04\n      dup1\n      calldatasize\n      sub\n      dup2\n      add\n      swap1\n      tag_97\n      swap2\n      swap1\n      tag_82\n      jump\t// in\n    tag_97:\n      tag_98\n      jump\t// in\n    tag_96:\n      stop\n        /* \"DualERC1155ERC20Converter.sol\":2716:2787  mapping(address => ConversionRecord[]) public conversionRecordsBySender */\n    tag_21:\n      tag_99\n      0x04\n      dup1\n      calldatasize\n      sub\n      dup2\n      add\n      swap1\n      tag_100\n      swap2\n      swap1\n      tag_33\n      jump\t// in\n    tag_100:\n      tag_101\n      jump\t// in\n    tag_99:\n      mload(0x40)\n      tag_102\n      swap5\n      swap4\n      swap3\n      swap2\n      swap1\n      tag_46\n      jump\t// in\n    tag_102:\n      mload(0x40)\n      dup1\n      swap2\n      sub\n      swap1\n      return\n        /* \"@openzeppelin/contracts/token/ERC1155/utils/ERC1155Holder.sol\":650:871  function supportsInterface(bytes4 interfaceId) public view virtual override(ERC165, IERC165) returns (bool) {... */\n    tag_28:\n        /* \"@openzeppelin/contracts/token/ERC1155/utils/ERC1155Holder.sol\":752:756  bool */\n      0x00\n        /* \"@openzeppelin/contracts/token/ERC1155/utils/ERC1155Holder.sol\":790:824  type(IERC1155Receiver).interfaceId */\n      0x4e2312e000000000000000000000000000000000000000000000000000000000\n        /* \"@openzeppelin/contracts/token/ERC1155/utils/ERC1155Holder.sol\":775:824  interfaceId == type(IERC1155Receiver).interfaceId */\n      not(0xffffffffffffffffffffffffffffffffffffffffffffffffffffffff)\n      and\n        /* \"@openzeppelin/contracts/token/ERC1155/utils/ERC1155Holder.sol\":775:786  interfaceId */\n      dup3\n        /* \"@openzeppelin/contracts/token/ERC1155/utils/ERC1155Holder.sol\":775:824  interfaceId == type(IERC1155Receiver).interfaceId */\n      not(0xffffffffffffffffffffffffffffffffffffffffffffffffffffffff)\n      and\n      eq\n        /* \"@openzeppelin/contracts/token/ERC1155/utils/ERC1155Holder.sol\":775:864  interfaceId == type(IERC1155Receiver).interfaceId || super.supportsInterface(interfaceId) */\n      dup1\n      tag_104\n      jumpi\n      pop\n        /* \"@openzeppelin/contracts/token/ERC1155/utils/ERC1155Holder.sol\":828:864  super.supportsInterface(interfaceId) */\n      tag_105\n        /* \"@openzeppelin/contracts/token/ERC1155/utils/ERC1155Holder.sol\":852:863  interfaceId */\n      dup3\n        /* \"@openzeppelin/contracts/token/ERC1155/utils/ERC1155Holder.sol\":828:851  super.supportsInterface */\n      tag_106\n        /* \"@openzeppelin/contracts/token/ERC1155/utils/ERC1155Holder.sol\":828:864  super.supportsInterface(interfaceId) */\n      jump\t// in\n    tag_105:\n        /* \"@openzeppelin/contracts/token/ERC1155/utils/ERC1155Holder.sol\":775:864  interfaceId == type(IERC1155Receiver).interfaceId || super.supportsInterface(interfaceId) */\n    tag_104:\n        /* \"@openzeppelin/contracts/token/ERC1155/utils/ERC1155Holder.sol\":768:864  return interfaceId == type(IERC1155Receiver).interfaceId || super.supportsInterface(interfaceId) */\n      swap1\n      pop\n        /* \"@openzeppelin/contracts/token/ERC1155/utils/ERC1155Holder.sol\":650:871  function supportsInterface(bytes4 interfaceId) public view virtual override(ERC165, IERC165) returns (bool) {... */\n      swap2\n      swap1\n      pop\n      jump\t// out\n        /* \"DualERC1155ERC20Converter.sol\":2166:2239  mapping(address => mapping(uint256 => bool)) public allowedERC1155Reverse */\n    tag_34:\n      mstore(0x20, 0x03)\n      dup2\n      0x00\n      mstore\n      mstore(0x20, keccak256(0x00, 0x40))\n      dup1\n      0x00\n      mstore\n      keccak256(0x00, 0x40)\n      0x00\n      swap2\n      pop\n      swap2\n      pop\n      swap1\n      sload\n      swap1\n      0x0100\n      exp\n      swap1\n      div\n      0xff\n      and\n      dup2\n      jump\t// out\n        /* \"DualERC1155ERC20Converter.sol\":3202:3263  ConversionRecordERC20ToERC1155[] public erc20ToErc1155History */\n    tag_39:\n      0x06\n      dup2\n      dup2\n      sload\n      dup2\n      lt\n      tag_107\n      jumpi\n      0x00\n      dup1\n      revert\n    tag_107:\n      swap1\n      0x00\n      mstore\n      keccak256(0x00, 0x20)\n      swap1\n      0x05\n      mul\n      add\n      0x00\n      swap2\n      pop\n      swap1\n      pop\n      dup1\n      0x00\n      add\n      0x00\n      swap1\n      sload\n      swap1\n      0x0100\n      exp\n      swap1\n      div\n      0xffffffffffffffffffffffffffffffffffffffff\n      and\n      swap1\n      dup1\n      0x01\n      add\n      0x00\n      swap1\n      sload\n      swap1\n      0x0100\n      exp\n      swap1\n      div\n      0xffffffffffffffffffffffffffffffffffffffff\n      and\n      swap1\n      dup1\n      0x02\n      add\n      sload\n      swap1\n      dup1\n      0x03\n      add\n      sload\n      swap1\n      dup1\n      0x04\n      add\n      sload\n      swap1\n      pop\n      dup6\n      jump\t// out\n        /* \"DualERC1155ERC20Converter.sol\":2849:2892  ConversionRecord[] public conversionHistory */\n    tag_44:\n      0x05\n      dup2\n      dup2\n      sload\n      dup2\n      lt\n      tag_109\n      jumpi\n      0x00\n      dup1\n      revert\n    tag_109:\n      swap1\n      0x00\n      mstore\n      keccak256(0x00, 0x20)\n      swap1\n      0x04\n      mul\n      add\n      0x00\n      swap2\n      pop\n      swap1\n      pop\n      dup1\n      0x00\n      add\n      sload\n      swap1\n      dup1\n      0x01\n      add\n      sload\n      swap1\n      dup1\n      0x02\n      add\n      sload\n      swap1\n      dup1\n      0x03\n      add\n      sload\n      swap1\n      pop\n      dup5\n      jump\t// out\n        /* \"DualERC1155ERC20Converter.sol\":1893:1966  mapping(address => mapping(uint256 => bool)) public allowedERC1155Forward */\n    tag_49:\n      mstore(0x20, 0x02)\n      dup2\n      0x00\n      mstore\n      mstore(0x20, keccak256(0x00, 0x40))\n      dup1\n      0x00\n      mstore\n      keccak256(0x00, 0x40)\n      0x00\n      swap2\n      pop\n      swap2\n      pop\n      swap1\n      sload\n      swap1\n      0x0100\n      exp\n      swap1\n      div\n      0xff\n      and\n      dup2\n      jump\t// out\n        /* \"DualERC1155ERC20Converter.sol\":6472:6815  function addAllowedERC1155Reverse(address erc1155Contract, uint256 tokenId) external onlyOwner {... */\n    tag_53:\n        /* \"@openzeppelin/contracts/access/Ownable.sol\":1531:1544  _checkOwner() */\n      tag_112\n        /* \"@openzeppelin/contracts/access/Ownable.sol\":1531:1542  _checkOwner */\n      tag_113\n        /* \"@openzeppelin/contracts/access/Ownable.sol\":1531:1544  _checkOwner() */\n      jump\t// in\n    tag_112:\n        /* \"DualERC1155ERC20Converter.sol\":6612:6613  0 */\n      0x00\n        /* \"DualERC1155ERC20Converter.sol\":6585:6614  erc1155Contract != address(0) */\n      0xffffffffffffffffffffffffffffffffffffffff\n      and\n        /* \"DualERC1155ERC20Converter.sol\":6585:6600  erc1155Contract */\n      dup3\n        /* \"DualERC1155ERC20Converter.sol\":6585:6614  erc1155Contract != address(0) */\n      0xffffffffffffffffffffffffffffffffffffffff\n      and\n      eq\n      iszero\n        /* \"DualERC1155ERC20Converter.sol\":6585:6649  erc1155Contract != address(0) && erc1155Contract.code.length > 0 */\n      dup1\n      iszero\n      tag_115\n      jumpi\n      pop\n        /* \"DualERC1155ERC20Converter.sol\":6648:6649  0 */\n      0x00\n        /* \"DualERC1155ERC20Converter.sol\":6618:6633  erc1155Contract */\n      dup3\n        /* \"DualERC1155ERC20Converter.sol\":6618:6645  erc1155Contract.code.length */\n      0xffffffffffffffffffffffffffffffffffffffff\n      and\n      extcodesize\n        /* \"DualERC1155ERC20Converter.sol\":6618:6649  erc1155Contract.code.length > 0 */\n      gt\n        /* \"DualERC1155ERC20Converter.sol\":6585:6649  erc1155Contract != address(0) && erc1155Contract.code.length > 0 */\n    tag_115:\n        /* \"DualERC1155ERC20Converter.sol\":6577:6677  require(erc1155Contract != address(0) && erc1155Contract.code.length > 0, \"Invalid ERC1155 address\") */\n      tag_116\n      jumpi\n      mload(0x40)\n      0x08c379a000000000000000000000000000000000000000000000000000000000\n      dup2\n      mstore\n      0x04\n      add\n      tag_117\n      swap1\n      tag_118\n      jump\t// in\n    tag_117:\n      mload(0x40)\n      dup1\n      swap2\n      sub\n      swap1\n      revert\n    tag_116:\n        /* \"DualERC1155ERC20Converter.sol\":6737:6741  true */\n      0x01\n        /* \"DualERC1155ERC20Converter.sol\":6687:6708  allowedERC1155Reverse */\n      0x03\n        /* \"DualERC1155ERC20Converter.sol\":6687:6725  allowedERC1155Reverse[erc1155Contract] */\n      0x00\n        /* \"DualERC1155ERC20Converter.sol\":6709:6724  erc1155Contract */\n      dup5\n        /* \"DualERC1155ERC20Converter.sol\":6687:6725  allowedERC1155Reverse[erc1155Contract] */\n      0xffffffffffffffffffffffffffffffffffffffff\n      and\n      0xffffffffffffffffffffffffffffffffffffffff\n      and\n      dup2\n      mstore\n      0x20\n      add\n      swap1\n      dup2\n      mstore\n      0x20\n      add\n      0x00\n      keccak256\n        /* \"DualERC1155ERC20Converter.sol\":6687:6734  allowedERC1155Reverse[erc1155Contract][tokenId] */\n      0x00\n        /* \"DualERC1155ERC20Converter.sol\":6726:6733  tokenId */\n      dup4\n        /* \"DualERC1155ERC20Converter.sol\":6687:6734  allowedERC1155Reverse[erc1155Contract][tokenId] */\n      dup2\n      mstore\n      0x20\n      add\n      swap1\n      dup2\n      mstore\n      0x20\n      add\n      0x00\n      keccak256\n      0x00\n        /* \"DualERC1155ERC20Converter.sol\":6687:6741  allowedERC1155Reverse[erc1155Contract][tokenId] = true */\n      0x0100\n      exp\n      dup2\n      sload\n      dup2\n      0xff\n      mul\n      not\n      and\n      swap1\n      dup4\n      iszero\n      iszero\n      mul\n      or\n      swap1\n      sstore\n      pop\n        /* \"DualERC1155ERC20Converter.sol\":6800:6807  tokenId */\n      dup1\n        /* \"DualERC1155ERC20Converter.sol\":6783:6798  erc1155Contract */\n      dup3\n        /* \"DualERC1155ERC20Converter.sol\":6756:6808  AllowedERC1155ReverseAdded(erc1155Contract, tokenId) */\n      0xffffffffffffffffffffffffffffffffffffffff\n      and\n      0x7a7a4e4c606c134c123ed1f1b82ad01ac98f1262f47e4768a5f0f588da717e8f\n      mload(0x40)\n      mload(0x40)\n      dup1\n      swap2\n      sub\n      swap1\n      log3\n        /* \"DualERC1155ERC20Converter.sol\":6472:6815  function addAllowedERC1155Reverse(address erc1155Contract, uint256 tokenId) external onlyOwner {... */\n      pop\n      pop\n      jump\t// out\n        /* \"@openzeppelin/contracts/access/Ownable.sol\":2293:2394  function renounceOwnership() public virtual onlyOwner {... */\n    tag_55:\n        /* \"@openzeppelin/contracts/access/Ownable.sol\":1531:1544  _checkOwner() */\n      tag_120\n        /* \"@openzeppelin/contracts/access/Ownable.sol\":1531:1542  _checkOwner */\n      tag_113\n        /* \"@openzeppelin/contracts/access/Ownable.sol\":1531:1544  _checkOwner() */\n      jump\t// in\n    tag_120:\n        /* \"@openzeppelin/contracts/access/Ownable.sol\":2357:2387  _transferOwnership(address(0)) */\n      tag_122\n        /* \"@openzeppelin/contracts/access/Ownable.sol\":2384:2385  0 */\n      0x00\n        /* \"@openzeppelin/contracts/access/Ownable.sol\":2357:2375  _transferOwnership */\n      tag_123\n        /* \"@openzeppelin/contracts/access/Ownable.sol\":2357:2387  _transferOwnership(address(0)) */\n      jump\t// in\n    tag_122:\n        /* \"@openzeppelin/contracts/access/Ownable.sol\":2293:2394  function renounceOwnership() public virtual onlyOwner {... */\n      jump\t// out\n        /* \"DualERC1155ERC20Converter.sol\":1561:1601  IERC20MintableBurnable public erc20Token */\n    tag_57:\n      0x01\n      0x00\n      swap1\n      sload\n      swap1\n      0x0100\n      exp\n      swap1\n      div\n      0xffffffffffffffffffffffffffffffffffffffff\n      and\n      dup2\n      jump\t// out\n        /* \"@openzeppelin/contracts/access/Ownable.sol\":1638:1723  function owner() public view virtual returns (address) {... */\n    tag_61:\n        /* \"@openzeppelin/contracts/access/Ownable.sol\":1684:1691  address */\n      0x00\n        /* \"@openzeppelin/contracts/access/Ownable.sol\":1710:1716  _owner */\n      dup1\n      0x00\n      swap1\n      sload\n      swap1\n      0x0100\n      exp\n      swap1\n      div\n      0xffffffffffffffffffffffffffffffffffffffff\n      and\n        /* \"@openzeppelin/contracts/access/Ownable.sol\":1703:1716  return _owner */\n      swap1\n      pop\n        /* \"@openzeppelin/contracts/access/Ownable.sol\":1638:1723  function owner() public view virtual returns (address) {... */\n      swap1\n      jump\t// out\n        /* \"DualERC1155ERC20Converter.sol\":5469:5812  function addAllowedERC1155Forward(address erc1155Contract, uint256 tokenId) external onlyOwner {... */\n    tag_66:\n        /* \"@openzeppelin/contracts/access/Ownable.sol\":1531:1544  _checkOwner() */\n      tag_126\n        /* \"@openzeppelin/contracts/access/Ownable.sol\":1531:1542  _checkOwner */\n      tag_113\n        /* \"@openzeppelin/contracts/access/Ownable.sol\":1531:1544  _checkOwner() */\n      jump\t// in\n    tag_126:\n        /* \"DualERC1155ERC20Converter.sol\":5609:5610  0 */\n      0x00\n        /* \"DualERC1155ERC20Converter.sol\":5582:5611  erc1155Contract != address(0) */\n      0xffffffffffffffffffffffffffffffffffffffff\n      and\n        /* \"DualERC1155ERC20Converter.sol\":5582:5597  erc1155Contract */\n      dup3\n        /* \"DualERC1155ERC20Converter.sol\":5582:5611  erc1155Contract != address(0) */\n      0xffffffffffffffffffffffffffffffffffffffff\n      and\n      eq\n      iszero\n        /* \"DualERC1155ERC20Converter.sol\":5582:5646  erc1155Contract != address(0) && erc1155Contract.code.length > 0 */\n      dup1\n      iszero\n      tag_128\n      jumpi\n      pop\n        /* \"DualERC1155ERC20Converter.sol\":5645:5646  0 */\n      0x00\n        /* \"DualERC1155ERC20Converter.sol\":5615:5630  erc1155Contract */\n      dup3\n        /* \"DualERC1155ERC20Converter.sol\":5615:5642  erc1155Contract.code.length */\n      0xffffffffffffffffffffffffffffffffffffffff\n      and\n      extcodesize\n        /* \"DualERC1155ERC20Converter.sol\":5615:5646  erc1155Contract.code.length > 0 */\n      gt\n        /* \"DualERC1155ERC20Converter.sol\":5582:5646  erc1155Contract != address(0) && erc1155Contract.code.length > 0 */\n    tag_128:\n        /* \"DualERC1155ERC20Converter.sol\":5574:5674  require(erc1155Contract != address(0) && erc1155Contract.code.length > 0, \"Invalid ERC1155 address\") */\n      tag_129\n      jumpi\n      mload(0x40)\n      0x08c379a000000000000000000000000000000000000000000000000000000000\n      dup2\n      mstore\n      0x04\n      add\n      tag_130\n      swap1\n      tag_118\n      jump\t// in\n    tag_130:\n      mload(0x40)\n      dup1\n      swap2\n      sub\n      swap1\n      revert\n    tag_129:\n        /* \"DualERC1155ERC20Converter.sol\":5734:5738  true */\n      0x01\n        /* \"DualERC1155ERC20Converter.sol\":5684:5705  allowedERC1155Forward */\n      0x02\n        /* \"DualERC1155ERC20Converter.sol\":5684:5722  allowedERC1155Forward[erc1155Contract] */\n      0x00\n        /* \"DualERC1155ERC20Converter.sol\":5706:5721  erc1155Contract */\n      dup5\n        /* \"DualERC1155ERC20Converter.sol\":5684:5722  allowedERC1155Forward[erc1155Contract] */\n      0xffffffffffffffffffffffffffffffffffffffff\n      and\n      0xffffffffffffffffffffffffffffffffffffffff\n      and\n      dup2\n      mstore\n      0x20\n      add\n      swap1\n      dup2\n      mstore\n      0x20\n      add\n      0x00\n      keccak256\n        /* \"DualERC1155ERC20Converter.sol\":5684:5731  allowedERC1155Forward[erc1155Contract][tokenId] */\n      0x00\n        /* \"DualERC1155ERC20Converter.sol\":5723:5730  tokenId */\n      dup4\n        /* \"DualERC1155ERC20Converter.sol\":5684:5731  allowedERC1155Forward[erc1155Contract][tokenId] */\n      dup2\n      mstore\n      0x20\n      add\n      swap1\n      dup2\n      mstore\n      0x20\n      add\n      0x00\n      keccak256\n      0x00\n        /* \"DualERC1155ERC20Converter.sol\":5684:5738  allowedERC1155Forward[erc1155Contract][tokenId] = true */\n      0x0100\n      exp\n      dup2\n      sload\n      dup2\n      0xff\n      mul\n      not\n      and\n      swap1\n      dup4\n      iszero\n      iszero\n      mul\n      or\n      swap1\n      sstore\n      pop\n        /* \"DualERC1155ERC20Converter.sol\":5797:5804  tokenId */\n      dup1\n        /* \"DualERC1155ERC20Converter.sol\":5780:5795  erc1155Contract */\n      dup3\n        /* \"DualERC1155ERC20Converter.sol\":5753:5805  AllowedERC1155ForwardAdded(erc1155Contract, tokenId) */\n      0xffffffffffffffffffffffffffffffffffffffff\n      and\n      0x25a602cd77d0dcd2d9a9271c81530ca6b2befdc1b20ff547cdb34bd1093804b3\n      mload(0x40)\n      mload(0x40)\n      dup1\n      swap2\n      sub\n      swap1\n      log3\n        /* \"DualERC1155ERC20Converter.sol\":5469:5812  function addAllowedERC1155Forward(address erc1155Contract, uint256 tokenId) external onlyOwner {... */\n      pop\n      pop\n      jump\t// out\n        /* \"DualERC1155ERC20Converter.sol\":3367:3464  mapping(address => ConversionRecordERC20ToERC1155[]) public conversionRecordsERC20ToERC1155ByUser */\n    tag_69:\n      mstore(0x20, 0x07)\n      dup2\n      0x00\n      mstore\n      keccak256(0x00, 0x40)\n      dup2\n      dup2\n      sload\n      dup2\n      lt\n      tag_131\n      jumpi\n      0x00\n      dup1\n      revert\n    tag_131:\n      swap1\n      0x00\n      mstore\n      keccak256(0x00, 0x20)\n      swap1\n      0x05\n      mul\n      add\n      0x00\n      swap2\n      pop\n      swap2\n      pop\n      pop\n      dup1\n      0x00\n      add\n      0x00\n      swap1\n      sload\n      swap1\n      0x0100\n      exp\n      swap1\n      div\n      0xffffffffffffffffffffffffffffffffffffffff\n      and\n      swap1\n      dup1\n      0x01\n      add\n      0x00\n      swap1\n      sload\n      swap1\n      0x0100\n      exp\n      swap1\n      div\n      0xffffffffffffffffffffffffffffffffffffffff\n      and\n      swap1\n      dup1\n      0x02\n      add\n      sload\n      swap1\n      dup1\n      0x03\n      add\n      sload\n      swap1\n      dup1\n      0x04\n      add\n      sload\n      swap1\n      pop\n      dup6\n      jump\t// out\n        /* \"DualERC1155ERC20Converter.sol\":10129:10961  function onERC1155BatchReceived(... */\n    tag_74:\n        /* \"DualERC1155ERC20Converter.sol\":10330:10336  bytes4 */\n      0x00\n        /* \"DualERC1155ERC20Converter.sol\":10368:10372  from */\n      dup5\n        /* \"DualERC1155ERC20Converter.sol\":10356:10372  operator == from */\n      0xffffffffffffffffffffffffffffffffffffffff\n      and\n        /* \"DualERC1155ERC20Converter.sol\":10356:10364  operator */\n      dup7\n        /* \"DualERC1155ERC20Converter.sol\":10356:10372  operator == from */\n      0xffffffffffffffffffffffffffffffffffffffff\n      and\n      eq\n        /* \"DualERC1155ERC20Converter.sol\":10348:10420  require(operator == from, \"Only the token owner can trigger conversion\") */\n      tag_134\n      jumpi\n      mload(0x40)\n      0x08c379a000000000000000000000000000000000000000000000000000000000\n      dup2\n      mstore\n      0x04\n      add\n      tag_135\n      swap1\n      tag_136\n      jump\t// in\n    tag_135:\n      mload(0x40)\n      dup1\n      swap2\n      sub\n      swap1\n      revert\n    tag_134:\n        /* \"DualERC1155ERC20Converter.sol\":10452:10458  values */\n      dup3\n        /* \"DualERC1155ERC20Converter.sol\":10452:10465  values.length */\n      mload\n        /* \"DualERC1155ERC20Converter.sol\":10438:10441  ids */\n      dup5\n        /* \"DualERC1155ERC20Converter.sol\":10438:10448  ids.length */\n      mload\n        /* \"DualERC1155ERC20Converter.sol\":10438:10465  ids.length == values.length */\n      eq\n        /* \"DualERC1155ERC20Converter.sol\":10430:10500  require(ids.length == values.length, \"IDs and values length mismatch\") */\n      tag_137\n      jumpi\n      mload(0x40)\n      0x08c379a000000000000000000000000000000000000000000000000000000000\n      dup2\n      mstore\n      0x04\n      add\n      tag_138\n      swap1\n      tag_139\n      jump\t// in\n    tag_138:\n      mload(0x40)\n      dup1\n      swap2\n      sub\n      swap1\n      revert\n    tag_137:\n        /* \"DualERC1155ERC20Converter.sol\":10549:10550  0 */\n      0x00\n        /* \"DualERC1155ERC20Converter.sol\":10518:10551  address(erc20Token) != address(0) */\n      0xffffffffffffffffffffffffffffffffffffffff\n      and\n        /* \"DualERC1155ERC20Converter.sol\":10526:10536  erc20Token */\n      0x01\n      0x00\n      swap1\n      sload\n      swap1\n      0x0100\n      exp\n      swap1\n      div\n      0xffffffffffffffffffffffffffffffffffffffff\n      and\n        /* \"DualERC1155ERC20Converter.sol\":10518:10551  address(erc20Token) != address(0) */\n      0xffffffffffffffffffffffffffffffffffffffff\n      and\n      sub\n        /* \"DualERC1155ERC20Converter.sol\":10510:10575  require(address(erc20Token) != address(0), \"ERC20 token not set\") */\n      tag_140\n      jumpi\n      mload(0x40)\n      0x08c379a000000000000000000000000000000000000000000000000000000000\n      dup2\n      mstore\n      0x04\n      add\n      tag_141\n      swap1\n      tag_142\n      jump\t// in\n    tag_141:\n      mload(0x40)\n      dup1\n      swap2\n      sub\n      swap1\n      revert\n    tag_140:\n        /* \"DualERC1155ERC20Converter.sol\":10591:10600  uint256 i */\n      0x00\n        /* \"DualERC1155ERC20Converter.sol\":10586:10902  for (uint256 i = 0; i < ids.length; i++) {... */\n    tag_143:\n        /* \"DualERC1155ERC20Converter.sol\":10610:10613  ids */\n      dup5\n        /* \"DualERC1155ERC20Converter.sol\":10610:10620  ids.length */\n      mload\n        /* \"DualERC1155ERC20Converter.sol\":10606:10607  i */\n      dup2\n        /* \"DualERC1155ERC20Converter.sol\":10606:10620  i < ids.length */\n      lt\n        /* \"DualERC1155ERC20Converter.sol\":10586:10902  for (uint256 i = 0; i < ids.length; i++) {... */\n      iszero\n      tag_144\n      jumpi\n        /* \"DualERC1155ERC20Converter.sol\":10649:10670  allowedERC1155Forward */\n      0x02\n        /* \"DualERC1155ERC20Converter.sol\":10649:10682  allowedERC1155Forward[msg.sender] */\n      0x00\n        /* \"DualERC1155ERC20Converter.sol\":10671:10681  msg.sender */\n      caller\n        /* \"DualERC1155ERC20Converter.sol\":10649:10682  allowedERC1155Forward[msg.sender] */\n      0xffffffffffffffffffffffffffffffffffffffff\n      and\n      0xffffffffffffffffffffffffffffffffffffffff\n      and\n      dup2\n      mstore\n      0x20\n      add\n      swap1\n      dup2\n      mstore\n      0x20\n      add\n      0x00\n      keccak256\n        /* \"DualERC1155ERC20Converter.sol\":10649:10690  allowedERC1155Forward[msg.sender][ids[i]] */\n      0x00\n        /* \"DualERC1155ERC20Converter.sol\":10683:10686  ids */\n      dup7\n        /* \"DualERC1155ERC20Converter.sol\":10687:10688  i */\n      dup4\n        /* \"DualERC1155ERC20Converter.sol\":10683:10689  ids[i] */\n      dup2\n      mload\n      dup2\n      lt\n      tag_146\n      jumpi\n      tag_147\n      tag_148\n      jump\t// in\n    tag_147:\n    tag_146:\n      0x20\n      mul\n      0x20\n      add\n      add\n      mload\n        /* \"DualERC1155ERC20Converter.sol\":10649:10690  allowedERC1155Forward[msg.sender][ids[i]] */\n      dup2\n      mstore\n      0x20\n      add\n      swap1\n      dup2\n      mstore\n      0x20\n      add\n      0x00\n      keccak256\n      0x00\n      swap1\n      sload\n      swap1\n      0x0100\n      exp\n      swap1\n      div\n      0xff\n      and\n        /* \"DualERC1155ERC20Converter.sol\":10641:10748  require(allowedERC1155Forward[msg.sender][ids[i]], \"One or more ERC1155 tokens not allowed for conversion\") */\n      tag_149\n      jumpi\n      mload(0x40)\n      0x08c379a000000000000000000000000000000000000000000000000000000000\n      dup2\n      mstore\n      0x04\n      add\n      tag_150\n      swap1\n      tag_151\n      jump\t// in\n    tag_150:\n      mload(0x40)\n      dup1\n      swap2\n      sub\n      swap1\n      revert\n    tag_149:\n        /* \"DualERC1155ERC20Converter.sol\":10762:10772  erc20Token */\n      0x01\n      0x00\n      swap1\n      sload\n      swap1\n      0x0100\n      exp\n      swap1\n      div\n      0xffffffffffffffffffffffffffffffffffffffff\n      and\n        /* \"DualERC1155ERC20Converter.sol\":10762:10777  erc20Token.mint */\n      0xffffffffffffffffffffffffffffffffffffffff\n      and\n      0x40c10f19\n        /* \"DualERC1155ERC20Converter.sol\":10778:10782  from */\n      dup8\n        /* \"DualERC1155ERC20Converter.sol\":10784:10790  values */\n      dup7\n        /* \"DualERC1155ERC20Converter.sol\":10791:10792  i */\n      dup5\n        /* \"DualERC1155ERC20Converter.sol\":10784:10793  values[i] */\n      dup2\n      mload\n      dup2\n      lt\n      tag_152\n      jumpi\n      tag_153\n      tag_148\n      jump\t// in\n    tag_153:\n    tag_152:\n      0x20\n      mul\n      0x20\n      add\n      add\n      mload\n        /* \"DualERC1155ERC20Converter.sol\":10762:10794  erc20Token.mint(from, values[i]) */\n      mload(0x40)\n      dup4\n      0xffffffff\n      and\n      0xe0\n      shl\n      dup2\n      mstore\n      0x04\n      add\n      tag_154\n      swap3\n      swap2\n      swap1\n      tag_155\n      jump\t// in\n    tag_154:\n      0x00\n      mload(0x40)\n      dup1\n      dup4\n      sub\n      dup2\n      0x00\n      dup8\n      dup1\n      extcodesize\n      iszero\n      dup1\n      iszero\n      tag_156\n      jumpi\n      0x00\n      dup1\n      revert\n    tag_156:\n      pop\n      gas\n      call\n      iszero\n      dup1\n      iszero\n      tag_158\n      jumpi\n      returndatasize\n      0x00\n      dup1\n      returndatacopy\n      revert(0x00, returndatasize)\n    tag_158:\n      pop\n      pop\n      pop\n      pop\n        /* \"DualERC1155ERC20Converter.sol\":10856:10859  ids */\n      dup5\n        /* \"DualERC1155ERC20Converter.sol\":10860:10861  i */\n      dup2\n        /* \"DualERC1155ERC20Converter.sol\":10856:10862  ids[i] */\n      dup2\n      mload\n      dup2\n      lt\n      tag_159\n      jumpi\n      tag_160\n      tag_148\n      jump\t// in\n    tag_160:\n    tag_159:\n      0x20\n      mul\n      0x20\n      add\n      add\n      mload\n        /* \"DualERC1155ERC20Converter.sol\":10844:10854  msg.sender */\n      caller\n        /* \"DualERC1155ERC20Converter.sol\":10813:10891  ERC1155ToERC20Conversion(from, msg.sender, ids[i], values[i], block.timestamp) */\n      0xffffffffffffffffffffffffffffffffffffffff\n      and\n        /* \"DualERC1155ERC20Converter.sol\":10838:10842  from */\n      dup8\n        /* \"DualERC1155ERC20Converter.sol\":10813:10891  ERC1155ToERC20Conversion(from, msg.sender, ids[i], values[i], block.timestamp) */\n      0xffffffffffffffffffffffffffffffffffffffff\n      and\n      0x40ba10935627ab450dd36afe32f52afa35f94d71a0c577e5b5b655d05ff6d0ef\n        /* \"DualERC1155ERC20Converter.sol\":10864:10870  values */\n      dup8\n        /* \"DualERC1155ERC20Converter.sol\":10871:10872  i */\n      dup6\n        /* \"DualERC1155ERC20Converter.sol\":10864:10873  values[i] */\n      dup2\n      mload\n      dup2\n      lt\n      tag_161\n      jumpi\n      tag_162\n      tag_148\n      jump\t// in\n    tag_162:\n    tag_161:\n      0x20\n      mul\n      0x20\n      add\n      add\n      mload\n        /* \"DualERC1155ERC20Converter.sol\":10875:10890  block.timestamp */\n      timestamp\n        /* \"DualERC1155ERC20Converter.sol\":10813:10891  ERC1155ToERC20Conversion(from, msg.sender, ids[i], values[i], block.timestamp) */\n      mload(0x40)\n      tag_163\n      swap3\n      swap2\n      swap1\n      tag_164\n      jump\t// in\n    tag_163:\n      mload(0x40)\n      dup1\n      swap2\n      sub\n      swap1\n      log4\n        /* \"DualERC1155ERC20Converter.sol\":10622:10625  i++ */\n      dup1\n      dup1\n      0x01\n      add\n      swap2\n      pop\n      pop\n        /* \"DualERC1155ERC20Converter.sol\":10586:10902  for (uint256 i = 0; i < ids.length; i++) {... */\n      jump(tag_143)\n    tag_144:\n      pop\n        /* \"DualERC1155ERC20Converter.sol\":10918:10954  this.onERC1155BatchReceived.selector */\n      shl(0xe0, 0xbc197c81)\n        /* \"DualERC1155ERC20Converter.sol\":10911:10954  return this.onERC1155BatchReceived.selector */\n      swap1\n      pop\n        /* \"DualERC1155ERC20Converter.sol\":10129:10961  function onERC1155BatchReceived(... */\n      swap6\n      swap5\n      pop\n      pop\n      pop\n      pop\n      pop\n      jump\t// out\n        /* \"DualERC1155ERC20Converter.sol\":6024:6263  function removeAllowedERC1155Forward(address erc1155Contract, uint256 tokenId) external onlyOwner {... */\n    tag_79:\n        /* \"@openzeppelin/contracts/access/Ownable.sol\":1531:1544  _checkOwner() */\n      tag_166\n        /* \"@openzeppelin/contracts/access/Ownable.sol\":1531:1542  _checkOwner */\n      tag_113\n        /* \"@openzeppelin/contracts/access/Ownable.sol\":1531:1544  _checkOwner() */\n      jump\t// in\n    tag_166:\n        /* \"DualERC1155ERC20Converter.sol\":6182:6187  false */\n      0x00\n        /* \"DualERC1155ERC20Converter.sol\":6132:6153  allowedERC1155Forward */\n      0x02\n        /* \"DualERC1155ERC20Converter.sol\":6132:6170  allowedERC1155Forward[erc1155Contract] */\n      0x00\n        /* \"DualERC1155ERC20Converter.sol\":6154:6169  erc1155Contract */\n      dup5\n        /* \"DualERC1155ERC20Converter.sol\":6132:6170  allowedERC1155Forward[erc1155Contract] */\n      0xffffffffffffffffffffffffffffffffffffffff\n      and\n      0xffffffffffffffffffffffffffffffffffffffff\n      and\n      dup2\n      mstore\n      0x20\n      add\n      swap1\n      dup2\n      mstore\n      0x20\n      add\n      0x00\n      keccak256\n        /* \"DualERC1155ERC20Converter.sol\":6132:6179  allowedERC1155Forward[erc1155Contract][tokenId] */\n      0x00\n        /* \"DualERC1155ERC20Converter.sol\":6171:6178  tokenId */\n      dup4\n        /* \"DualERC1155ERC20Converter.sol\":6132:6179  allowedERC1155Forward[erc1155Contract][tokenId] */\n      dup2\n      mstore\n      0x20\n      add\n      swap1\n      dup2\n      mstore\n      0x20\n      add\n      0x00\n      keccak256\n      0x00\n        /* \"DualERC1155ERC20Converter.sol\":6132:6187  allowedERC1155Forward[erc1155Contract][tokenId] = false */\n      0x0100\n      exp\n      dup2\n      sload\n      dup2\n      0xff\n      mul\n      not\n      and\n      swap1\n      dup4\n      iszero\n      iszero\n      mul\n      or\n      swap1\n      sstore\n      pop\n        /* \"DualERC1155ERC20Converter.sol\":6248:6255  tokenId */\n      dup1\n        /* \"DualERC1155ERC20Converter.sol\":6231:6246  erc1155Contract */\n      dup3\n        /* \"DualERC1155ERC20Converter.sol\":6202:6256  AllowedERC1155ForwardRemoved(erc1155Contract, tokenId) */\n      0xffffffffffffffffffffffffffffffffffffffff\n      and\n      0x7cdf80461ab5065b7b1c6ae92ce85d5d3fd752930ff8c76a2c5f0288648e5b23\n      mload(0x40)\n      mload(0x40)\n      dup1\n      swap2\n      sub\n      swap1\n      log3\n        /* \"DualERC1155ERC20Converter.sol\":6024:6263  function removeAllowedERC1155Forward(address erc1155Contract, uint256 tokenId) external onlyOwner {... */\n      pop\n      pop\n      jump\t// out\n        /* \"DualERC1155ERC20Converter.sol\":4923:5260  function setERC20Token(address _erc20Token) external onlyOwner {... */\n    tag_83:\n        /* \"@openzeppelin/contracts/access/Ownable.sol\":1531:1544  _checkOwner() */\n      tag_169\n        /* \"@openzeppelin/contracts/access/Ownable.sol\":1531:1542  _checkOwner */\n      tag_113\n        /* \"@openzeppelin/contracts/access/Ownable.sol\":1531:1544  _checkOwner() */\n      jump\t// in\n    tag_169:\n        /* \"DualERC1155ERC20Converter.sol\":5027:5028  0 */\n      0x00\n        /* \"DualERC1155ERC20Converter.sol\":5004:5029  _erc20Token != address(0) */\n      0xffffffffffffffffffffffffffffffffffffffff\n      and\n        /* \"DualERC1155ERC20Converter.sol\":5004:5015  _erc20Token */\n      dup2\n        /* \"DualERC1155ERC20Converter.sol\":5004:5029  _erc20Token != address(0) */\n      0xffffffffffffffffffffffffffffffffffffffff\n      and\n      eq\n      iszero\n        /* \"DualERC1155ERC20Converter.sol\":5004:5060  _erc20Token != address(0) && _erc20Token.code.length > 0 */\n      dup1\n      iszero\n      tag_171\n      jumpi\n      pop\n        /* \"DualERC1155ERC20Converter.sol\":5059:5060  0 */\n      0x00\n        /* \"DualERC1155ERC20Converter.sol\":5033:5044  _erc20Token */\n      dup2\n        /* \"DualERC1155ERC20Converter.sol\":5033:5056  _erc20Token.code.length */\n      0xffffffffffffffffffffffffffffffffffffffff\n      and\n      extcodesize\n        /* \"DualERC1155ERC20Converter.sol\":5033:5060  _erc20Token.code.length > 0 */\n      gt\n        /* \"DualERC1155ERC20Converter.sol\":5004:5060  _erc20Token != address(0) && _erc20Token.code.length > 0 */\n    tag_171:\n        /* \"DualERC1155ERC20Converter.sol\":4996:5092  require(_erc20Token != address(0) && _erc20Token.code.length > 0, \"Invalid ERC20 token address\") */\n      tag_172\n      jumpi\n      mload(0x40)\n      0x08c379a000000000000000000000000000000000000000000000000000000000\n      dup2\n      mstore\n      0x04\n      add\n      tag_173\n      swap1\n      tag_174\n      jump\t// in\n    tag_173:\n      mload(0x40)\n      dup1\n      swap2\n      sub\n      swap1\n      revert\n    tag_172:\n        /* \"DualERC1155ERC20Converter.sol\":5102:5118  address previous */\n      0x00\n        /* \"DualERC1155ERC20Converter.sol\":5129:5139  erc20Token */\n      0x01\n      0x00\n      swap1\n      sload\n      swap1\n      0x0100\n      exp\n      swap1\n      div\n      0xffffffffffffffffffffffffffffffffffffffff\n      and\n        /* \"DualERC1155ERC20Converter.sol\":5102:5140  address previous = address(erc20Token) */\n      swap1\n      pop\n        /* \"DualERC1155ERC20Converter.sol\":5186:5197  _erc20Token */\n      dup2\n        /* \"DualERC1155ERC20Converter.sol\":5150:5160  erc20Token */\n      0x01\n      0x00\n        /* \"DualERC1155ERC20Converter.sol\":5150:5198  erc20Token = IERC20MintableBurnable(_erc20Token) */\n      0x0100\n      exp\n      dup2\n      sload\n      dup2\n      0xffffffffffffffffffffffffffffffffffffffff\n      mul\n      not\n      and\n      swap1\n      dup4\n      0xffffffffffffffffffffffffffffffffffffffff\n      and\n      mul\n      or\n      swap1\n      sstore\n      pop\n        /* \"DualERC1155ERC20Converter.sol\":5241:5252  _erc20Token */\n      dup2\n        /* \"DualERC1155ERC20Converter.sol\":5213:5253  ERC20TokenUpdated(previous, _erc20Token) */\n      0xffffffffffffffffffffffffffffffffffffffff\n      and\n        /* \"DualERC1155ERC20Converter.sol\":5231:5239  previous */\n      dup2\n        /* \"DualERC1155ERC20Converter.sol\":5213:5253  ERC20TokenUpdated(previous, _erc20Token) */\n      0xffffffffffffffffffffffffffffffffffffffff\n      and\n      0x3225966cbaae2904ba12a4821319a2efec8fe5313e9e3376037823b52ab32cf1\n      mload(0x40)\n      mload(0x40)\n      dup1\n      swap2\n      sub\n      swap1\n      log3\n        /* \"DualERC1155ERC20Converter.sol\":4986:5260  {... */\n      pop\n        /* \"DualERC1155ERC20Converter.sol\":4923:5260  function setERC20Token(address _erc20Token) external onlyOwner {... */\n      pop\n      jump\t// out\n        /* \"DualERC1155ERC20Converter.sol\":11630:12921  function convertToERC1155(address erc1155Contract, uint256 tokenId, uint256 amount) external {... */\n    tag_87:\n        /* \"DualERC1155ERC20Converter.sol\":11741:11762  allowedERC1155Reverse */\n      0x03\n        /* \"DualERC1155ERC20Converter.sol\":11741:11779  allowedERC1155Reverse[erc1155Contract] */\n      0x00\n        /* \"DualERC1155ERC20Converter.sol\":11763:11778  erc1155Contract */\n      dup5\n        /* \"DualERC1155ERC20Converter.sol\":11741:11779  allowedERC1155Reverse[erc1155Contract] */\n      0xffffffffffffffffffffffffffffffffffffffff\n      and\n      0xffffffffffffffffffffffffffffffffffffffff\n      and\n      dup2\n      mstore\n      0x20\n      add\n      swap1\n      dup2\n      mstore\n      0x20\n      add\n      0x00\n      keccak256\n        /* \"DualERC1155ERC20Converter.sol\":11741:11788  allowedERC1155Reverse[erc1155Contract][tokenId] */\n      0x00\n        /* \"DualERC1155ERC20Converter.sol\":11780:11787  tokenId */\n      dup4\n        /* \"DualERC1155ERC20Converter.sol\":11741:11788  allowedERC1155Reverse[erc1155Contract][tokenId] */\n      dup2\n      mstore\n      0x20\n      add\n      swap1\n      dup2\n      mstore\n      0x20\n      add\n      0x00\n      keccak256\n      0x00\n      swap1\n      sload\n      swap1\n      0x0100\n      exp\n      swap1\n      div\n      0xff\n      and\n        /* \"DualERC1155ERC20Converter.sol\":11733:11838  require(allowedERC1155Reverse[erc1155Contract][tokenId], \"Conversion not allowed for this ERC1155 token\") */\n      tag_176\n      jumpi\n      mload(0x40)\n      0x08c379a000000000000000000000000000000000000000000000000000000000\n      dup2\n      mstore\n      0x04\n      add\n      tag_177\n      swap1\n      tag_178\n      jump\t// in\n    tag_177:\n      mload(0x40)\n      dup1\n      swap2\n      sub\n      swap1\n      revert\n    tag_176:\n        /* \"DualERC1155ERC20Converter.sol\":11865:11866  0 */\n      0x00\n        /* \"DualERC1155ERC20Converter.sol\":11856:11862  amount */\n      dup2\n        /* \"DualERC1155ERC20Converter.sol\":11856:11866  amount > 0 */\n      gt\n        /* \"DualERC1155ERC20Converter.sol\":11848:11903  require(amount > 0, \"Amount must be greater than zero\") */\n      tag_179\n      jumpi\n      mload(0x40)\n      0x08c379a000000000000000000000000000000000000000000000000000000000\n      dup2\n      mstore\n      0x04\n      add\n      tag_180\n      swap1\n      tag_181\n      jump\t// in\n    tag_180:\n      mload(0x40)\n      dup1\n      swap2\n      sub\n      swap1\n      revert\n    tag_179:\n        /* \"DualERC1155ERC20Converter.sol\":11952:11953  0 */\n      0x00\n        /* \"DualERC1155ERC20Converter.sol\":11921:11954  address(erc20Token) != address(0) */\n      0xffffffffffffffffffffffffffffffffffffffff\n      and\n        /* \"DualERC1155ERC20Converter.sol\":11929:11939  erc20Token */\n      0x01\n      0x00\n      swap1\n      sload\n      swap1\n      0x0100\n      exp\n      swap1\n      div\n      0xffffffffffffffffffffffffffffffffffffffff\n      and\n        /* \"DualERC1155ERC20Converter.sol\":11921:11954  address(erc20Token) != address(0) */\n      0xffffffffffffffffffffffffffffffffffffffff\n      and\n      sub\n        /* \"DualERC1155ERC20Converter.sol\":11913:11978  require(address(erc20Token) != address(0), \"ERC20 token not set\") */\n      tag_182\n      jumpi\n      mload(0x40)\n      0x08c379a000000000000000000000000000000000000000000000000000000000\n      dup2\n      mstore\n      0x04\n      add\n      tag_183\n      swap1\n      tag_142\n      jump\t// in\n    tag_183:\n      mload(0x40)\n      dup1\n      swap2\n      sub\n      swap1\n      revert\n    tag_182:\n        /* \"DualERC1155ERC20Converter.sol\":12054:12066  bool success */\n      0x00\n        /* \"DualERC1155ERC20Converter.sol\":12069:12079  erc20Token */\n      0x01\n      0x00\n      swap1\n      sload\n      swap1\n      0x0100\n      exp\n      swap1\n      div\n      0xffffffffffffffffffffffffffffffffffffffff\n      and\n        /* \"DualERC1155ERC20Converter.sol\":12069:12092  erc20Token.transferFrom */\n      0xffffffffffffffffffffffffffffffffffffffff\n      and\n      0x23b872dd\n        /* \"DualERC1155ERC20Converter.sol\":12093:12103  msg.sender */\n      caller\n        /* \"DualERC1155ERC20Converter.sol\":12113:12117  this */\n      address\n        /* \"DualERC1155ERC20Converter.sol\":12120:12126  amount */\n      dup6\n        /* \"DualERC1155ERC20Converter.sol\":12069:12127  erc20Token.transferFrom(msg.sender, address(this), amount) */\n      mload(0x40)\n      dup5\n      0xffffffff\n      and\n      0xe0\n      shl\n      dup2\n      mstore\n      0x04\n      add\n      tag_184\n      swap4\n      swap3\n      swap2\n      swap1\n      tag_185\n      jump\t// in\n    tag_184:\n      0x20\n      mload(0x40)\n      dup1\n      dup4\n      sub\n      dup2\n      0x00\n      dup8\n      gas\n      call\n      iszero\n      dup1\n      iszero\n      tag_187\n      jumpi\n      returndatasize\n      0x00\n      dup1\n      returndatacopy\n      revert(0x00, returndatasize)\n    tag_187:\n      pop\n      pop\n      pop\n      pop\n      mload(0x40)\n      returndatasize\n      not(0x1f)\n      0x1f\n      dup3\n      add\n      and\n      dup3\n      add\n      dup1\n      0x40\n      mstore\n      pop\n      dup2\n      add\n      swap1\n      tag_188\n      swap2\n      swap1\n      tag_189\n      jump\t// in\n    tag_188:\n        /* \"DualERC1155ERC20Converter.sol\":12054:12127  bool success = erc20Token.transferFrom(msg.sender, address(this), amount) */\n      swap1\n      pop\n        /* \"DualERC1155ERC20Converter.sol\":12145:12152  success */\n      dup1\n        /* \"DualERC1155ERC20Converter.sol\":12137:12178  require(success, \"ERC20 transfer failed\") */\n      tag_190\n      jumpi\n      mload(0x40)\n      0x08c379a000000000000000000000000000000000000000000000000000000000\n      dup2\n      mstore\n      0x04\n      add\n      tag_191\n      swap1\n      tag_192\n      jump\t// in\n    tag_191:\n      mload(0x40)\n      dup1\n      swap2\n      sub\n      swap1\n      revert\n    tag_190:\n        /* \"DualERC1155ERC20Converter.sol\":12223:12233  erc20Token */\n      0x01\n      0x00\n      swap1\n      sload\n      swap1\n      0x0100\n      exp\n      swap1\n      div\n      0xffffffffffffffffffffffffffffffffffffffff\n      and\n        /* \"DualERC1155ERC20Converter.sol\":12223:12238  erc20Token.burn */\n      0xffffffffffffffffffffffffffffffffffffffff\n      and\n      0x42966c68\n        /* \"DualERC1155ERC20Converter.sol\":12239:12245  amount */\n      dup4\n        /* \"DualERC1155ERC20Converter.sol\":12223:12246  erc20Token.burn(amount) */\n      mload(0x40)\n      dup3\n      0xffffffff\n      and\n      0xe0\n      shl\n      dup2\n      mstore\n      0x04\n      add\n      tag_193\n      swap2\n      swap1\n      tag_194\n      jump\t// in\n    tag_193:\n      0x00\n      mload(0x40)\n      dup1\n      dup4\n      sub\n      dup2\n      0x00\n      dup8\n      dup1\n      extcodesize\n      iszero\n      dup1\n      iszero\n      tag_195\n      jumpi\n      0x00\n      dup1\n      revert\n    tag_195:\n      pop\n      gas\n      call\n      iszero\n      dup1\n      iszero\n      tag_197\n      jumpi\n      returndatasize\n      0x00\n      dup1\n      returndatacopy\n      revert(0x00, returndatasize)\n    tag_197:\n      pop\n      pop\n      pop\n      pop\n        /* \"DualERC1155ERC20Converter.sol\":12320:12335  erc1155Contract */\n      dup4\n        /* \"DualERC1155ERC20Converter.sol\":12305:12341  IERC1155Minter(erc1155Contract).mint */\n      0xffffffffffffffffffffffffffffffffffffffff\n      and\n      0x731133e9\n        /* \"DualERC1155ERC20Converter.sol\":12342:12352  msg.sender */\n      caller\n        /* \"DualERC1155ERC20Converter.sol\":12354:12361  tokenId */\n      dup6\n        /* \"DualERC1155ERC20Converter.sol\":12363:12369  amount */\n      dup6\n        /* \"DualERC1155ERC20Converter.sol\":12305:12374  IERC1155Minter(erc1155Contract).mint(msg.sender, tokenId, amount, \"\") */\n      mload(0x40)\n      dup5\n      0xffffffff\n      and\n      0xe0\n      shl\n      dup2\n      mstore\n      0x04\n      add\n      tag_198\n      swap4\n      swap3\n      swap2\n      swap1\n      tag_199\n      jump\t// in\n    tag_198:\n      0x00\n      mload(0x40)\n      dup1\n      dup4\n      sub\n      dup2\n      0x00\n      dup8\n      dup1\n      extcodesize\n      iszero\n      dup1\n      iszero\n      tag_200\n      jumpi\n      0x00\n      dup1\n      revert\n    tag_200:\n      pop\n      gas\n      call\n      iszero\n      dup1\n      iszero\n      tag_202\n      jumpi\n      returndatasize\n      0x00\n      dup1\n      returndatacopy\n      revert(0x00, returndatasize)\n    tag_202:\n      pop\n      pop\n      pop\n      pop\n        /* \"DualERC1155ERC20Converter.sol\":12428:12472  ConversionRecordERC20ToERC1155 memory record */\n      0x00\n        /* \"DualERC1155ERC20Converter.sol\":12475:12691  ConversionRecordERC20ToERC1155({... */\n      mload(0x40)\n      dup1\n      0xa0\n      add\n      0x40\n      mstore\n      dup1\n        /* \"DualERC1155ERC20Converter.sol\":12526:12536  msg.sender */\n      caller\n        /* \"DualERC1155ERC20Converter.sol\":12475:12691  ConversionRecordERC20ToERC1155({... */\n      0xffffffffffffffffffffffffffffffffffffffff\n      and\n      dup2\n      mstore\n      0x20\n      add\n        /* \"DualERC1155ERC20Converter.sol\":12567:12582  erc1155Contract */\n      dup7\n        /* \"DualERC1155ERC20Converter.sol\":12475:12691  ConversionRecordERC20ToERC1155({... */\n      0xffffffffffffffffffffffffffffffffffffffff\n      and\n      dup2\n      mstore\n      0x20\n      add\n        /* \"DualERC1155ERC20Converter.sol\":12605:12612  tokenId */\n      dup6\n        /* \"DualERC1155ERC20Converter.sol\":12475:12691  ConversionRecordERC20ToERC1155({... */\n      dup2\n      mstore\n      0x20\n      add\n        /* \"DualERC1155ERC20Converter.sol\":12634:12640  amount */\n      dup5\n        /* \"DualERC1155ERC20Converter.sol\":12475:12691  ConversionRecordERC20ToERC1155({... */\n      dup2\n      mstore\n      0x20\n      add\n        /* \"DualERC1155ERC20Converter.sol\":12665:12680  block.timestamp */\n      timestamp\n        /* \"DualERC1155ERC20Converter.sol\":12475:12691  ConversionRecordERC20ToERC1155({... */\n      dup2\n      mstore\n      pop\n        /* \"DualERC1155ERC20Converter.sol\":12428:12691  ConversionRecordERC20ToERC1155 memory record = ConversionRecordERC20ToERC1155({... */\n      swap1\n      pop\n        /* \"DualERC1155ERC20Converter.sol\":12701:12722  erc20ToErc1155History */\n      0x06\n        /* \"DualERC1155ERC20Converter.sol\":12728:12734  record */\n      dup2\n        /* \"DualERC1155ERC20Converter.sol\":12701:12735  erc20ToErc1155History.push(record) */\n      swap1\n      dup1\n      0x01\n      dup2\n      sload\n      add\n      dup1\n      dup3\n      sstore\n      dup1\n      swap2\n      pop\n      pop\n      0x01\n      swap1\n      sub\n      swap1\n      0x00\n      mstore\n      keccak256(0x00, 0x20)\n      swap1\n      0x05\n      mul\n      add\n      0x00\n      swap1\n      swap2\n      swap1\n      swap2\n      swap1\n      swap2\n      pop\n      0x00\n      dup3\n      add\n      mload\n      dup2\n      0x00\n      add\n      exp(0x0100, 0x00)\n      dup2\n      sload\n      dup2\n      0xffffffffffffffffffffffffffffffffffffffff\n      mul\n      not\n      and\n      swap1\n      dup4\n      0xffffffffffffffffffffffffffffffffffffffff\n      and\n      mul\n      or\n      swap1\n      sstore\n      pop\n      0x20\n      dup3\n      add\n      mload\n      dup2\n      0x01\n      add\n      exp(0x0100, 0x00)\n      dup2\n      sload\n      dup2\n      0xffffffffffffffffffffffffffffffffffffffff\n      mul\n      not\n      and\n      swap1\n      dup4\n      0xffffffffffffffffffffffffffffffffffffffff\n      and\n      mul\n      or\n      swap1\n      sstore\n      pop\n      0x40\n      dup3\n      add\n      mload\n      dup2\n      0x02\n      add\n      sstore\n      0x60\n      dup3\n      add\n      mload\n      dup2\n      0x03\n      add\n      sstore\n      0x80\n      dup3\n      add\n      mload\n      dup2\n      0x04\n      add\n      sstore\n      pop\n      pop\n        /* \"DualERC1155ERC20Converter.sol\":12745:12782  conversionRecordsERC20ToERC1155ByUser */\n      0x07\n        /* \"DualERC1155ERC20Converter.sol\":12745:12794  conversionRecordsERC20ToERC1155ByUser[msg.sender] */\n      0x00\n        /* \"DualERC1155ERC20Converter.sol\":12783:12793  msg.sender */\n      caller\n        /* \"DualERC1155ERC20Converter.sol\":12745:12794  conversionRecordsERC20ToERC1155ByUser[msg.sender] */\n      0xffffffffffffffffffffffffffffffffffffffff\n      and\n      0xffffffffffffffffffffffffffffffffffffffff\n      and\n      dup2\n      mstore\n      0x20\n      add\n      swap1\n      dup2\n      mstore\n      0x20\n      add\n      0x00\n      keccak256\n        /* \"DualERC1155ERC20Converter.sol\":12800:12806  record */\n      dup2\n        /* \"DualERC1155ERC20Converter.sol\":12745:12807  conversionRecordsERC20ToERC1155ByUser[msg.sender].push(record) */\n      swap1\n      dup1\n      0x01\n      dup2\n      sload\n      add\n      dup1\n      dup3\n      sstore\n      dup1\n      swap2\n      pop\n      pop\n      0x01\n      swap1\n      sub\n      swap1\n      0x00\n      mstore\n      keccak256(0x00, 0x20)\n      swap1\n      0x05\n      mul\n      add\n      0x00\n      swap1\n      swap2\n      swap1\n      swap2\n      swap1\n      swap2\n      pop\n      0x00\n      dup3\n      add\n      mload\n      dup2\n      0x00\n      add\n      exp(0x0100, 0x00)\n      dup2\n      sload\n      dup2\n      0xffffffffffffffffffffffffffffffffffffffff\n      mul\n      not\n      and\n      swap1\n      dup4\n      0xffffffffffffffffffffffffffffffffffffffff\n      and\n      mul\n      or\n      swap1\n      sstore\n      pop\n      0x20\n      dup3\n      add\n      mload\n      dup2\n      0x01\n      add\n      exp(0x0100, 0x00)\n      dup2\n      sload\n      dup2\n      0xffffffffffffffffffffffffffffffffffffffff\n      mul\n      not\n      and\n      swap1\n      dup4\n      0xffffffffffffffffffffffffffffffffffffffff\n      and\n      mul\n      or\n      swap1\n      sstore\n      pop\n      0x40\n      dup3\n      add\n      mload\n      dup2\n      0x02\n      add\n      sstore\n      0x60\n      dup3\n      add\n      mload\n      dup2\n      0x03\n      add\n      sstore\n      0x80\n      dup3\n      add\n      mload\n      dup2\n      0x04\n      add\n      sstore\n      pop\n      pop\n        /* \"DualERC1155ERC20Converter.sol\":12881:12888  tokenId */\n      dup4\n        /* \"DualERC1155ERC20Converter.sol\":12864:12879  erc1155Contract */\n      dup6\n        /* \"DualERC1155ERC20Converter.sol\":12827:12914  ERC20ToERC1155Conversion(msg.sender, erc1155Contract, tokenId, amount, block.timestamp) */\n      0xffffffffffffffffffffffffffffffffffffffff\n      and\n        /* \"DualERC1155ERC20Converter.sol\":12852:12862  msg.sender */\n      caller\n        /* \"DualERC1155ERC20Converter.sol\":12827:12914  ERC20ToERC1155Conversion(msg.sender, erc1155Contract, tokenId, amount, block.timestamp) */\n      0xffffffffffffffffffffffffffffffffffffffff\n      and\n      0x1ca57d76d7b91ecc6a90677f1b8eb7d995f934eda6364134e6021dbba757241e\n        /* \"DualERC1155ERC20Converter.sol\":12890:12896  amount */\n      dup7\n        /* \"DualERC1155ERC20Converter.sol\":12898:12913  block.timestamp */\n      timestamp\n        /* \"DualERC1155ERC20Converter.sol\":12827:12914  ERC20ToERC1155Conversion(msg.sender, erc1155Contract, tokenId, amount, block.timestamp) */\n      mload(0x40)\n      tag_205\n      swap3\n      swap2\n      swap1\n      tag_164\n      jump\t// in\n    tag_205:\n      mload(0x40)\n      dup1\n      swap2\n      sub\n      swap1\n      log4\n        /* \"DualERC1155ERC20Converter.sol\":11723:12921  {... */\n      pop\n      pop\n        /* \"DualERC1155ERC20Converter.sol\":11630:12921  function convertToERC1155(address erc1155Contract, uint256 tokenId, uint256 amount) external {... */\n      pop\n      pop\n      pop\n      jump\t// out\n        /* \"DualERC1155ERC20Converter.sol\":7027:7266  function removeAllowedERC1155Reverse(address erc1155Contract, uint256 tokenId) external onlyOwner {... */\n    tag_90:\n        /* \"@openzeppelin/contracts/access/Ownable.sol\":1531:1544  _checkOwner() */\n      tag_207\n        /* \"@openzeppelin/contracts/access/Ownable.sol\":1531:1542  _checkOwner */\n      tag_113\n        /* \"@openzeppelin/contracts/access/Ownable.sol\":1531:1544  _checkOwner() */\n      jump\t// in\n    tag_207:\n        /* \"DualERC1155ERC20Converter.sol\":7185:7190  false */\n      0x00\n        /* \"DualERC1155ERC20Converter.sol\":7135:7156  allowedERC1155Reverse */\n      0x03\n        /* \"DualERC1155ERC20Converter.sol\":7135:7173  allowedERC1155Reverse[erc1155Contract] */\n      0x00\n        /* \"DualERC1155ERC20Converter.sol\":7157:7172  erc1155Contract */\n      dup5\n        /* \"DualERC1155ERC20Converter.sol\":7135:7173  allowedERC1155Reverse[erc1155Contract] */\n      0xffffffffffffffffffffffffffffffffffffffff\n      and\n      0xffffffffffffffffffffffffffffffffffffffff\n      and\n      dup2\n      mstore\n      0x20\n      add\n      swap1\n      dup2\n      mstore\n      0x20\n      add\n      0x00\n      keccak256\n        /* \"DualERC1155ERC20Converter.sol\":7135:7182  allowedERC1155Reverse[erc1155Contract][tokenId] */\n      0x00\n        /* \"DualERC1155ERC20Converter.sol\":7174:7181  tokenId */\n      dup4\n        /* \"DualERC1155ERC20Converter.sol\":7135:7182  allowedERC1155Reverse[erc1155Contract][tokenId] */\n      dup2\n      mstore\n      0x20\n      add\n      swap1\n      dup2\n      mstore\n      0x20\n      add\n      0x00\n      keccak256\n      0x00\n        /* \"DualERC1155ERC20Converter.sol\":7135:7190  allowedERC1155Reverse[erc1155Contract][tokenId] = false */\n      0x0100\n      exp\n      dup2\n      sload\n      dup2\n      0xff\n      mul\n      not\n      and\n      swap1\n      dup4\n      iszero\n      iszero\n      mul\n      or\n      swap1\n      sstore\n      pop\n        /* \"DualERC1155ERC20Converter.sol\":7251:7258  tokenId */\n      dup1\n        /* \"DualERC1155ERC20Converter.sol\":7234:7249  erc1155Contract */\n      dup3\n        /* \"DualERC1155ERC20Converter.sol\":7205:7259  AllowedERC1155ReverseRemoved(erc1155Contract, tokenId) */\n      0xffffffffffffffffffffffffffffffffffffffff\n      and\n      0xdf3a4de361f566c7b82e2670c9f25deb777b8a9c5c03e949b07f8932f7cbed3e\n      mload(0x40)\n      mload(0x40)\n      dup1\n      swap2\n      sub\n      swap1\n      log3\n        /* \"DualERC1155ERC20Converter.sol\":7027:7266  function removeAllowedERC1155Reverse(address erc1155Contract, uint256 tokenId) external onlyOwner {... */\n      pop\n      pop\n      jump\t// out\n        /* \"DualERC1155ERC20Converter.sol\":7815:8361  function onERC1155Received(... */\n    tag_94:\n        /* \"DualERC1155ERC20Converter.sol\":7991:7997  bytes4 */\n      0x00\n        /* \"DualERC1155ERC20Converter.sol\":8029:8033  from */\n      dup5\n        /* \"DualERC1155ERC20Converter.sol\":8017:8033  operator == from */\n      0xffffffffffffffffffffffffffffffffffffffff\n      and\n        /* \"DualERC1155ERC20Converter.sol\":8017:8025  operator */\n      dup7\n        /* \"DualERC1155ERC20Converter.sol\":8017:8033  operator == from */\n      0xffffffffffffffffffffffffffffffffffffffff\n      and\n      eq\n        /* \"DualERC1155ERC20Converter.sol\":8009:8081  require(operator == from, \"Only the token owner can trigger conversion\") */\n      tag_210\n      jumpi\n      mload(0x40)\n      0x08c379a000000000000000000000000000000000000000000000000000000000\n      dup2\n      mstore\n      0x04\n      add\n      tag_211\n      swap1\n      tag_136\n      jump\t// in\n    tag_211:\n      mload(0x40)\n      dup1\n      swap2\n      sub\n      swap1\n      revert\n    tag_210:\n        /* \"DualERC1155ERC20Converter.sol\":8099:8120  allowedERC1155Forward */\n      0x02\n        /* \"DualERC1155ERC20Converter.sol\":8099:8132  allowedERC1155Forward[msg.sender] */\n      0x00\n        /* \"DualERC1155ERC20Converter.sol\":8121:8131  msg.sender */\n      caller\n        /* \"DualERC1155ERC20Converter.sol\":8099:8132  allowedERC1155Forward[msg.sender] */\n      0xffffffffffffffffffffffffffffffffffffffff\n      and\n      0xffffffffffffffffffffffffffffffffffffffff\n      and\n      dup2\n      mstore\n      0x20\n      add\n      swap1\n      dup2\n      mstore\n      0x20\n      add\n      0x00\n      keccak256\n        /* \"DualERC1155ERC20Converter.sol\":8099:8136  allowedERC1155Forward[msg.sender][id] */\n      0x00\n        /* \"DualERC1155ERC20Converter.sol\":8133:8135  id */\n      dup6\n        /* \"DualERC1155ERC20Converter.sol\":8099:8136  allowedERC1155Forward[msg.sender][id] */\n      dup2\n      mstore\n      0x20\n      add\n      swap1\n      dup2\n      mstore\n      0x20\n      add\n      0x00\n      keccak256\n      0x00\n      swap1\n      sload\n      swap1\n      0x0100\n      exp\n      swap1\n      div\n      0xff\n      and\n        /* \"DualERC1155ERC20Converter.sol\":8091:8181  require(allowedERC1155Forward[msg.sender][id], \"ERC1155 token not allowed for conversion\") */\n      tag_212\n      jumpi\n      mload(0x40)\n      0x08c379a000000000000000000000000000000000000000000000000000000000\n      dup2\n      mstore\n      0x04\n      add\n      tag_213\n      swap1\n      tag_214\n      jump\t// in\n    tag_213:\n      mload(0x40)\n      dup1\n      swap2\n      sub\n      swap1\n      revert\n    tag_212:\n        /* \"DualERC1155ERC20Converter.sol\":8230:8231  0 */\n      0x00\n        /* \"DualERC1155ERC20Converter.sol\":8199:8232  address(erc20Token) != address(0) */\n      0xffffffffffffffffffffffffffffffffffffffff\n      and\n        /* \"DualERC1155ERC20Converter.sol\":8207:8217  erc20Token */\n      0x01\n      0x00\n      swap1\n      sload\n      swap1\n      0x0100\n      exp\n      swap1\n      div\n      0xffffffffffffffffffffffffffffffffffffffff\n      and\n        /* \"DualERC1155ERC20Converter.sol\":8199:8232  address(erc20Token) != address(0) */\n      0xffffffffffffffffffffffffffffffffffffffff\n      and\n      sub\n        /* \"DualERC1155ERC20Converter.sol\":8191:8256  require(address(erc20Token) != address(0), \"ERC20 token not set\") */\n      tag_215\n      jumpi\n      mload(0x40)\n      0x08c379a000000000000000000000000000000000000000000000000000000000\n      dup2\n      mstore\n      0x04\n      add\n      tag_216\n      swap1\n      tag_142\n      jump\t// in\n    tag_216:\n      mload(0x40)\n      dup1\n      swap2\n      sub\n      swap1\n      revert\n    tag_215:\n        /* \"DualERC1155ERC20Converter.sol\":8267:8306  _convertERC1155ToERC20(from, id, value) */\n      tag_217\n        /* \"DualERC1155ERC20Converter.sol\":8290:8294  from */\n      dup6\n        /* \"DualERC1155ERC20Converter.sol\":8296:8298  id */\n      dup6\n        /* \"DualERC1155ERC20Converter.sol\":8300:8305  value */\n      dup6\n        /* \"DualERC1155ERC20Converter.sol\":8267:8289  _convertERC1155ToERC20 */\n      tag_218\n        /* \"DualERC1155ERC20Converter.sol\":8267:8306  _convertERC1155ToERC20(from, id, value) */\n      jump\t// in\n    tag_217:\n        /* \"DualERC1155ERC20Converter.sol\":8323:8354  this.onERC1155Received.selector */\n      shl(0xe0, 0xf23a6e61)\n        /* \"DualERC1155ERC20Converter.sol\":8316:8354  return this.onERC1155Received.selector */\n      swap1\n      pop\n        /* \"DualERC1155ERC20Converter.sol\":7815:8361  function onERC1155Received(... */\n      swap6\n      swap5\n      pop\n      pop\n      pop\n      pop\n      pop\n      jump\t// out\n        /* \"@openzeppelin/contracts/access/Ownable.sol\":2543:2758  function transferOwnership(address newOwner) public virtual onlyOwner {... */\n    tag_98:\n        /* \"@openzeppelin/contracts/access/Ownable.sol\":1531:1544  _checkOwner() */\n      tag_220\n        /* \"@openzeppelin/contracts/access/Ownable.sol\":1531:1542  _checkOwner */\n      tag_113\n        /* \"@openzeppelin/contracts/access/Ownable.sol\":1531:1544  _checkOwner() */\n      jump\t// in\n    tag_220:\n        /* \"@openzeppelin/contracts/access/Ownable.sol\":2647:2648  0 */\n      0x00\n        /* \"@openzeppelin/contracts/access/Ownable.sol\":2627:2649  newOwner == address(0) */\n      0xffffffffffffffffffffffffffffffffffffffff\n      and\n        /* \"@openzeppelin/contracts/access/Ownable.sol\":2627:2635  newOwner */\n      dup2\n        /* \"@openzeppelin/contracts/access/Ownable.sol\":2627:2649  newOwner == address(0) */\n      0xffffffffffffffffffffffffffffffffffffffff\n      and\n      sub\n        /* \"@openzeppelin/contracts/access/Ownable.sol\":2623:2714  if (newOwner == address(0)) {... */\n      tag_222\n      jumpi\n        /* \"@openzeppelin/contracts/access/Ownable.sol\":2700:2701  0 */\n      0x00\n        /* \"@openzeppelin/contracts/access/Ownable.sol\":2672:2703  OwnableInvalidOwner(address(0)) */\n      mload(0x40)\n      0x1e4fbdf700000000000000000000000000000000000000000000000000000000\n      dup2\n      mstore\n      0x04\n      add\n      tag_223\n      swap2\n      swap1\n      tag_63\n      jump\t// in\n    tag_223:\n      mload(0x40)\n      dup1\n      swap2\n      sub\n      swap1\n      revert\n        /* \"@openzeppelin/contracts/access/Ownable.sol\":2623:2714  if (newOwner == address(0)) {... */\n    tag_222:\n        /* \"@openzeppelin/contracts/access/Ownable.sol\":2723:2751  _transferOwnership(newOwner) */\n      tag_224\n        /* \"@openzeppelin/contracts/access/Ownable.sol\":2742:2750  newOwner */\n      dup2\n        /* \"@openzeppelin/contracts/access/Ownable.sol\":2723:2741  _transferOwnership */\n      tag_123\n        /* \"@openzeppelin/contracts/access/Ownable.sol\":2723:2751  _transferOwnership(newOwner) */\n      jump\t// in\n    tag_224:\n        /* \"@openzeppelin/contracts/access/Ownable.sol\":2543:2758  function transferOwnership(address newOwner) public virtual onlyOwner {... */\n      pop\n      jump\t// out\n        /* \"DualERC1155ERC20Converter.sol\":2716:2787  mapping(address => ConversionRecord[]) public conversionRecordsBySender */\n    tag_101:\n      mstore(0x20, 0x04)\n      dup2\n      0x00\n      mstore\n      keccak256(0x00, 0x40)\n      dup2\n      dup2\n      sload\n      dup2\n      lt\n      tag_225\n      jumpi\n      0x00\n      dup1\n      revert\n    tag_225:\n      swap1\n      0x00\n      mstore\n      keccak256(0x00, 0x20)\n      swap1\n      0x04\n      mul\n      add\n      0x00\n      swap2\n      pop\n      swap2\n      pop\n      pop\n      dup1\n      0x00\n      add\n      sload\n      swap1\n      dup1\n      0x01\n      add\n      sload\n      swap1\n      dup1\n      0x02\n      add\n      sload\n      swap1\n      dup1\n      0x03\n      add\n      sload\n      swap1\n      pop\n      dup5\n      jump\t// out\n        /* \"@openzeppelin/contracts/utils/introspection/ERC165.sol\":763:909  function supportsInterface(bytes4 interfaceId) public view virtual returns (bool) {... */\n    tag_106:\n        /* \"@openzeppelin/contracts/utils/introspection/ERC165.sol\":839:843  bool */\n      0x00\n        /* \"@openzeppelin/contracts/utils/introspection/ERC165.sol\":877:902  type(IERC165).interfaceId */\n      0x01ffc9a700000000000000000000000000000000000000000000000000000000\n        /* \"@openzeppelin/contracts/utils/introspection/ERC165.sol\":862:902  interfaceId == type(IERC165).interfaceId */\n      not(0xffffffffffffffffffffffffffffffffffffffffffffffffffffffff)\n      and\n        /* \"@openzeppelin/contracts/utils/introspection/ERC165.sol\":862:873  interfaceId */\n      dup3\n        /* \"@openzeppelin/contracts/utils/introspection/ERC165.sol\":862:902  interfaceId == type(IERC165).interfaceId */\n      not(0xffffffffffffffffffffffffffffffffffffffffffffffffffffffff)\n      and\n      eq\n        /* \"@openzeppelin/contracts/utils/introspection/ERC165.sol\":855:902  return interfaceId == type(IERC165).interfaceId */\n      swap1\n      pop\n        /* \"@openzeppelin/contracts/utils/introspection/ERC165.sol\":763:909  function supportsInterface(bytes4 interfaceId) public view virtual returns (bool) {... */\n      swap2\n      swap1\n      pop\n      jump\t// out\n        /* \"@openzeppelin/contracts/access/Ownable.sol\":1796:1958  function _checkOwner() internal view virtual {... */\n    tag_113:\n        /* \"@openzeppelin/contracts/access/Ownable.sol\":1866:1878  _msgSender() */\n      tag_229\n        /* \"@openzeppelin/contracts/access/Ownable.sol\":1866:1876  _msgSender */\n      tag_230\n        /* \"@openzeppelin/contracts/access/Ownable.sol\":1866:1878  _msgSender() */\n      jump\t// in\n    tag_229:\n        /* \"@openzeppelin/contracts/access/Ownable.sol\":1855:1878  owner() != _msgSender() */\n      0xffffffffffffffffffffffffffffffffffffffff\n      and\n        /* \"@openzeppelin/contracts/access/Ownable.sol\":1855:1862  owner() */\n      tag_231\n        /* \"@openzeppelin/contracts/access/Ownable.sol\":1855:1860  owner */\n      tag_61\n        /* \"@openzeppelin/contracts/access/Ownable.sol\":1855:1862  owner() */\n      jump\t// in\n    tag_231:\n        /* \"@openzeppelin/contracts/access/Ownable.sol\":1855:1878  owner() != _msgSender() */\n      0xffffffffffffffffffffffffffffffffffffffff\n      and\n      eq\n        /* \"@openzeppelin/contracts/access/Ownable.sol\":1851:1952  if (owner() != _msgSender()) {... */\n      tag_232\n      jumpi\n        /* \"@openzeppelin/contracts/access/Ownable.sol\":1928:1940  _msgSender() */\n      tag_233\n        /* \"@openzeppelin/contracts/access/Ownable.sol\":1928:1938  _msgSender */\n      tag_230\n        /* \"@openzeppelin/contracts/access/Ownable.sol\":1928:1940  _msgSender() */\n      jump\t// in\n    tag_233:\n        /* \"@openzeppelin/contracts/access/Ownable.sol\":1901:1941  OwnableUnauthorizedAccount(_msgSender()) */\n      mload(0x40)\n      0x118cdaa700000000000000000000000000000000000000000000000000000000\n      dup2\n      mstore\n      0x04\n      add\n      tag_234\n      swap2\n      swap1\n      tag_63\n      jump\t// in\n    tag_234:\n      mload(0x40)\n      dup1\n      swap2\n      sub\n      swap1\n      revert\n        /* \"@openzeppelin/contracts/access/Ownable.sol\":1851:1952  if (owner() != _msgSender()) {... */\n    tag_232:\n        /* \"@openzeppelin/contracts/access/Ownable.sol\":1796:1958  function _checkOwner() internal view virtual {... */\n      jump\t// out\n        /* \"@openzeppelin/contracts/access/Ownable.sol\":2912:3099  function _transferOwnership(address newOwner) internal virtual {... */\n    tag_123:\n        /* \"@openzeppelin/contracts/access/Ownable.sol\":2985:3001  address oldOwner */\n      0x00\n        /* \"@openzeppelin/contracts/access/Ownable.sol\":3004:3010  _owner */\n      dup1\n      0x00\n      swap1\n      sload\n      swap1\n      0x0100\n      exp\n      swap1\n      div\n      0xffffffffffffffffffffffffffffffffffffffff\n      and\n        /* \"@openzeppelin/contracts/access/Ownable.sol\":2985:3010  address oldOwner = _owner */\n      swap1\n      pop\n        /* \"@openzeppelin/contracts/access/Ownable.sol\":3029:3037  newOwner */\n      dup2\n        /* \"@openzeppelin/contracts/access/Ownable.sol\":3020:3026  _owner */\n      0x00\n      dup1\n        /* \"@openzeppelin/contracts/access/Ownable.sol\":3020:3037  _owner = newOwner */\n      0x0100\n      exp\n      dup2\n      sload\n      dup2\n      0xffffffffffffffffffffffffffffffffffffffff\n      mul\n      not\n      and\n      swap1\n      dup4\n      0xffffffffffffffffffffffffffffffffffffffff\n      and\n      mul\n      or\n      swap1\n      sstore\n      pop\n        /* \"@openzeppelin/contracts/access/Ownable.sol\":3083:3091  newOwner */\n      dup2\n        /* \"@openzeppelin/contracts/access/Ownable.sol\":3052:3092  OwnershipTransferred(oldOwner, newOwner) */\n      0xffffffffffffffffffffffffffffffffffffffff\n      and\n        /* \"@openzeppelin/contracts/access/Ownable.sol\":3073:3081  oldOwner */\n      dup2\n        /* \"@openzeppelin/contracts/access/Ownable.sol\":3052:3092  OwnershipTransferred(oldOwner, newOwner) */\n      0xffffffffffffffffffffffffffffffffffffffff\n      and\n      0x8be0079c531659141344cd1fd0a4f28419497f9722a3daafe3b4186f6b6457e0\n      mload(0x40)\n      mload(0x40)\n      dup1\n      swap2\n      sub\n      swap1\n      log3\n        /* \"@openzeppelin/contracts/access/Ownable.sol\":2975:3099  {... */\n      pop\n        /* \"@openzeppelin/contracts/access/Ownable.sol\":2912:3099  function _transferOwnership(address newOwner) internal virtual {... */\n      pop\n      jump\t// out\n        /* \"DualERC1155ERC20Converter.sol\":8926:9815  function _convertERC1155ToERC20(... */\n    tag_218:\n        /* \"DualERC1155ERC20Converter.sol\":9129:9148  uint256 erc20Amount */\n      0x00\n        /* \"DualERC1155ERC20Converter.sol\":9151:9164  erc1155Amount */\n      dup2\n        /* \"DualERC1155ERC20Converter.sol\":9129:9164  uint256 erc20Amount = erc1155Amount */\n      swap1\n      pop\n        /* \"DualERC1155ERC20Converter.sol\":9213:9214  0 */\n      0x00\n        /* \"DualERC1155ERC20Converter.sol\":9182:9215  address(erc20Token) != address(0) */\n      0xffffffffffffffffffffffffffffffffffffffff\n      and\n        /* \"DualERC1155ERC20Converter.sol\":9190:9200  erc20Token */\n      0x01\n      0x00\n      swap1\n      sload\n      swap1\n      0x0100\n      exp\n      swap1\n      div\n      0xffffffffffffffffffffffffffffffffffffffff\n      and\n        /* \"DualERC1155ERC20Converter.sol\":9182:9215  address(erc20Token) != address(0) */\n      0xffffffffffffffffffffffffffffffffffffffff\n      and\n      sub\n        /* \"DualERC1155ERC20Converter.sol\":9174:9243  require(address(erc20Token) != address(0), \"ERC20 token not defined\") */\n      tag_237\n      jumpi\n      mload(0x40)\n      0x08c379a000000000000000000000000000000000000000000000000000000000\n      dup2\n      mstore\n      0x04\n      add\n      tag_238\n      swap1\n      tag_239\n      jump\t// in\n    tag_238:\n      mload(0x40)\n      dup1\n      swap2\n      sub\n      swap1\n      revert\n    tag_237:\n        /* \"DualERC1155ERC20Converter.sol\":9302:9312  erc20Token */\n      0x01\n      0x00\n      swap1\n      sload\n      swap1\n      0x0100\n      exp\n      swap1\n      div\n      0xffffffffffffffffffffffffffffffffffffffff\n      and\n        /* \"DualERC1155ERC20Converter.sol\":9302:9317  erc20Token.mint */\n      0xffffffffffffffffffffffffffffffffffffffff\n      and\n      0x40c10f19\n        /* \"DualERC1155ERC20Converter.sol\":9318:9324  sender */\n      dup6\n        /* \"DualERC1155ERC20Converter.sol\":9326:9337  erc20Amount */\n      dup4\n        /* \"DualERC1155ERC20Converter.sol\":9302:9338  erc20Token.mint(sender, erc20Amount) */\n      mload(0x40)\n      dup4\n      0xffffffff\n      and\n      0xe0\n      shl\n      dup2\n      mstore\n      0x04\n      add\n      tag_240\n      swap3\n      swap2\n      swap1\n      tag_155\n      jump\t// in\n    tag_240:\n      0x00\n      mload(0x40)\n      dup1\n      dup4\n      sub\n      dup2\n      0x00\n      dup8\n      dup1\n      extcodesize\n      iszero\n      dup1\n      iszero\n      tag_241\n      jumpi\n      0x00\n      dup1\n      revert\n    tag_241:\n      pop\n      gas\n      call\n      iszero\n      dup1\n      iszero\n      tag_243\n      jumpi\n      returndatasize\n      0x00\n      dup1\n      returndatacopy\n      revert(0x00, returndatasize)\n    tag_243:\n      pop\n      pop\n      pop\n      pop\n        /* \"DualERC1155ERC20Converter.sol\":9383:9413  ConversionRecord memory record */\n      0x00\n        /* \"DualERC1155ERC20Converter.sol\":9416:9608  ConversionRecord({... */\n      mload(0x40)\n      dup1\n      0x80\n      add\n      0x40\n      mstore\n      dup1\n        /* \"DualERC1155ERC20Converter.sol\":9463:9477  erc1155TokenId */\n      dup6\n        /* \"DualERC1155ERC20Converter.sol\":9416:9608  ConversionRecord({... */\n      dup2\n      mstore\n      0x20\n      add\n        /* \"DualERC1155ERC20Converter.sol\":9506:9519  erc1155Amount */\n      dup5\n        /* \"DualERC1155ERC20Converter.sol\":9416:9608  ConversionRecord({... */\n      dup2\n      mstore\n      0x20\n      add\n        /* \"DualERC1155ERC20Converter.sol\":9546:9557  erc20Amount */\n      dup4\n        /* \"DualERC1155ERC20Converter.sol\":9416:9608  ConversionRecord({... */\n      dup2\n      mstore\n      0x20\n      add\n        /* \"DualERC1155ERC20Converter.sol\":9582:9597  block.timestamp */\n      timestamp\n        /* \"DualERC1155ERC20Converter.sol\":9416:9608  ConversionRecord({... */\n      dup2\n      mstore\n      pop\n        /* \"DualERC1155ERC20Converter.sol\":9383:9608  ConversionRecord memory record = ConversionRecord({... */\n      swap1\n      pop\n        /* \"DualERC1155ERC20Converter.sol\":9618:9635  conversionHistory */\n      0x05\n        /* \"DualERC1155ERC20Converter.sol\":9641:9647  record */\n      dup2\n        /* \"DualERC1155ERC20Converter.sol\":9618:9648  conversionHistory.push(record) */\n      swap1\n      dup1\n      0x01\n      dup2\n      sload\n      add\n      dup1\n      dup3\n      sstore\n      dup1\n      swap2\n      pop\n      pop\n      0x01\n      swap1\n      sub\n      swap1\n      0x00\n      mstore\n      keccak256(0x00, 0x20)\n      swap1\n      0x04\n      mul\n      add\n      0x00\n      swap1\n      swap2\n      swap1\n      swap2\n      swap1\n      swap2\n      pop\n      0x00\n      dup3\n      add\n      mload\n      dup2\n      0x00\n      add\n      sstore\n      0x20\n      dup3\n      add\n      mload\n      dup2\n      0x01\n      add\n      sstore\n      0x40\n      dup3\n      add\n      mload\n      dup2\n      0x02\n      add\n      sstore\n      0x60\n      dup3\n      add\n      mload\n      dup2\n      0x03\n      add\n      sstore\n      pop\n      pop\n        /* \"DualERC1155ERC20Converter.sol\":9658:9683  conversionRecordsBySender */\n      0x04\n        /* \"DualERC1155ERC20Converter.sol\":9658:9691  conversionRecordsBySender[sender] */\n      0x00\n        /* \"DualERC1155ERC20Converter.sol\":9684:9690  sender */\n      dup7\n        /* \"DualERC1155ERC20Converter.sol\":9658:9691  conversionRecordsBySender[sender] */\n      0xffffffffffffffffffffffffffffffffffffffff\n      and\n      0xffffffffffffffffffffffffffffffffffffffff\n      and\n      dup2\n      mstore\n      0x20\n      add\n      swap1\n      dup2\n      mstore\n      0x20\n      add\n      0x00\n      keccak256\n        /* \"DualERC1155ERC20Converter.sol\":9697:9703  record */\n      dup2\n        /* \"DualERC1155ERC20Converter.sol\":9658:9704  conversionRecordsBySender[sender].push(record) */\n      swap1\n      dup1\n      0x01\n      dup2\n      sload\n      add\n      dup1\n      dup3\n      sstore\n      dup1\n      swap2\n      pop\n      pop\n      0x01\n      swap1\n      sub\n      swap1\n      0x00\n      mstore\n      keccak256(0x00, 0x20)\n      swap1\n      0x04\n      mul\n      add\n      0x00\n      swap1\n      swap2\n      swap1\n      swap2\n      swap1\n      swap2\n      pop\n      0x00\n      dup3\n      add\n      mload\n      dup2\n      0x00\n      add\n      sstore\n      0x20\n      dup3\n      add\n      mload\n      dup2\n      0x01\n      add\n      sstore\n      0x40\n      dup3\n      add\n      mload\n      dup2\n      0x02\n      add\n      sstore\n      0x60\n      dup3\n      add\n      mload\n      dup2\n      0x03\n      add\n      sstore\n      pop\n      pop\n        /* \"DualERC1155ERC20Converter.sol\":9748:9762  erc1155TokenId */\n      dup4\n        /* \"DualERC1155ERC20Converter.sol\":9740:9746  sender */\n      dup6\n        /* \"DualERC1155ERC20Converter.sol\":9720:9808  ConversionPerformed(sender, erc1155TokenId, erc1155Amount, erc20Amount, block.timestamp) */\n      0xffffffffffffffffffffffffffffffffffffffff\n      and\n      0x8207f4cc66476fc751f9fa47f50e7bdf31b03fad34f997e73ef4a8c554992647\n        /* \"DualERC1155ERC20Converter.sol\":9764:9777  erc1155Amount */\n      dup6\n        /* \"DualERC1155ERC20Converter.sol\":9779:9790  erc20Amount */\n      dup6\n        /* \"DualERC1155ERC20Converter.sol\":9792:9807  block.timestamp */\n      timestamp\n        /* \"DualERC1155ERC20Converter.sol\":9720:9808  ConversionPerformed(sender, erc1155TokenId, erc1155Amount, erc20Amount, block.timestamp) */\n      mload(0x40)\n      tag_246\n      swap4\n      swap3\n      swap2\n      swap1\n      tag_247\n      jump\t// in\n    tag_246:\n      mload(0x40)\n      dup1\n      swap2\n      sub\n      swap1\n      log3\n        /* \"DualERC1155ERC20Converter.sol\":9060:9815  {... */\n      pop\n      pop\n        /* \"DualERC1155ERC20Converter.sol\":8926:9815  function _convertERC1155ToERC20(... */\n      pop\n      pop\n      pop\n      jump\t// out\n        /* \"@openzeppelin/contracts/utils/Context.sol\":656:752  function _msgSender() internal view virtual returns (address) {... */\n    tag_230:\n        /* \"@openzeppelin/contracts/utils/Context.sol\":709:716  address */\n      0x00\n        /* \"@openzeppelin/contracts/utils/Context.sol\":735:745  msg.sender */\n      caller\n        /* \"@openzeppelin/contracts/utils/Context.sol\":728:745  return msg.sender */\n      swap1\n      pop\n        /* \"@openzeppelin/contracts/utils/Context.sol\":656:752  function _msgSender() internal view virtual returns (address) {... */\n      swap1\n      jump\t// out\n        /* \"#utility.yul\":7:82   */\n    tag_249:\n        /* \"#utility.yul\":40:46   */\n      0x00\n        /* \"#utility.yul\":73:75   */\n      0x40\n        /* \"#utility.yul\":67:76   */\n      mload\n        /* \"#utility.yul\":57:76   */\n      swap1\n      pop\n        /* \"#utility.yul\":7:82   */\n      swap1\n      jump\t// out\n        /* \"#utility.yul\":88:205   */\n    tag_250:\n        /* \"#utility.yul\":197:198   */\n      0x00\n        /* \"#utility.yul\":194:195   */\n      dup1\n        /* \"#utility.yul\":187:199   */\n      revert\n        /* \"#utility.yul\":211:328   */\n    tag_251:\n        /* \"#utility.yul\":320:321   */\n      0x00\n        /* \"#utility.yul\":317:318   */\n      dup1\n        /* \"#utility.yul\":310:322   */\n      revert\n        /* \"#utility.yul\":334:483   */\n    tag_252:\n        /* \"#utility.yul\":370:377   */\n      0x00\n        /* \"#utility.yul\":410:476   */\n      0xffffffff00000000000000000000000000000000000000000000000000000000\n        /* \"#utility.yul\":403:408   */\n      dup3\n        /* \"#utility.yul\":399:477   */\n      and\n        /* \"#utility.yul\":388:477   */\n      swap1\n      pop\n        /* \"#utility.yul\":334:483   */\n      swap2\n      swap1\n      pop\n      jump\t// out\n        /* \"#utility.yul\":489:609   */\n    tag_253:\n        /* \"#utility.yul\":561:584   */\n      tag_320\n        /* \"#utility.yul\":578:583   */\n      dup2\n        /* \"#utility.yul\":561:584   */\n      tag_252\n      jump\t// in\n    tag_320:\n        /* \"#utility.yul\":554:559   */\n      dup2\n        /* \"#utility.yul\":551:585   */\n      eq\n        /* \"#utility.yul\":541:603   */\n      tag_321\n      jumpi\n        /* \"#utility.yul\":599:600   */\n      0x00\n        /* \"#utility.yul\":596:597   */\n      dup1\n        /* \"#utility.yul\":589:601   */\n      revert\n        /* \"#utility.yul\":541:603   */\n    tag_321:\n        /* \"#utility.yul\":489:609   */\n      pop\n      jump\t// out\n        /* \"#utility.yul\":615:752   */\n    tag_254:\n        /* \"#utility.yul\":660:665   */\n      0x00\n        /* \"#utility.yul\":698:704   */\n      dup2\n        /* \"#utility.yul\":685:705   */\n      calldataload\n        /* \"#utility.yul\":676:705   */\n      swap1\n      pop\n        /* \"#utility.yul\":714:746   */\n      tag_323\n        /* \"#utility.yul\":740:745   */\n      dup2\n        /* \"#utility.yul\":714:746   */\n      tag_253\n      jump\t// in\n    tag_323:\n        /* \"#utility.yul\":615:752   */\n      swap3\n      swap2\n      pop\n      pop\n      jump\t// out\n        /* \"#utility.yul\":758:1085   */\n    tag_27:\n        /* \"#utility.yul\":816:822   */\n      0x00\n        /* \"#utility.yul\":865:867   */\n      0x20\n        /* \"#utility.yul\":853:862   */\n      dup3\n        /* \"#utility.yul\":844:851   */\n      dup5\n        /* \"#utility.yul\":840:863   */\n      sub\n        /* \"#utility.yul\":836:868   */\n      slt\n        /* \"#utility.yul\":833:952   */\n      iszero\n      tag_325\n      jumpi\n        /* \"#utility.yul\":871:950   */\n      tag_326\n      tag_250\n      jump\t// in\n    tag_326:\n        /* \"#utility.yul\":833:952   */\n    tag_325:\n        /* \"#utility.yul\":991:992   */\n      0x00\n        /* \"#utility.yul\":1016:1068   */\n      tag_327\n        /* \"#utility.yul\":1060:1067   */\n      dup5\n        /* \"#utility.yul\":1051:1057   */\n      dup3\n        /* \"#utility.yul\":1040:1049   */\n      dup6\n        /* \"#utility.yul\":1036:1058   */\n      add\n        /* \"#utility.yul\":1016:1068   */\n      tag_254\n      jump\t// in\n    tag_327:\n        /* \"#utility.yul\":1006:1068   */\n      swap2\n      pop\n        /* \"#utility.yul\":962:1078   */\n      pop\n        /* \"#utility.yul\":758:1085   */\n      swap3\n      swap2\n      pop\n      pop\n      jump\t// out\n        /* \"#utility.yul\":1091:1181   */\n    tag_255:\n        /* \"#utility.yul\":1125:1132   */\n      0x00\n        /* \"#utility.yul\":1168:1173   */\n      dup2\n        /* \"#utility.yul\":1161:1174   */\n      iszero\n        /* \"#utility.yul\":1154:1175   */\n      iszero\n        /* \"#utility.yul\":1143:1175   */\n      swap1\n      pop\n        /* \"#utility.yul\":1091:1181   */\n      swap2\n      swap1\n      pop\n      jump\t// out\n        /* \"#utility.yul\":1187:1296   */\n    tag_256:\n        /* \"#utility.yul\":1268:1289   */\n      tag_330\n        /* \"#utility.yul\":1283:1288   */\n      dup2\n        /* \"#utility.yul\":1268:1289   */\n      tag_255\n      jump\t// in\n    tag_330:\n        /* \"#utility.yul\":1263:1266   */\n      dup3\n        /* \"#utility.yul\":1256:1290   */\n      mstore\n        /* \"#utility.yul\":1187:1296   */\n      pop\n      pop\n      jump\t// out\n        /* \"#utility.yul\":1302:1512   */\n    tag_30:\n        /* \"#utility.yul\":1389:1393   */\n      0x00\n        /* \"#utility.yul\":1427:1429   */\n      0x20\n        /* \"#utility.yul\":1416:1425   */\n      dup3\n        /* \"#utility.yul\":1412:1430   */\n      add\n        /* \"#utility.yul\":1404:1430   */\n      swap1\n      pop\n        /* \"#utility.yul\":1440:1505   */\n      tag_332\n        /* \"#utility.yul\":1502:1503   */\n      0x00\n        /* \"#utility.yul\":1491:1500   */\n      dup4\n        /* \"#utility.yul\":1487:1504   */\n      add\n        /* \"#utility.yul\":1478:1484   */\n      dup5\n        /* \"#utility.yul\":1440:1505   */\n      tag_256\n      jump\t// in\n    tag_332:\n        /* \"#utility.yul\":1302:1512   */\n      swap3\n      swap2\n      pop\n      pop\n      jump\t// out\n        /* \"#utility.yul\":1518:1644   */\n    tag_257:\n        /* \"#utility.yul\":1555:1562   */\n      0x00\n        /* \"#utility.yul\":1595:1637   */\n      0xffffffffffffffffffffffffffffffffffffffff\n        /* \"#utility.yul\":1588:1593   */\n      dup3\n        /* \"#utility.yul\":1584:1638   */\n      and\n        /* \"#utility.yul\":1573:1638   */\n      swap1\n      pop\n        /* \"#utility.yul\":1518:1644   */\n      swap2\n      swap1\n      pop\n      jump\t// out\n        /* \"#utility.yul\":1650:1746   */\n    tag_258:\n        /* \"#utility.yul\":1687:1694   */\n      0x00\n        /* \"#utility.yul\":1716:1740   */\n      tag_335\n        /* \"#utility.yul\":1734:1739   */\n      dup3\n        /* \"#utility.yul\":1716:1740   */\n      tag_257\n      jump\t// in\n    tag_335:\n        /* \"#utility.yul\":1705:1740   */\n      swap1\n      pop\n        /* \"#utility.yul\":1650:1746   */\n      swap2\n      swap1\n      pop\n      jump\t// out\n        /* \"#utility.yul\":1752:1874   */\n    tag_259:\n        /* \"#utility.yul\":1825:1849   */\n      tag_337\n        /* \"#utility.yul\":1843:1848   */\n      dup2\n        /* \"#utility.yul\":1825:1849   */\n      tag_258\n      jump\t// in\n    tag_337:\n        /* \"#utility.yul\":1818:1823   */\n      dup2\n        /* \"#utility.yul\":1815:1850   */\n      eq\n        /* \"#utility.yul\":1805:1868   */\n      tag_338\n      jumpi\n        /* \"#utility.yul\":1864:1865   */\n      0x00\n        /* \"#utility.yul\":1861:1862   */\n      dup1\n        /* \"#utility.yul\":1854:1866   */\n      revert\n        /* \"#utility.yul\":1805:1868   */\n    tag_338:\n        /* \"#utility.yul\":1752:1874   */\n      pop\n      jump\t// out\n        /* \"#utility.yul\":1880:2019   */\n    tag_260:\n        /* \"#utility.yul\":1926:1931   */\n      0x00\n        /* \"#utility.yul\":1964:1970   */\n      dup2\n        /* \"#utility.yul\":1951:1971   */\n      calldataload\n        /* \"#utility.yul\":1942:1971   */\n      swap1\n      pop\n        /* \"#utility.yul\":1980:2013   */\n      tag_340\n        /* \"#utility.yul\":2007:2012   */\n      dup2\n        /* \"#utility.yul\":1980:2013   */\n      tag_259\n      jump\t// in\n    tag_340:\n        /* \"#utility.yul\":1880:2019   */\n      swap3\n      swap2\n      pop\n      pop\n      jump\t// out\n        /* \"#utility.yul\":2025:2102   */\n    tag_261:\n        /* \"#utility.yul\":2062:2069   */\n      0x00\n        /* \"#utility.yul\":2091:2096   */\n      dup2\n        /* \"#utility.yul\":2080:2096   */\n      swap1\n      pop\n        /* \"#utility.yul\":2025:2102   */\n      swap2\n      swap1\n      pop\n      jump\t// out\n        /* \"#utility.yul\":2108:2230   */\n    tag_262:\n        /* \"#utility.yul\":2181:2205   */\n      tag_343\n        /* \"#utility.yul\":2199:2204   */\n      dup2\n        /* \"#utility.yul\":2181:2205   */\n      tag_261\n      jump\t// in\n    tag_343:\n        /* \"#utility.yul\":2174:2179   */\n      dup2\n        /* \"#utility.yul\":2171:2206   */\n      eq\n        /* \"#utility.yul\":2161:2224   */\n      tag_344\n      jumpi\n        /* \"#utility.yul\":2220:2221   */\n      0x00\n        /* \"#utility.yul\":2217:2218   */\n      dup1\n        /* \"#utility.yul\":2210:2222   */\n      revert\n        /* \"#utility.yul\":2161:2224   */\n    tag_344:\n        /* \"#utility.yul\":2108:2230   */\n      pop\n      jump\t// out\n        /* \"#utility.yul\":2236:2375   */\n    tag_263:\n        /* \"#utility.yul\":2282:2287   */\n      0x00\n        /* \"#utility.yul\":2320:2326   */\n      dup2\n        /* \"#utility.yul\":2307:2327   */\n      calldataload\n        /* \"#utility.yul\":2298:2327   */\n      swap1\n      pop\n        /* \"#utility.yul\":2336:2369   */\n      tag_346\n        /* \"#utility.yul\":2363:2368   */\n      dup2\n        /* \"#utility.yul\":2336:2369   */\n      tag_262\n      jump\t// in\n    tag_346:\n        /* \"#utility.yul\":2236:2375   */\n      swap3\n      swap2\n      pop\n      pop\n      jump\t// out\n        /* \"#utility.yul\":2381:2855   */\n    tag_33:\n        /* \"#utility.yul\":2449:2455   */\n      0x00\n        /* \"#utility.yul\":2457:2463   */\n      dup1\n        /* \"#utility.yul\":2506:2508   */\n      0x40\n        /* \"#utility.yul\":2494:2503   */\n      dup4\n        /* \"#utility.yul\":2485:2492   */\n      dup6\n        /* \"#utility.yul\":2481:2504   */\n      sub\n        /* \"#utility.yul\":2477:2509   */\n      slt\n        /* \"#utility.yul\":2474:2593   */\n      iszero\n      tag_348\n      jumpi\n        /* \"#utility.yul\":2512:2591   */\n      tag_349\n      tag_250\n      jump\t// in\n    tag_349:\n        /* \"#utility.yul\":2474:2593   */\n    tag_348:\n        /* \"#utility.yul\":2632:2633   */\n      0x00\n        /* \"#utility.yul\":2657:2710   */\n      tag_350\n        /* \"#utility.yul\":2702:2709   */\n      dup6\n        /* \"#utility.yul\":2693:2699   */\n      dup3\n        /* \"#utility.yul\":2682:2691   */\n      dup7\n        /* \"#utility.yul\":2678:2700   */\n      add\n        /* \"#utility.yul\":2657:2710   */\n      tag_260\n      jump\t// in\n    tag_350:\n        /* \"#utility.yul\":2647:2710   */\n      swap3\n      pop\n        /* \"#utility.yul\":2603:2720   */\n      pop\n        /* \"#utility.yul\":2759:2761   */\n      0x20\n        /* \"#utility.yul\":2785:2838   */\n      tag_351\n        /* \"#utility.yul\":2830:2837   */\n      dup6\n        /* \"#utility.yul\":2821:2827   */\n      dup3\n        /* \"#utility.yul\":2810:2819   */\n      dup7\n        /* \"#utility.yul\":2806:2828   */\n      add\n        /* \"#utility.yul\":2785:2838   */\n      tag_263\n      jump\t// in\n    tag_351:\n        /* \"#utility.yul\":2775:2838   */\n      swap2\n      pop\n        /* \"#utility.yul\":2730:2848   */\n      pop\n        /* \"#utility.yul\":2381:2855   */\n      swap3\n      pop\n      swap3\n      swap1\n      pop\n      jump\t// out\n        /* \"#utility.yul\":2861:3190   */\n    tag_38:\n        /* \"#utility.yul\":2920:2926   */\n      0x00\n        /* \"#utility.yul\":2969:2971   */\n      0x20\n        /* \"#utility.yul\":2957:2966   */\n      dup3\n        /* \"#utility.yul\":2948:2955   */\n      dup5\n        /* \"#utility.yul\":2944:2967   */\n      sub\n        /* \"#utility.yul\":2940:2972   */\n      slt\n        /* \"#utility.yul\":2937:3056   */\n      iszero\n      tag_353\n      jumpi\n        /* \"#utility.yul\":2975:3054   */\n      tag_354\n      tag_250\n      jump\t// in\n    tag_354:\n        /* \"#utility.yul\":2937:3056   */\n    tag_353:\n        /* \"#utility.yul\":3095:3096   */\n      0x00\n        /* \"#utility.yul\":3120:3173   */\n      tag_355\n        /* \"#utility.yul\":3165:3172   */\n      dup5\n        /* \"#utility.yul\":3156:3162   */\n      dup3\n        /* \"#utility.yul\":3145:3154   */\n      dup6\n        /* \"#utility.yul\":3141:3163   */\n      add\n        /* \"#utility.yul\":3120:3173   */\n      tag_263\n      jump\t// in\n    tag_355:\n        /* \"#utility.yul\":3110:3173   */\n      swap2\n      pop\n        /* \"#utility.yul\":3066:3183   */\n      pop\n        /* \"#utility.yul\":2861:3190   */\n      swap3\n      swap2\n      pop\n      pop\n      jump\t// out\n        /* \"#utility.yul\":3196:3314   */\n    tag_264:\n        /* \"#utility.yul\":3283:3307   */\n      tag_357\n        /* \"#utility.yul\":3301:3306   */\n      dup2\n        /* \"#utility.yul\":3283:3307   */\n      tag_258\n      jump\t// in\n    tag_357:\n        /* \"#utility.yul\":3278:3281   */\n      dup3\n        /* \"#utility.yul\":3271:3308   */\n      mstore\n        /* \"#utility.yul\":3196:3314   */\n      pop\n      pop\n      jump\t// out\n        /* \"#utility.yul\":3320:3438   */\n    tag_265:\n        /* \"#utility.yul\":3407:3431   */\n      tag_359\n        /* \"#utility.yul\":3425:3430   */\n      dup2\n        /* \"#utility.yul\":3407:3431   */\n      tag_261\n      jump\t// in\n    tag_359:\n        /* \"#utility.yul\":3402:3405   */\n      dup3\n        /* \"#utility.yul\":3395:3432   */\n      mstore\n        /* \"#utility.yul\":3320:3438   */\n      pop\n      pop\n      jump\t// out\n        /* \"#utility.yul\":3444:4108   */\n    tag_41:\n        /* \"#utility.yul\":3649:3653   */\n      0x00\n        /* \"#utility.yul\":3687:3690   */\n      0xa0\n        /* \"#utility.yul\":3676:3685   */\n      dup3\n        /* \"#utility.yul\":3672:3691   */\n      add\n        /* \"#utility.yul\":3664:3691   */\n      swap1\n      pop\n        /* \"#utility.yul\":3701:3772   */\n      tag_361\n        /* \"#utility.yul\":3769:3770   */\n      0x00\n        /* \"#utility.yul\":3758:3767   */\n      dup4\n        /* \"#utility.yul\":3754:3771   */\n      add\n        /* \"#utility.yul\":3745:3751   */\n      dup9\n        /* \"#utility.yul\":3701:3772   */\n      tag_264\n      jump\t// in\n    tag_361:\n        /* \"#utility.yul\":3782:3854   */\n      tag_362\n        /* \"#utility.yul\":3850:3852   */\n      0x20\n        /* \"#utility.yul\":3839:3848   */\n      dup4\n        /* \"#utility.yul\":3835:3853   */\n      add\n        /* \"#utility.yul\":3826:3832   */\n      dup8\n        /* \"#utility.yul\":3782:3854   */\n      tag_264\n      jump\t// in\n    tag_362:\n        /* \"#utility.yul\":3864:3936   */\n      tag_363\n        /* \"#utility.yul\":3932:3934   */\n      0x40\n        /* \"#utility.yul\":3921:3930   */\n      dup4\n        /* \"#utility.yul\":3917:3935   */\n      add\n        /* \"#utility.yul\":3908:3914   */\n      dup7\n        /* \"#utility.yul\":3864:3936   */\n      tag_265\n      jump\t// in\n    tag_363:\n        /* \"#utility.yul\":3946:4018   */\n      tag_364\n        /* \"#utility.yul\":4014:4016   */\n      0x60\n        /* \"#utility.yul\":4003:4012   */\n      dup4\n        /* \"#utility.yul\":3999:4017   */\n      add\n        /* \"#utility.yul\":3990:3996   */\n      dup6\n        /* \"#utility.yul\":3946:4018   */\n      tag_265\n      jump\t// in\n    tag_364:\n        /* \"#utility.yul\":4028:4101   */\n      tag_365\n        /* \"#utility.yul\":4096:4099   */\n      0x80\n        /* \"#utility.yul\":4085:4094   */\n      dup4\n        /* \"#utility.yul\":4081:4100   */\n      add\n        /* \"#utility.yul\":4072:4078   */\n      dup5\n        /* \"#utility.yul\":4028:4101   */\n      tag_265\n      jump\t// in\n    tag_365:\n        /* \"#utility.yul\":3444:4108   */\n      swap7\n      swap6\n      pop\n      pop\n      pop\n      pop\n      pop\n      pop\n      jump\t// out\n        /* \"#utility.yul\":4114:4667   */\n    tag_46:\n        /* \"#utility.yul\":4291:4295   */\n      0x00\n        /* \"#utility.yul\":4329:4332   */\n      0x80\n        /* \"#utility.yul\":4318:4327   */\n      dup3\n        /* \"#utility.yul\":4314:4333   */\n      add\n        /* \"#utility.yul\":4306:4333   */\n      swap1\n      pop\n        /* \"#utility.yul\":4343:4414   */\n      tag_367\n        /* \"#utility.yul\":4411:4412   */\n      0x00\n        /* \"#utility.yul\":4400:4409   */\n      dup4\n        /* \"#utility.yul\":4396:4413   */\n      add\n        /* \"#utility.yul\":4387:4393   */\n      dup8\n        /* \"#utility.yul\":4343:4414   */\n      tag_265\n      jump\t// in\n    tag_367:\n        /* \"#utility.yul\":4424:4496   */\n      tag_368\n        /* \"#utility.yul\":4492:4494   */\n      0x20\n        /* \"#utility.yul\":4481:4490   */\n      dup4\n        /* \"#utility.yul\":4477:4495   */\n      add\n        /* \"#utility.yul\":4468:4474   */\n      dup7\n        /* \"#utility.yul\":4424:4496   */\n      tag_265\n      jump\t// in\n    tag_368:\n        /* \"#utility.yul\":4506:4578   */\n      tag_369\n        /* \"#utility.yul\":4574:4576   */\n      0x40\n        /* \"#utility.yul\":4563:4572   */\n      dup4\n        /* \"#utility.yul\":4559:4577   */\n      add\n        /* \"#utility.yul\":4550:4556   */\n      dup6\n        /* \"#utility.yul\":4506:4578   */\n      tag_265\n      jump\t// in\n    tag_369:\n        /* \"#utility.yul\":4588:4660   */\n      tag_370\n        /* \"#utility.yul\":4656:4658   */\n      0x60\n        /* \"#utility.yul\":4645:4654   */\n      dup4\n        /* \"#utility.yul\":4641:4659   */\n      add\n        /* \"#utility.yul\":4632:4638   */\n      dup5\n        /* \"#utility.yul\":4588:4660   */\n      tag_265\n      jump\t// in\n    tag_370:\n        /* \"#utility.yul\":4114:4667   */\n      swap6\n      swap5\n      pop\n      pop\n      pop\n      pop\n      pop\n      jump\t// out\n        /* \"#utility.yul\":4673:4733   */\n    tag_266:\n        /* \"#utility.yul\":4701:4704   */\n      0x00\n        /* \"#utility.yul\":4722:4727   */\n      dup2\n        /* \"#utility.yul\":4715:4727   */\n      swap1\n      pop\n        /* \"#utility.yul\":4673:4733   */\n      swap2\n      swap1\n      pop\n      jump\t// out\n        /* \"#utility.yul\":4739:4881   */\n    tag_267:\n        /* \"#utility.yul\":4789:4798   */\n      0x00\n        /* \"#utility.yul\":4822:4875   */\n      tag_373\n        /* \"#utility.yul\":4840:4874   */\n      tag_374\n        /* \"#utility.yul\":4849:4873   */\n      tag_375\n        /* \"#utility.yul\":4867:4872   */\n      dup5\n        /* \"#utility.yul\":4849:4873   */\n      tag_257\n      jump\t// in\n    tag_375:\n        /* \"#utility.yul\":4840:4874   */\n      tag_266\n      jump\t// in\n    tag_374:\n        /* \"#utility.yul\":4822:4875   */\n      tag_257\n      jump\t// in\n    tag_373:\n        /* \"#utility.yul\":4809:4875   */\n      swap1\n      pop\n        /* \"#utility.yul\":4739:4881   */\n      swap2\n      swap1\n      pop\n      jump\t// out\n        /* \"#utility.yul\":4887:5013   */\n    tag_268:\n        /* \"#utility.yul\":4937:4946   */\n      0x00\n        /* \"#utility.yul\":4970:5007   */\n      tag_377\n        /* \"#utility.yul\":5001:5006   */\n      dup3\n        /* \"#utility.yul\":4970:5007   */\n      tag_267\n      jump\t// in\n    tag_377:\n        /* \"#utility.yul\":4957:5007   */\n      swap1\n      pop\n        /* \"#utility.yul\":4887:5013   */\n      swap2\n      swap1\n      pop\n      jump\t// out\n        /* \"#utility.yul\":5019:5175   */\n    tag_269:\n        /* \"#utility.yul\":5099:5108   */\n      0x00\n        /* \"#utility.yul\":5132:5169   */\n      tag_379\n        /* \"#utility.yul\":5163:5168   */\n      dup3\n        /* \"#utility.yul\":5132:5169   */\n      tag_268\n      jump\t// in\n    tag_379:\n        /* \"#utility.yul\":5119:5169   */\n      swap1\n      pop\n        /* \"#utility.yul\":5019:5175   */\n      swap2\n      swap1\n      pop\n      jump\t// out\n        /* \"#utility.yul\":5181:5372   */\n    tag_270:\n        /* \"#utility.yul\":5298:5365   */\n      tag_381\n        /* \"#utility.yul\":5359:5364   */\n      dup2\n        /* \"#utility.yul\":5298:5365   */\n      tag_269\n      jump\t// in\n    tag_381:\n        /* \"#utility.yul\":5293:5296   */\n      dup3\n        /* \"#utility.yul\":5286:5366   */\n      mstore\n        /* \"#utility.yul\":5181:5372   */\n      pop\n      pop\n      jump\t// out\n        /* \"#utility.yul\":5378:5660   */\n    tag_59:\n        /* \"#utility.yul\":5501:5505   */\n      0x00\n        /* \"#utility.yul\":5539:5541   */\n      0x20\n        /* \"#utility.yul\":5528:5537   */\n      dup3\n        /* \"#utility.yul\":5524:5542   */\n      add\n        /* \"#utility.yul\":5516:5542   */\n      swap1\n      pop\n        /* \"#utility.yul\":5552:5653   */\n      tag_383\n        /* \"#utility.yul\":5650:5651   */\n      0x00\n        /* \"#utility.yul\":5639:5648   */\n      dup4\n        /* \"#utility.yul\":5635:5652   */\n      add\n        /* \"#utility.yul\":5626:5632   */\n      dup5\n        /* \"#utility.yul\":5552:5653   */\n      tag_270\n      jump\t// in\n    tag_383:\n        /* \"#utility.yul\":5378:5660   */\n      swap3\n      swap2\n      pop\n      pop\n      jump\t// out\n        /* \"#utility.yul\":5666:5888   */\n    tag_63:\n        /* \"#utility.yul\":5759:5763   */\n      0x00\n        /* \"#utility.yul\":5797:5799   */\n      0x20\n        /* \"#utility.yul\":5786:5795   */\n      dup3\n        /* \"#utility.yul\":5782:5800   */\n      add\n        /* \"#utility.yul\":5774:5800   */\n      swap1\n      pop\n        /* \"#utility.yul\":5810:5881   */\n      tag_385\n        /* \"#utility.yul\":5878:5879   */\n      0x00\n        /* \"#utility.yul\":5867:5876   */\n      dup4\n        /* \"#utility.yul\":5863:5880   */\n      add\n        /* \"#utility.yul\":5854:5860   */\n      dup5\n        /* \"#utility.yul\":5810:5881   */\n      tag_264\n      jump\t// in\n    tag_385:\n        /* \"#utility.yul\":5666:5888   */\n      swap3\n      swap2\n      pop\n      pop\n      jump\t// out\n        /* \"#utility.yul\":5894:6011   */\n    tag_271:\n        /* \"#utility.yul\":6003:6004   */\n      0x00\n        /* \"#utility.yul\":6000:6001   */\n      dup1\n        /* \"#utility.yul\":5993:6005   */\n      revert\n        /* \"#utility.yul\":6017:6119   */\n    tag_272:\n        /* \"#utility.yul\":6058:6064   */\n      0x00\n        /* \"#utility.yul\":6109:6111   */\n      0x1f\n        /* \"#utility.yul\":6105:6112   */\n      not\n        /* \"#utility.yul\":6100:6102   */\n      0x1f\n        /* \"#utility.yul\":6093:6098   */\n      dup4\n        /* \"#utility.yul\":6089:6103   */\n      add\n        /* \"#utility.yul\":6085:6113   */\n      and\n        /* \"#utility.yul\":6075:6113   */\n      swap1\n      pop\n        /* \"#utility.yul\":6017:6119   */\n      swap2\n      swap1\n      pop\n      jump\t// out\n        /* \"#utility.yul\":6125:6305   */\n    tag_273:\n        /* \"#utility.yul\":6173:6250   */\n      0x4e487b7100000000000000000000000000000000000000000000000000000000\n        /* \"#utility.yul\":6170:6171   */\n      0x00\n        /* \"#utility.yul\":6163:6251   */\n      mstore\n        /* \"#utility.yul\":6270:6274   */\n      0x41\n        /* \"#utility.yul\":6267:6268   */\n      0x04\n        /* \"#utility.yul\":6260:6275   */\n      mstore\n        /* \"#utility.yul\":6294:6298   */\n      0x24\n        /* \"#utility.yul\":6291:6292   */\n      0x00\n        /* \"#utility.yul\":6284:6299   */\n      revert\n        /* \"#utility.yul\":6311:6592   */\n    tag_274:\n        /* \"#utility.yul\":6394:6421   */\n      tag_390\n        /* \"#utility.yul\":6416:6420   */\n      dup3\n        /* \"#utility.yul\":6394:6421   */\n      tag_272\n      jump\t// in\n    tag_390:\n        /* \"#utility.yul\":6386:6392   */\n      dup2\n        /* \"#utility.yul\":6382:6422   */\n      add\n        /* \"#utility.yul\":6524:6530   */\n      dup2\n        /* \"#utility.yul\":6512:6522   */\n      dup2\n        /* \"#utility.yul\":6509:6531   */\n      lt\n        /* \"#utility.yul\":6488:6506   */\n      0xffffffffffffffff\n        /* \"#utility.yul\":6476:6486   */\n      dup3\n        /* \"#utility.yul\":6473:6507   */\n      gt\n        /* \"#utility.yul\":6470:6532   */\n      or\n        /* \"#utility.yul\":6467:6555   */\n      iszero\n      tag_391\n      jumpi\n        /* \"#utility.yul\":6535:6553   */\n      tag_392\n      tag_273\n      jump\t// in\n    tag_392:\n        /* \"#utility.yul\":6467:6555   */\n    tag_391:\n        /* \"#utility.yul\":6575:6585   */\n      dup1\n        /* \"#utility.yul\":6571:6573   */\n      0x40\n        /* \"#utility.yul\":6564:6586   */\n      mstore\n        /* \"#utility.yul\":6354:6592   */\n      pop\n        /* \"#utility.yul\":6311:6592   */\n      pop\n      pop\n      jump\t// out\n        /* \"#utility.yul\":6598:6727   */\n    tag_275:\n        /* \"#utility.yul\":6632:6638   */\n      0x00\n        /* \"#utility.yul\":6659:6679   */\n      tag_394\n      tag_249\n      jump\t// in\n    tag_394:\n        /* \"#utility.yul\":6649:6679   */\n      swap1\n      pop\n        /* \"#utility.yul\":6688:6721   */\n      tag_395\n        /* \"#utility.yul\":6716:6720   */\n      dup3\n        /* \"#utility.yul\":6708:6714   */\n      dup3\n        /* \"#utility.yul\":6688:6721   */\n      tag_274\n      jump\t// in\n    tag_395:\n        /* \"#utility.yul\":6598:6727   */\n      swap2\n      swap1\n      pop\n      jump\t// out\n        /* \"#utility.yul\":6733:7044   */\n    tag_276:\n        /* \"#utility.yul\":6810:6814   */\n      0x00\n        /* \"#utility.yul\":6900:6918   */\n      0xffffffffffffffff\n        /* \"#utility.yul\":6892:6898   */\n      dup3\n        /* \"#utility.yul\":6889:6919   */\n      gt\n        /* \"#utility.yul\":6886:6942   */\n      iszero\n      tag_397\n      jumpi\n        /* \"#utility.yul\":6922:6940   */\n      tag_398\n      tag_273\n      jump\t// in\n    tag_398:\n        /* \"#utility.yul\":6886:6942   */\n    tag_397:\n        /* \"#utility.yul\":6972:6976   */\n      0x20\n        /* \"#utility.yul\":6964:6970   */\n      dup3\n        /* \"#utility.yul\":6960:6977   */\n      mul\n        /* \"#utility.yul\":6952:6977   */\n      swap1\n      pop\n        /* \"#utility.yul\":7032:7036   */\n      0x20\n        /* \"#utility.yul\":7026:7030   */\n      dup2\n        /* \"#utility.yul\":7022:7037   */\n      add\n        /* \"#utility.yul\":7014:7037   */\n      swap1\n      pop\n        /* \"#utility.yul\":6733:7044   */\n      swap2\n      swap1\n      pop\n      jump\t// out\n        /* \"#utility.yul\":7050:7167   */\n    tag_277:\n        /* \"#utility.yul\":7159:7160   */\n      0x00\n        /* \"#utility.yul\":7156:7157   */\n      dup1\n        /* \"#utility.yul\":7149:7161   */\n      revert\n        /* \"#utility.yul\":7190:7900   */\n    tag_278:\n        /* \"#utility.yul\":7286:7291   */\n      0x00\n        /* \"#utility.yul\":7311:7392   */\n      tag_401\n        /* \"#utility.yul\":7327:7391   */\n      tag_402\n        /* \"#utility.yul\":7384:7390   */\n      dup5\n        /* \"#utility.yul\":7327:7391   */\n      tag_276\n      jump\t// in\n    tag_402:\n        /* \"#utility.yul\":7311:7392   */\n      tag_275\n      jump\t// in\n    tag_401:\n        /* \"#utility.yul\":7302:7392   */\n      swap1\n      pop\n        /* \"#utility.yul\":7412:7417   */\n      dup1\n        /* \"#utility.yul\":7441:7447   */\n      dup4\n        /* \"#utility.yul\":7434:7439   */\n      dup3\n        /* \"#utility.yul\":7427:7448   */\n      mstore\n        /* \"#utility.yul\":7475:7479   */\n      0x20\n        /* \"#utility.yul\":7468:7473   */\n      dup3\n        /* \"#utility.yul\":7464:7480   */\n      add\n        /* \"#utility.yul\":7457:7480   */\n      swap1\n      pop\n        /* \"#utility.yul\":7528:7532   */\n      0x20\n        /* \"#utility.yul\":7520:7526   */\n      dup5\n        /* \"#utility.yul\":7516:7533   */\n      mul\n        /* \"#utility.yul\":7508:7514   */\n      dup4\n        /* \"#utility.yul\":7504:7534   */\n      add\n        /* \"#utility.yul\":7557:7560   */\n      dup6\n        /* \"#utility.yul\":7549:7555   */\n      dup2\n        /* \"#utility.yul\":7546:7561   */\n      gt\n        /* \"#utility.yul\":7543:7665   */\n      iszero\n      tag_403\n      jumpi\n        /* \"#utility.yul\":7576:7655   */\n      tag_404\n      tag_277\n      jump\t// in\n    tag_404:\n        /* \"#utility.yul\":7543:7665   */\n    tag_403:\n        /* \"#utility.yul\":7691:7697   */\n      dup4\n        /* \"#utility.yul\":7674:7894   */\n    tag_405:\n        /* \"#utility.yul\":7708:7714   */\n      dup2\n        /* \"#utility.yul\":7703:7706   */\n      dup2\n        /* \"#utility.yul\":7700:7715   */\n      lt\n        /* \"#utility.yul\":7674:7894   */\n      iszero\n      tag_407\n      jumpi\n        /* \"#utility.yul\":7783:7786   */\n      dup1\n        /* \"#utility.yul\":7812:7849   */\n      tag_408\n        /* \"#utility.yul\":7845:7848   */\n      dup9\n        /* \"#utility.yul\":7833:7843   */\n      dup3\n        /* \"#utility.yul\":7812:7849   */\n      tag_263\n      jump\t// in\n    tag_408:\n        /* \"#utility.yul\":7807:7810   */\n      dup5\n        /* \"#utility.yul\":7800:7850   */\n      mstore\n        /* \"#utility.yul\":7879:7883   */\n      0x20\n        /* \"#utility.yul\":7874:7877   */\n      dup5\n        /* \"#utility.yul\":7870:7884   */\n      add\n        /* \"#utility.yul\":7863:7884   */\n      swap4\n      pop\n        /* \"#utility.yul\":7750:7894   */\n      pop\n        /* \"#utility.yul\":7734:7738   */\n      0x20\n        /* \"#utility.yul\":7729:7732   */\n      dup2\n        /* \"#utility.yul\":7725:7739   */\n      add\n        /* \"#utility.yul\":7718:7739   */\n      swap1\n      pop\n        /* \"#utility.yul\":7674:7894   */\n      jump(tag_405)\n    tag_407:\n        /* \"#utility.yul\":7678:7699   */\n      pop\n        /* \"#utility.yul\":7292:7900   */\n      pop\n      pop\n        /* \"#utility.yul\":7190:7900   */\n      swap4\n      swap3\n      pop\n      pop\n      pop\n      jump\t// out\n        /* \"#utility.yul\":7923:8293   */\n    tag_279:\n        /* \"#utility.yul\":7994:7999   */\n      0x00\n        /* \"#utility.yul\":8043:8046   */\n      dup3\n        /* \"#utility.yul\":8036:8040   */\n      0x1f\n        /* \"#utility.yul\":8028:8034   */\n      dup4\n        /* \"#utility.yul\":8024:8041   */\n      add\n        /* \"#utility.yul\":8020:8047   */\n      slt\n        /* \"#utility.yul\":8010:8132   */\n      tag_410\n      jumpi\n        /* \"#utility.yul\":8051:8130   */\n      tag_411\n      tag_271\n      jump\t// in\n    tag_411:\n        /* \"#utility.yul\":8010:8132   */\n    tag_410:\n        /* \"#utility.yul\":8168:8174   */\n      dup2\n        /* \"#utility.yul\":8155:8175   */\n      calldataload\n        /* \"#utility.yul\":8193:8287   */\n      tag_412\n        /* \"#utility.yul\":8283:8286   */\n      dup5\n        /* \"#utility.yul\":8275:8281   */\n      dup3\n        /* \"#utility.yul\":8268:8272   */\n      0x20\n        /* \"#utility.yul\":8260:8266   */\n      dup7\n        /* \"#utility.yul\":8256:8273   */\n      add\n        /* \"#utility.yul\":8193:8287   */\n      tag_278\n      jump\t// in\n    tag_412:\n        /* \"#utility.yul\":8184:8287   */\n      swap2\n      pop\n        /* \"#utility.yul\":8000:8293   */\n      pop\n        /* \"#utility.yul\":7923:8293   */\n      swap3\n      swap2\n      pop\n      pop\n      jump\t// out\n        /* \"#utility.yul\":8299:8416   */\n    tag_280:\n        /* \"#utility.yul\":8408:8409   */\n      0x00\n        /* \"#utility.yul\":8405:8406   */\n      dup1\n        /* \"#utility.yul\":8398:8410   */\n      revert\n        /* \"#utility.yul\":8422:8729   */\n    tag_281:\n        /* \"#utility.yul\":8483:8487   */\n      0x00\n        /* \"#utility.yul\":8573:8591   */\n      0xffffffffffffffff\n        /* \"#utility.yul\":8565:8571   */\n      dup3\n        /* \"#utility.yul\":8562:8592   */\n      gt\n        /* \"#utility.yul\":8559:8615   */\n      iszero\n      tag_415\n      jumpi\n        /* \"#utility.yul\":8595:8613   */\n      tag_416\n      tag_273\n      jump\t// in\n    tag_416:\n        /* \"#utility.yul\":8559:8615   */\n    tag_415:\n        /* \"#utility.yul\":8633:8662   */\n      tag_417\n        /* \"#utility.yul\":8655:8661   */\n      dup3\n        /* \"#utility.yul\":8633:8662   */\n      tag_272\n      jump\t// in\n    tag_417:\n        /* \"#utility.yul\":8625:8662   */\n      swap1\n      pop\n        /* \"#utility.yul\":8717:8721   */\n      0x20\n        /* \"#utility.yul\":8711:8715   */\n      dup2\n        /* \"#utility.yul\":8707:8722   */\n      add\n        /* \"#utility.yul\":8699:8722   */\n      swap1\n      pop\n        /* \"#utility.yul\":8422:8729   */\n      swap2\n      swap1\n      pop\n      jump\t// out\n        /* \"#utility.yul\":8735:8883   */\n    tag_282:\n        /* \"#utility.yul\":8833:8839   */\n      dup3\n        /* \"#utility.yul\":8828:8831   */\n      dup2\n        /* \"#utility.yul\":8823:8826   */\n      dup4\n        /* \"#utility.yul\":8810:8840   */\n      calldatacopy\n        /* \"#utility.yul\":8874:8875   */\n      0x00\n        /* \"#utility.yul\":8865:8871   */\n      dup4\n        /* \"#utility.yul\":8860:8863   */\n      dup4\n        /* \"#utility.yul\":8856:8872   */\n      add\n        /* \"#utility.yul\":8849:8876   */\n      mstore\n        /* \"#utility.yul\":8735:8883   */\n      pop\n      pop\n      pop\n      jump\t// out\n        /* \"#utility.yul\":8889:9312   */\n    tag_283:\n        /* \"#utility.yul\":8966:8971   */\n      0x00\n        /* \"#utility.yul\":8991:9056   */\n      tag_420\n        /* \"#utility.yul\":9007:9055   */\n      tag_421\n        /* \"#utility.yul\":9048:9054   */\n      dup5\n        /* \"#utility.yul\":9007:9055   */\n      tag_281\n      jump\t// in\n    tag_421:\n        /* \"#utility.yul\":8991:9056   */\n      tag_275\n      jump\t// in\n    tag_420:\n        /* \"#utility.yul\":8982:9056   */\n      swap1\n      pop\n        /* \"#utility.yul\":9079:9085   */\n      dup3\n        /* \"#utility.yul\":9072:9077   */\n      dup2\n        /* \"#utility.yul\":9065:9086   */\n      mstore\n        /* \"#utility.yul\":9117:9121   */\n      0x20\n        /* \"#utility.yul\":9110:9115   */\n      dup2\n        /* \"#utility.yul\":9106:9122   */\n      add\n        /* \"#utility.yul\":9155:9158   */\n      dup5\n        /* \"#utility.yul\":9146:9152   */\n      dup5\n        /* \"#utility.yul\":9141:9144   */\n      dup5\n        /* \"#utility.yul\":9137:9153   */\n      add\n        /* \"#utility.yul\":9134:9159   */\n      gt\n        /* \"#utility.yul\":9131:9243   */\n      iszero\n      tag_422\n      jumpi\n        /* \"#utility.yul\":9162:9241   */\n      tag_423\n      tag_280\n      jump\t// in\n    tag_423:\n        /* \"#utility.yul\":9131:9243   */\n    tag_422:\n        /* \"#utility.yul\":9252:9306   */\n      tag_424\n        /* \"#utility.yul\":9299:9305   */\n      dup5\n        /* \"#utility.yul\":9294:9297   */\n      dup3\n        /* \"#utility.yul\":9289:9292   */\n      dup6\n        /* \"#utility.yul\":9252:9306   */\n      tag_282\n      jump\t// in\n    tag_424:\n        /* \"#utility.yul\":8972:9312   */\n      pop\n        /* \"#utility.yul\":8889:9312   */\n      swap4\n      swap3\n      pop\n      pop\n      pop\n      jump\t// out\n        /* \"#utility.yul\":9331:9669   */\n    tag_284:\n        /* \"#utility.yul\":9386:9391   */\n      0x00\n        /* \"#utility.yul\":9435:9438   */\n      dup3\n        /* \"#utility.yul\":9428:9432   */\n      0x1f\n        /* \"#utility.yul\":9420:9426   */\n      dup4\n        /* \"#utility.yul\":9416:9433   */\n      add\n        /* \"#utility.yul\":9412:9439   */\n      slt\n        /* \"#utility.yul\":9402:9524   */\n      tag_426\n      jumpi\n        /* \"#utility.yul\":9443:9522   */\n      tag_427\n      tag_271\n      jump\t// in\n    tag_427:\n        /* \"#utility.yul\":9402:9524   */\n    tag_426:\n        /* \"#utility.yul\":9560:9566   */\n      dup2\n        /* \"#utility.yul\":9547:9567   */\n      calldataload\n        /* \"#utility.yul\":9585:9663   */\n      tag_428\n        /* \"#utility.yul\":9659:9662   */\n      dup5\n        /* \"#utility.yul\":9651:9657   */\n      dup3\n        /* \"#utility.yul\":9644:9648   */\n      0x20\n        /* \"#utility.yul\":9636:9642   */\n      dup7\n        /* \"#utility.yul\":9632:9649   */\n      add\n        /* \"#utility.yul\":9585:9663   */\n      tag_283\n      jump\t// in\n    tag_428:\n        /* \"#utility.yul\":9576:9663   */\n      swap2\n      pop\n        /* \"#utility.yul\":9392:9669   */\n      pop\n        /* \"#utility.yul\":9331:9669   */\n      swap3\n      swap2\n      pop\n      pop\n      jump\t// out\n        /* \"#utility.yul\":9675:11184   */\n    tag_73:\n        /* \"#utility.yul\":9829:9835   */\n      0x00\n        /* \"#utility.yul\":9837:9843   */\n      dup1\n        /* \"#utility.yul\":9845:9851   */\n      0x00\n        /* \"#utility.yul\":9853:9859   */\n      dup1\n        /* \"#utility.yul\":9861:9867   */\n      0x00\n        /* \"#utility.yul\":9910:9913   */\n      0xa0\n        /* \"#utility.yul\":9898:9907   */\n      dup7\n        /* \"#utility.yul\":9889:9896   */\n      dup9\n        /* \"#utility.yul\":9885:9908   */\n      sub\n        /* \"#utility.yul\":9881:9914   */\n      slt\n        /* \"#utility.yul\":9878:9998   */\n      iszero\n      tag_430\n      jumpi\n        /* \"#utility.yul\":9917:9996   */\n      tag_431\n      tag_250\n      jump\t// in\n    tag_431:\n        /* \"#utility.yul\":9878:9998   */\n    tag_430:\n        /* \"#utility.yul\":10037:10038   */\n      0x00\n        /* \"#utility.yul\":10062:10115   */\n      tag_432\n        /* \"#utility.yul\":10107:10114   */\n      dup9\n        /* \"#utility.yul\":10098:10104   */\n      dup3\n        /* \"#utility.yul\":10087:10096   */\n      dup10\n        /* \"#utility.yul\":10083:10105   */\n      add\n        /* \"#utility.yul\":10062:10115   */\n      tag_260\n      jump\t// in\n    tag_432:\n        /* \"#utility.yul\":10052:10115   */\n      swap6\n      pop\n        /* \"#utility.yul\":10008:10125   */\n      pop\n        /* \"#utility.yul\":10164:10166   */\n      0x20\n        /* \"#utility.yul\":10190:10243   */\n      tag_433\n        /* \"#utility.yul\":10235:10242   */\n      dup9\n        /* \"#utility.yul\":10226:10232   */\n      dup3\n        /* \"#utility.yul\":10215:10224   */\n      dup10\n        /* \"#utility.yul\":10211:10233   */\n      add\n        /* \"#utility.yul\":10190:10243   */\n      tag_260\n      jump\t// in\n    tag_433:\n        /* \"#utility.yul\":10180:10243   */\n      swap5\n      pop\n        /* \"#utility.yul\":10135:10253   */\n      pop\n        /* \"#utility.yul\":10320:10322   */\n      0x40\n        /* \"#utility.yul\":10309:10318   */\n      dup7\n        /* \"#utility.yul\":10305:10323   */\n      add\n        /* \"#utility.yul\":10292:10324   */\n      calldataload\n        /* \"#utility.yul\":10351:10369   */\n      0xffffffffffffffff\n        /* \"#utility.yul\":10343:10349   */\n      dup2\n        /* \"#utility.yul\":10340:10370   */\n      gt\n        /* \"#utility.yul\":10337:10454   */\n      iszero\n      tag_434\n      jumpi\n        /* \"#utility.yul\":10373:10452   */\n      tag_435\n      tag_251\n      jump\t// in\n    tag_435:\n        /* \"#utility.yul\":10337:10454   */\n    tag_434:\n        /* \"#utility.yul\":10478:10556   */\n      tag_436\n        /* \"#utility.yul\":10548:10555   */\n      dup9\n        /* \"#utility.yul\":10539:10545   */\n      dup3\n        /* \"#utility.yul\":10528:10537   */\n      dup10\n        /* \"#utility.yul\":10524:10546   */\n      add\n        /* \"#utility.yul\":10478:10556   */\n      tag_279\n      jump\t// in\n    tag_436:\n        /* \"#utility.yul\":10468:10556   */\n      swap4\n      pop\n        /* \"#utility.yul\":10263:10566   */\n      pop\n        /* \"#utility.yul\":10633:10635   */\n      0x60\n        /* \"#utility.yul\":10622:10631   */\n      dup7\n        /* \"#utility.yul\":10618:10636   */\n      add\n        /* \"#utility.yul\":10605:10637   */\n      calldataload\n        /* \"#utility.yul\":10664:10682   */\n      0xffffffffffffffff\n        /* \"#utility.yul\":10656:10662   */\n      dup2\n        /* \"#utility.yul\":10653:10683   */\n      gt\n        /* \"#utility.yul\":10650:10767   */\n      iszero\n      tag_437\n      jumpi\n        /* \"#utility.yul\":10686:10765   */\n      tag_438\n      tag_251\n      jump\t// in\n    tag_438:\n        /* \"#utility.yul\":10650:10767   */\n    tag_437:\n        /* \"#utility.yul\":10791:10869   */\n      tag_439\n        /* \"#utility.yul\":10861:10868   */\n      dup9\n        /* \"#utility.yul\":10852:10858   */\n      dup3\n        /* \"#utility.yul\":10841:10850   */\n      dup10\n        /* \"#utility.yul\":10837:10859   */\n      add\n        /* \"#utility.yul\":10791:10869   */\n      tag_279\n      jump\t// in\n    tag_439:\n        /* \"#utility.yul\":10781:10869   */\n      swap3\n      pop\n        /* \"#utility.yul\":10576:10879   */\n      pop\n        /* \"#utility.yul\":10946:10949   */\n      0x80\n        /* \"#utility.yul\":10935:10944   */\n      dup7\n        /* \"#utility.yul\":10931:10950   */\n      add\n        /* \"#utility.yul\":10918:10951   */\n      calldataload\n        /* \"#utility.yul\":10978:10996   */\n      0xffffffffffffffff\n        /* \"#utility.yul\":10970:10976   */\n      dup2\n        /* \"#utility.yul\":10967:10997   */\n      gt\n        /* \"#utility.yul\":10964:11081   */\n      iszero\n      tag_440\n      jumpi\n        /* \"#utility.yul\":11000:11079   */\n      tag_441\n      tag_251\n      jump\t// in\n    tag_441:\n        /* \"#utility.yul\":10964:11081   */\n    tag_440:\n        /* \"#utility.yul\":11105:11167   */\n      tag_442\n        /* \"#utility.yul\":11159:11166   */\n      dup9\n        /* \"#utility.yul\":11150:11156   */\n      dup3\n        /* \"#utility.yul\":11139:11148   */\n      dup10\n        /* \"#utility.yul\":11135:11157   */\n      add\n        /* \"#utility.yul\":11105:11167   */\n      tag_284\n      jump\t// in\n    tag_442:\n        /* \"#utility.yul\":11095:11167   */\n      swap2\n      pop\n        /* \"#utility.yul\":10889:11177   */\n      pop\n        /* \"#utility.yul\":9675:11184   */\n      swap3\n      swap6\n      pop\n      swap3\n      swap6\n      swap1\n      swap4\n      pop\n      jump\t// out\n        /* \"#utility.yul\":11190:11305   */\n    tag_285:\n        /* \"#utility.yul\":11275:11298   */\n      tag_444\n        /* \"#utility.yul\":11292:11297   */\n      dup2\n        /* \"#utility.yul\":11275:11298   */\n      tag_252\n      jump\t// in\n    tag_444:\n        /* \"#utility.yul\":11270:11273   */\n      dup3\n        /* \"#utility.yul\":11263:11299   */\n      mstore\n        /* \"#utility.yul\":11190:11305   */\n      pop\n      pop\n      jump\t// out\n        /* \"#utility.yul\":11311:11529   */\n    tag_76:\n        /* \"#utility.yul\":11402:11406   */\n      0x00\n        /* \"#utility.yul\":11440:11442   */\n      0x20\n        /* \"#utility.yul\":11429:11438   */\n      dup3\n        /* \"#utility.yul\":11425:11443   */\n      add\n        /* \"#utility.yul\":11417:11443   */\n      swap1\n      pop\n        /* \"#utility.yul\":11453:11522   */\n      tag_446\n        /* \"#utility.yul\":11519:11520   */\n      0x00\n        /* \"#utility.yul\":11508:11517   */\n      dup4\n        /* \"#utility.yul\":11504:11521   */\n      add\n        /* \"#utility.yul\":11495:11501   */\n      dup5\n        /* \"#utility.yul\":11453:11522   */\n      tag_285\n      jump\t// in\n    tag_446:\n        /* \"#utility.yul\":11311:11529   */\n      swap3\n      swap2\n      pop\n      pop\n      jump\t// out\n        /* \"#utility.yul\":11535:11864   */\n    tag_82:\n        /* \"#utility.yul\":11594:11600   */\n      0x00\n        /* \"#utility.yul\":11643:11645   */\n      0x20\n        /* \"#utility.yul\":11631:11640   */\n      dup3\n        /* \"#utility.yul\":11622:11629   */\n      dup5\n        /* \"#utility.yul\":11618:11641   */\n      sub\n        /* \"#utility.yul\":11614:11646   */\n      slt\n        /* \"#utility.yul\":11611:11730   */\n      iszero\n      tag_448\n      jumpi\n        /* \"#utility.yul\":11649:11728   */\n      tag_449\n      tag_250\n      jump\t// in\n    tag_449:\n        /* \"#utility.yul\":11611:11730   */\n    tag_448:\n        /* \"#utility.yul\":11769:11770   */\n      0x00\n        /* \"#utility.yul\":11794:11847   */\n      tag_450\n        /* \"#utility.yul\":11839:11846   */\n      dup5\n        /* \"#utility.yul\":11830:11836   */\n      dup3\n        /* \"#utility.yul\":11819:11828   */\n      dup6\n        /* \"#utility.yul\":11815:11837   */\n      add\n        /* \"#utility.yul\":11794:11847   */\n      tag_260\n      jump\t// in\n    tag_450:\n        /* \"#utility.yul\":11784:11847   */\n      swap2\n      pop\n        /* \"#utility.yul\":11740:11857   */\n      pop\n        /* \"#utility.yul\":11535:11864   */\n      swap3\n      swap2\n      pop\n      pop\n      jump\t// out\n        /* \"#utility.yul\":11870:12489   */\n    tag_86:\n        /* \"#utility.yul\":11947:11953   */\n      0x00\n        /* \"#utility.yul\":11955:11961   */\n      dup1\n        /* \"#utility.yul\":11963:11969   */\n      0x00\n        /* \"#utility.yul\":12012:12014   */\n      0x60\n        /* \"#utility.yul\":12000:12009   */\n      dup5\n        /* \"#utility.yul\":11991:11998   */\n      dup7\n        /* \"#utility.yul\":11987:12010   */\n      sub\n        /* \"#utility.yul\":11983:12015   */\n      slt\n        /* \"#utility.yul\":11980:12099   */\n      iszero\n      tag_452\n      jumpi\n        /* \"#utility.yul\":12018:12097   */\n      tag_453\n      tag_250\n      jump\t// in\n    tag_453:\n        /* \"#utility.yul\":11980:12099   */\n    tag_452:\n        /* \"#utility.yul\":12138:12139   */\n      0x00\n        /* \"#utility.yul\":12163:12216   */\n      tag_454\n        /* \"#utility.yul\":12208:12215   */\n      dup7\n        /* \"#utility.yul\":12199:12205   */\n      dup3\n        /* \"#utility.yul\":12188:12197   */\n      dup8\n        /* \"#utility.yul\":12184:12206   */\n      add\n        /* \"#utility.yul\":12163:12216   */\n      tag_260\n      jump\t// in\n    tag_454:\n        /* \"#utility.yul\":12153:12216   */\n      swap4\n      pop\n        /* \"#utility.yul\":12109:12226   */\n      pop\n        /* \"#utility.yul\":12265:12267   */\n      0x20\n        /* \"#utility.yul\":12291:12344   */\n      tag_455\n        /* \"#utility.yul\":12336:12343   */\n      dup7\n        /* \"#utility.yul\":12327:12333   */\n      dup3\n        /* \"#utility.yul\":12316:12325   */\n      dup8\n        /* \"#utility.yul\":12312:12334   */\n      add\n        /* \"#utility.yul\":12291:12344   */\n      tag_263\n      jump\t// in\n    tag_455:\n        /* \"#utility.yul\":12281:12344   */\n      swap3\n      pop\n        /* \"#utility.yul\":12236:12354   */\n      pop\n        /* \"#utility.yul\":12393:12395   */\n      0x40\n        /* \"#utility.yul\":12419:12472   */\n      tag_456\n        /* \"#utility.yul\":12464:12471   */\n      dup7\n        /* \"#utility.yul\":12455:12461   */\n      dup3\n        /* \"#utility.yul\":12444:12453   */\n      dup8\n        /* \"#utility.yul\":12440:12462   */\n      add\n        /* \"#utility.yul\":12419:12472   */\n      tag_263\n      jump\t// in\n    tag_456:\n        /* \"#utility.yul\":12409:12472   */\n      swap2\n      pop\n        /* \"#utility.yul\":12364:12482   */\n      pop\n        /* \"#utility.yul\":11870:12489   */\n      swap3\n      pop\n      swap3\n      pop\n      swap3\n      jump\t// out\n        /* \"#utility.yul\":12495:13584   */\n    tag_93:\n        /* \"#utility.yul\":12599:12605   */\n      0x00\n        /* \"#utility.yul\":12607:12613   */\n      dup1\n        /* \"#utility.yul\":12615:12621   */\n      0x00\n        /* \"#utility.yul\":12623:12629   */\n      dup1\n        /* \"#utility.yul\":12631:12637   */\n      0x00\n        /* \"#utility.yul\":12680:12683   */\n      0xa0\n        /* \"#utility.yul\":12668:12677   */\n      dup7\n        /* \"#utility.yul\":12659:12666   */\n      dup9\n        /* \"#utility.yul\":12655:12678   */\n      sub\n        /* \"#utility.yul\":12651:12684   */\n      slt\n        /* \"#utility.yul\":12648:12768   */\n      iszero\n      tag_458\n      jumpi\n        /* \"#utility.yul\":12687:12766   */\n      tag_459\n      tag_250\n      jump\t// in\n    tag_459:\n        /* \"#utility.yul\":12648:12768   */\n    tag_458:\n        /* \"#utility.yul\":12807:12808   */\n      0x00\n        /* \"#utility.yul\":12832:12885   */\n      tag_460\n        /* \"#utility.yul\":12877:12884   */\n      dup9\n        /* \"#utility.yul\":12868:12874   */\n      dup3\n        /* \"#utility.yul\":12857:12866   */\n      dup10\n        /* \"#utility.yul\":12853:12875   */\n      add\n        /* \"#utility.yul\":12832:12885   */\n      tag_260\n      jump\t// in\n    tag_460:\n        /* \"#utility.yul\":12822:12885   */\n      swap6\n      pop\n        /* \"#utility.yul\":12778:12895   */\n      pop\n        /* \"#utility.yul\":12934:12936   */\n      0x20\n        /* \"#utility.yul\":12960:13013   */\n      tag_461\n        /* \"#utility.yul\":13005:13012   */\n      dup9\n        /* \"#utility.yul\":12996:13002   */\n      dup3\n        /* \"#utility.yul\":12985:12994   */\n      dup10\n        /* \"#utility.yul\":12981:13003   */\n      add\n        /* \"#utility.yul\":12960:13013   */\n      tag_260\n      jump\t// in\n    tag_461:\n        /* \"#utility.yul\":12950:13013   */\n      swap5\n      pop\n        /* \"#utility.yul\":12905:13023   */\n      pop\n        /* \"#utility.yul\":13062:13064   */\n      0x40\n        /* \"#utility.yul\":13088:13141   */\n      tag_462\n        /* \"#utility.yul\":13133:13140   */\n      dup9\n        /* \"#utility.yul\":13124:13130   */\n      dup3\n        /* \"#utility.yul\":13113:13122   */\n      dup10\n        /* \"#utility.yul\":13109:13131   */\n      add\n        /* \"#utility.yul\":13088:13141   */\n      tag_263\n      jump\t// in\n    tag_462:\n        /* \"#utility.yul\":13078:13141   */\n      swap4\n      pop\n        /* \"#utility.yul\":13033:13151   */\n      pop\n        /* \"#utility.yul\":13190:13192   */\n      0x60\n        /* \"#utility.yul\":13216:13269   */\n      tag_463\n        /* \"#utility.yul\":13261:13268   */\n      dup9\n        /* \"#utility.yul\":13252:13258   */\n      dup3\n        /* \"#utility.yul\":13241:13250   */\n      dup10\n        /* \"#utility.yul\":13237:13259   */\n      add\n        /* \"#utility.yul\":13216:13269   */\n      tag_263\n      jump\t// in\n    tag_463:\n        /* \"#utility.yul\":13206:13269   */\n      swap3\n      pop\n        /* \"#utility.yul\":13161:13279   */\n      pop\n        /* \"#utility.yul\":13346:13349   */\n      0x80\n        /* \"#utility.yul\":13335:13344   */\n      dup7\n        /* \"#utility.yul\":13331:13350   */\n      add\n        /* \"#utility.yul\":13318:13351   */\n      calldataload\n        /* \"#utility.yul\":13378:13396   */\n      0xffffffffffffffff\n        /* \"#utility.yul\":13370:13376   */\n      dup2\n        /* \"#utility.yul\":13367:13397   */\n      gt\n        /* \"#utility.yul\":13364:13481   */\n      iszero\n      tag_464\n      jumpi\n        /* \"#utility.yul\":13400:13479   */\n      tag_465\n      tag_251\n      jump\t// in\n    tag_465:\n        /* \"#utility.yul\":13364:13481   */\n    tag_464:\n        /* \"#utility.yul\":13505:13567   */\n      tag_466\n        /* \"#utility.yul\":13559:13566   */\n      dup9\n        /* \"#utility.yul\":13550:13556   */\n      dup3\n        /* \"#utility.yul\":13539:13548   */\n      dup10\n        /* \"#utility.yul\":13535:13557   */\n      add\n        /* \"#utility.yul\":13505:13567   */\n      tag_284\n      jump\t// in\n    tag_466:\n        /* \"#utility.yul\":13495:13567   */\n      swap2\n      pop\n        /* \"#utility.yul\":13289:13577   */\n      pop\n        /* \"#utility.yul\":12495:13584   */\n      swap3\n      swap6\n      pop\n      swap3\n      swap6\n      swap1\n      swap4\n      pop\n      jump\t// out\n        /* \"#utility.yul\":13590:13759   */\n    tag_286:\n        /* \"#utility.yul\":13674:13685   */\n      0x00\n        /* \"#utility.yul\":13708:13714   */\n      dup3\n        /* \"#utility.yul\":13703:13706   */\n      dup3\n        /* \"#utility.yul\":13696:13715   */\n      mstore\n        /* \"#utility.yul\":13748:13752   */\n      0x20\n        /* \"#utility.yul\":13743:13746   */\n      dup3\n        /* \"#utility.yul\":13739:13753   */\n      add\n        /* \"#utility.yul\":13724:13753   */\n      swap1\n      pop\n        /* \"#utility.yul\":13590:13759   */\n      swap3\n      swap2\n      pop\n      pop\n      jump\t// out\n        /* \"#utility.yul\":13765:13938   */\n    tag_287:\n        /* \"#utility.yul\":13905:13930   */\n      0x496e76616c696420455243313135352061646472657373000000000000000000\n        /* \"#utility.yul\":13901:13902   */\n      0x00\n        /* \"#utility.yul\":13893:13899   */\n      dup3\n        /* \"#utility.yul\":13889:13903   */\n      add\n        /* \"#utility.yul\":13882:13931   */\n      mstore\n        /* \"#utility.yul\":13765:13938   */\n      pop\n      jump\t// out\n        /* \"#utility.yul\":13944:14310   */\n    tag_288:\n        /* \"#utility.yul\":14086:14089   */\n      0x00\n        /* \"#utility.yul\":14107:14174   */\n      tag_470\n        /* \"#utility.yul\":14171:14173   */\n      0x17\n        /* \"#utility.yul\":14166:14169   */\n      dup4\n        /* \"#utility.yul\":14107:14174   */\n      tag_286\n      jump\t// in\n    tag_470:\n        /* \"#utility.yul\":14100:14174   */\n      swap2\n      pop\n        /* \"#utility.yul\":14183:14276   */\n      tag_471\n        /* \"#utility.yul\":14272:14275   */\n      dup3\n        /* \"#utility.yul\":14183:14276   */\n      tag_287\n      jump\t// in\n    tag_471:\n        /* \"#utility.yul\":14301:14303   */\n      0x20\n        /* \"#utility.yul\":14296:14299   */\n      dup3\n        /* \"#utility.yul\":14292:14304   */\n      add\n        /* \"#utility.yul\":14285:14304   */\n      swap1\n      pop\n        /* \"#utility.yul\":13944:14310   */\n      swap2\n      swap1\n      pop\n      jump\t// out\n        /* \"#utility.yul\":14316:14735   */\n    tag_118:\n        /* \"#utility.yul\":14482:14486   */\n      0x00\n        /* \"#utility.yul\":14520:14522   */\n      0x20\n        /* \"#utility.yul\":14509:14518   */\n      dup3\n        /* \"#utility.yul\":14505:14523   */\n      add\n        /* \"#utility.yul\":14497:14523   */\n      swap1\n      pop\n        /* \"#utility.yul\":14569:14578   */\n      dup2\n        /* \"#utility.yul\":14563:14567   */\n      dup2\n        /* \"#utility.yul\":14559:14579   */\n      sub\n        /* \"#utility.yul\":14555:14556   */\n      0x00\n        /* \"#utility.yul\":14544:14553   */\n      dup4\n        /* \"#utility.yul\":14540:14557   */\n      add\n        /* \"#utility.yul\":14533:14580   */\n      mstore\n        /* \"#utility.yul\":14597:14728   */\n      tag_473\n        /* \"#utility.yul\":14723:14727   */\n      dup2\n        /* \"#utility.yul\":14597:14728   */\n      tag_288\n      jump\t// in\n    tag_473:\n        /* \"#utility.yul\":14589:14728   */\n      swap1\n      pop\n        /* \"#utility.yul\":14316:14735   */\n      swap2\n      swap1\n      pop\n      jump\t// out\n        /* \"#utility.yul\":14741:14971   */\n    tag_289:\n        /* \"#utility.yul\":14881:14915   */\n      0x4f6e6c792074686520746f6b656e206f776e65722063616e2074726967676572\n        /* \"#utility.yul\":14877:14878   */\n      0x00\n        /* \"#utility.yul\":14869:14875   */\n      dup3\n        /* \"#utility.yul\":14865:14879   */\n      add\n        /* \"#utility.yul\":14858:14916   */\n      mstore\n        /* \"#utility.yul\":14950:14963   */\n      0x20636f6e76657273696f6e000000000000000000000000000000000000000000\n        /* \"#utility.yul\":14945:14947   */\n      0x20\n        /* \"#utility.yul\":14937:14943   */\n      dup3\n        /* \"#utility.yul\":14933:14948   */\n      add\n        /* \"#utility.yul\":14926:14964   */\n      mstore\n        /* \"#utility.yul\":14741:14971   */\n      pop\n      jump\t// out\n        /* \"#utility.yul\":14977:15343   */\n    tag_290:\n        /* \"#utility.yul\":15119:15122   */\n      0x00\n        /* \"#utility.yul\":15140:15207   */\n      tag_476\n        /* \"#utility.yul\":15204:15206   */\n      0x2b\n        /* \"#utility.yul\":15199:15202   */\n      dup4\n        /* \"#utility.yul\":15140:15207   */\n      tag_286\n      jump\t// in\n    tag_476:\n        /* \"#utility.yul\":15133:15207   */\n      swap2\n      pop\n        /* \"#utility.yul\":15216:15309   */\n      tag_477\n        /* \"#utility.yul\":15305:15308   */\n      dup3\n        /* \"#utility.yul\":15216:15309   */\n      tag_289\n      jump\t// in\n    tag_477:\n        /* \"#utility.yul\":15334:15336   */\n      0x40\n        /* \"#utility.yul\":15329:15332   */\n      dup3\n        /* \"#utility.yul\":15325:15337   */\n      add\n        /* \"#utility.yul\":15318:15337   */\n      swap1\n      pop\n        /* \"#utility.yul\":14977:15343   */\n      swap2\n      swap1\n      pop\n      jump\t// out\n        /* \"#utility.yul\":15349:15768   */\n    tag_136:\n        /* \"#utility.yul\":15515:15519   */\n      0x00\n        /* \"#utility.yul\":15553:15555   */\n      0x20\n        /* \"#utility.yul\":15542:15551   */\n      dup3\n        /* \"#utility.yul\":15538:15556   */\n      add\n        /* \"#utility.yul\":15530:15556   */\n      swap1\n      pop\n        /* \"#utility.yul\":15602:15611   */\n      dup2\n        /* \"#utility.yul\":15596:15600   */\n      dup2\n        /* \"#utility.yul\":15592:15612   */\n      sub\n        /* \"#utility.yul\":15588:15589   */\n      0x00\n        /* \"#utility.yul\":15577:15586   */\n      dup4\n        /* \"#utility.yul\":15573:15590   */\n      add\n        /* \"#utility.yul\":15566:15613   */\n      mstore\n        /* \"#utility.yul\":15630:15761   */\n      tag_479\n        /* \"#utility.yul\":15756:15760   */\n      dup2\n        /* \"#utility.yul\":15630:15761   */\n      tag_290\n      jump\t// in\n    tag_479:\n        /* \"#utility.yul\":15622:15761   */\n      swap1\n      pop\n        /* \"#utility.yul\":15349:15768   */\n      swap2\n      swap1\n      pop\n      jump\t// out\n        /* \"#utility.yul\":15774:15954   */\n    tag_291:\n        /* \"#utility.yul\":15914:15946   */\n      0x49447320616e642076616c756573206c656e677468206d69736d617463680000\n        /* \"#utility.yul\":15910:15911   */\n      0x00\n        /* \"#utility.yul\":15902:15908   */\n      dup3\n        /* \"#utility.yul\":15898:15912   */\n      add\n        /* \"#utility.yul\":15891:15947   */\n      mstore\n        /* \"#utility.yul\":15774:15954   */\n      pop\n      jump\t// out\n        /* \"#utility.yul\":15960:16326   */\n    tag_292:\n        /* \"#utility.yul\":16102:16105   */\n      0x00\n        /* \"#utility.yul\":16123:16190   */\n      tag_482\n        /* \"#utility.yul\":16187:16189   */\n      0x1e\n        /* \"#utility.yul\":16182:16185   */\n      dup4\n        /* \"#utility.yul\":16123:16190   */\n      tag_286\n      jump\t// in\n    tag_482:\n        /* \"#utility.yul\":16116:16190   */\n      swap2\n      pop\n        /* \"#utility.yul\":16199:16292   */\n      tag_483\n        /* \"#utility.yul\":16288:16291   */\n      dup3\n        /* \"#utility.yul\":16199:16292   */\n      tag_291\n      jump\t// in\n    tag_483:\n        /* \"#utility.yul\":16317:16319   */\n      0x20\n        /* \"#utility.yul\":16312:16315   */\n      dup3\n        /* \"#utility.yul\":16308:16320   */\n      add\n        /* \"#utility.yul\":16301:16320   */\n      swap1\n      pop\n        /* \"#utility.yul\":15960:16326   */\n      swap2\n      swap1\n      pop\n      jump\t// out\n        /* \"#utility.yul\":16332:16751   */\n    tag_139:\n        /* \"#utility.yul\":16498:16502   */\n      0x00\n        /* \"#utility.yul\":16536:16538   */\n      0x20\n        /* \"#utility.yul\":16525:16534   */\n      dup3\n        /* \"#utility.yul\":16521:16539   */\n      add\n        /* \"#utility.yul\":16513:16539   */\n      swap1\n      pop\n        /* \"#utility.yul\":16585:16594   */\n      dup2\n        /* \"#utility.yul\":16579:16583   */\n      dup2\n        /* \"#utility.yul\":16575:16595   */\n      sub\n        /* \"#utility.yul\":16571:16572   */\n      0x00\n        /* \"#utility.yul\":16560:16569   */\n      dup4\n        /* \"#utility.yul\":16556:16573   */\n      add\n        /* \"#utility.yul\":16549:16596   */\n      mstore\n        /* \"#utility.yul\":16613:16744   */\n      tag_485\n        /* \"#utility.yul\":16739:16743   */\n      dup2\n        /* \"#utility.yul\":16613:16744   */\n      tag_292\n      jump\t// in\n    tag_485:\n        /* \"#utility.yul\":16605:16744   */\n      swap1\n      pop\n        /* \"#utility.yul\":16332:16751   */\n      swap2\n      swap1\n      pop\n      jump\t// out\n        /* \"#utility.yul\":16757:16926   */\n    tag_293:\n        /* \"#utility.yul\":16897:16918   */\n      0x455243323020746f6b656e206e6f742073657400000000000000000000000000\n        /* \"#utility.yul\":16893:16894   */\n      0x00\n        /* \"#utility.yul\":16885:16891   */\n      dup3\n        /* \"#utility.yul\":16881:16895   */\n      add\n        /* \"#utility.yul\":16874:16919   */\n      mstore\n        /* \"#utility.yul\":16757:16926   */\n      pop\n      jump\t// out\n        /* \"#utility.yul\":16932:17298   */\n    tag_294:\n        /* \"#utility.yul\":17074:17077   */\n      0x00\n        /* \"#utility.yul\":17095:17162   */\n      tag_488\n        /* \"#utility.yul\":17159:17161   */\n      0x13\n        /* \"#utility.yul\":17154:17157   */\n      dup4\n        /* \"#utility.yul\":17095:17162   */\n      tag_286\n      jump\t// in\n    tag_488:\n        /* \"#utility.yul\":17088:17162   */\n      swap2\n      pop\n        /* \"#utility.yul\":17171:17264   */\n      tag_489\n        /* \"#utility.yul\":17260:17263   */\n      dup3\n        /* \"#utility.yul\":17171:17264   */\n      tag_293\n      jump\t// in\n    tag_489:\n        /* \"#utility.yul\":17289:17291   */\n      0x20\n        /* \"#utility.yul\":17284:17287   */\n      dup3\n        /* \"#utility.yul\":17280:17292   */\n      add\n        /* \"#utility.yul\":17273:17292   */\n      swap1\n      pop\n        /* \"#utility.yul\":16932:17298   */\n      swap2\n      swap1\n      pop\n      jump\t// out\n        /* \"#utility.yul\":17304:17723   */\n    tag_142:\n        /* \"#utility.yul\":17470:17474   */\n      0x00\n        /* \"#utility.yul\":17508:17510   */\n      0x20\n        /* \"#utility.yul\":17497:17506   */\n      dup3\n        /* \"#utility.yul\":17493:17511   */\n      add\n        /* \"#utility.yul\":17485:17511   */\n      swap1\n      pop\n        /* \"#utility.yul\":17557:17566   */\n      dup2\n        /* \"#utility.yul\":17551:17555   */\n      dup2\n        /* \"#utility.yul\":17547:17567   */\n      sub\n        /* \"#utility.yul\":17543:17544   */\n      0x00\n        /* \"#utility.yul\":17532:17541   */\n      dup4\n        /* \"#utility.yul\":17528:17545   */\n      add\n        /* \"#utility.yul\":17521:17568   */\n      mstore\n        /* \"#utility.yul\":17585:17716   */\n      tag_491\n        /* \"#utility.yul\":17711:17715   */\n      dup2\n        /* \"#utility.yul\":17585:17716   */\n      tag_294\n      jump\t// in\n    tag_491:\n        /* \"#utility.yul\":17577:17716   */\n      swap1\n      pop\n        /* \"#utility.yul\":17304:17723   */\n      swap2\n      swap1\n      pop\n      jump\t// out\n        /* \"#utility.yul\":17729:17909   */\n    tag_148:\n        /* \"#utility.yul\":17777:17854   */\n      0x4e487b7100000000000000000000000000000000000000000000000000000000\n        /* \"#utility.yul\":17774:17775   */\n      0x00\n        /* \"#utility.yul\":17767:17855   */\n      mstore\n        /* \"#utility.yul\":17874:17878   */\n      0x32\n        /* \"#utility.yul\":17871:17872   */\n      0x04\n        /* \"#utility.yul\":17864:17879   */\n      mstore\n        /* \"#utility.yul\":17898:17902   */\n      0x24\n        /* \"#utility.yul\":17895:17896   */\n      0x00\n        /* \"#utility.yul\":17888:17903   */\n      revert\n        /* \"#utility.yul\":17915:18155   */\n    tag_295:\n        /* \"#utility.yul\":18055:18089   */\n      0x4f6e65206f72206d6f7265204552433131353520746f6b656e73206e6f742061\n        /* \"#utility.yul\":18051:18052   */\n      0x00\n        /* \"#utility.yul\":18043:18049   */\n      dup3\n        /* \"#utility.yul\":18039:18053   */\n      add\n        /* \"#utility.yul\":18032:18090   */\n      mstore\n        /* \"#utility.yul\":18124:18147   */\n      0x6c6c6f77656420666f7220636f6e76657273696f6e0000000000000000000000\n        /* \"#utility.yul\":18119:18121   */\n      0x20\n        /* \"#utility.yul\":18111:18117   */\n      dup3\n        /* \"#utility.yul\":18107:18122   */\n      add\n        /* \"#utility.yul\":18100:18148   */\n      mstore\n        /* \"#utility.yul\":17915:18155   */\n      pop\n      jump\t// out\n        /* \"#utility.yul\":18161:18527   */\n    tag_296:\n        /* \"#utility.yul\":18303:18306   */\n      0x00\n        /* \"#utility.yul\":18324:18391   */\n      tag_495\n        /* \"#utility.yul\":18388:18390   */\n      0x35\n        /* \"#utility.yul\":18383:18386   */\n      dup4\n        /* \"#utility.yul\":18324:18391   */\n      tag_286\n      jump\t// in\n    tag_495:\n        /* \"#utility.yul\":18317:18391   */\n      swap2\n      pop\n        /* \"#utility.yul\":18400:18493   */\n      tag_496\n        /* \"#utility.yul\":18489:18492   */\n      dup3\n        /* \"#utility.yul\":18400:18493   */\n      tag_295\n      jump\t// in\n    tag_496:\n        /* \"#utility.yul\":18518:18520   */\n      0x40\n        /* \"#utility.yul\":18513:18516   */\n      dup3\n        /* \"#utility.yul\":18509:18521   */\n      add\n        /* \"#utility.yul\":18502:18521   */\n      swap1\n      pop\n        /* \"#utility.yul\":18161:18527   */\n      swap2\n      swap1\n      pop\n      jump\t// out\n        /* \"#utility.yul\":18533:18952   */\n    tag_151:\n        /* \"#utility.yul\":18699:18703   */\n      0x00\n        /* \"#utility.yul\":18737:18739   */\n      0x20\n        /* \"#utility.yul\":18726:18735   */\n      dup3\n        /* \"#utility.yul\":18722:18740   */\n      add\n        /* \"#utility.yul\":18714:18740   */\n      swap1\n      pop\n        /* \"#utility.yul\":18786:18795   */\n      dup2\n        /* \"#utility.yul\":18780:18784   */\n      dup2\n        /* \"#utility.yul\":18776:18796   */\n      sub\n        /* \"#utility.yul\":18772:18773   */\n      0x00\n        /* \"#utility.yul\":18761:18770   */\n      dup4\n        /* \"#utility.yul\":18757:18774   */\n      add\n        /* \"#utility.yul\":18750:18797   */\n      mstore\n        /* \"#utility.yul\":18814:18945   */\n      tag_498\n        /* \"#utility.yul\":18940:18944   */\n      dup2\n        /* \"#utility.yul\":18814:18945   */\n      tag_296\n      jump\t// in\n    tag_498:\n        /* \"#utility.yul\":18806:18945   */\n      swap1\n      pop\n        /* \"#utility.yul\":18533:18952   */\n      swap2\n      swap1\n      pop\n      jump\t// out\n        /* \"#utility.yul\":18958:19290   */\n    tag_155:\n        /* \"#utility.yul\":19079:19083   */\n      0x00\n        /* \"#utility.yul\":19117:19119   */\n      0x40\n        /* \"#utility.yul\":19106:19115   */\n      dup3\n        /* \"#utility.yul\":19102:19120   */\n      add\n        /* \"#utility.yul\":19094:19120   */\n      swap1\n      pop\n        /* \"#utility.yul\":19130:19201   */\n      tag_500\n        /* \"#utility.yul\":19198:19199   */\n      0x00\n        /* \"#utility.yul\":19187:19196   */\n      dup4\n        /* \"#utility.yul\":19183:19200   */\n      add\n        /* \"#utility.yul\":19174:19180   */\n      dup6\n        /* \"#utility.yul\":19130:19201   */\n      tag_264\n      jump\t// in\n    tag_500:\n        /* \"#utility.yul\":19211:19283   */\n      tag_501\n        /* \"#utility.yul\":19279:19281   */\n      0x20\n        /* \"#utility.yul\":19268:19277   */\n      dup4\n        /* \"#utility.yul\":19264:19282   */\n      add\n        /* \"#utility.yul\":19255:19261   */\n      dup5\n        /* \"#utility.yul\":19211:19283   */\n      tag_265\n      jump\t// in\n    tag_501:\n        /* \"#utility.yul\":18958:19290   */\n      swap4\n      swap3\n      pop\n      pop\n      pop\n      jump\t// out\n        /* \"#utility.yul\":19296:19628   */\n    tag_164:\n        /* \"#utility.yul\":19417:19421   */\n      0x00\n        /* \"#utility.yul\":19455:19457   */\n      0x40\n        /* \"#utility.yul\":19444:19453   */\n      dup3\n        /* \"#utility.yul\":19440:19458   */\n      add\n        /* \"#utility.yul\":19432:19458   */\n      swap1\n      pop\n        /* \"#utility.yul\":19468:19539   */\n      tag_503\n        /* \"#utility.yul\":19536:19537   */\n      0x00\n        /* \"#utility.yul\":19525:19534   */\n      dup4\n        /* \"#utility.yul\":19521:19538   */\n      add\n        /* \"#utility.yul\":19512:19518   */\n      dup6\n        /* \"#utility.yul\":19468:19539   */\n      tag_265\n      jump\t// in\n    tag_503:\n        /* \"#utility.yul\":19549:19621   */\n      tag_504\n        /* \"#utility.yul\":19617:19619   */\n      0x20\n        /* \"#utility.yul\":19606:19615   */\n      dup4\n        /* \"#utility.yul\":19602:19620   */\n      add\n        /* \"#utility.yul\":19593:19599   */\n      dup5\n        /* \"#utility.yul\":19549:19621   */\n      tag_265\n      jump\t// in\n    tag_504:\n        /* \"#utility.yul\":19296:19628   */\n      swap4\n      swap3\n      pop\n      pop\n      pop\n      jump\t// out\n        /* \"#utility.yul\":19634:19811   */\n    tag_297:\n        /* \"#utility.yul\":19774:19803   */\n      0x496e76616c696420455243323020746f6b656e20616464726573730000000000\n        /* \"#utility.yul\":19770:19771   */\n      0x00\n        /* \"#utility.yul\":19762:19768   */\n      dup3\n        /* \"#utility.yul\":19758:19772   */\n      add\n        /* \"#utility.yul\":19751:19804   */\n      mstore\n        /* \"#utility.yul\":19634:19811   */\n      pop\n      jump\t// out\n        /* \"#utility.yul\":19817:20183   */\n    tag_298:\n        /* \"#utility.yul\":19959:19962   */\n      0x00\n        /* \"#utility.yul\":19980:20047   */\n      tag_507\n        /* \"#utility.yul\":20044:20046   */\n      0x1b\n        /* \"#utility.yul\":20039:20042   */\n      dup4\n        /* \"#utility.yul\":19980:20047   */\n      tag_286\n      jump\t// in\n    tag_507:\n        /* \"#utility.yul\":19973:20047   */\n      swap2\n      pop\n        /* \"#utility.yul\":20056:20149   */\n      tag_508\n        /* \"#utility.yul\":20145:20148   */\n      dup3\n        /* \"#utility.yul\":20056:20149   */\n      tag_297\n      jump\t// in\n    tag_508:\n        /* \"#utility.yul\":20174:20176   */\n      0x20\n        /* \"#utility.yul\":20169:20172   */\n      dup3\n        /* \"#utility.yul\":20165:20177   */\n      add\n        /* \"#utility.yul\":20158:20177   */\n      swap1\n      pop\n        /* \"#utility.yul\":19817:20183   */\n      swap2\n      swap1\n      pop\n      jump\t// out\n        /* \"#utility.yul\":20189:20608   */\n    tag_174:\n        /* \"#utility.yul\":20355:20359   */\n      0x00\n        /* \"#utility.yul\":20393:20395   */\n      0x20\n        /* \"#utility.yul\":20382:20391   */\n      dup3\n        /* \"#utility.yul\":20378:20396   */\n      add\n        /* \"#utility.yul\":20370:20396   */\n      swap1\n      pop\n        /* \"#utility.yul\":20442:20451   */\n      dup2\n        /* \"#utility.yul\":20436:20440   */\n      dup2\n        /* \"#utility.yul\":20432:20452   */\n      sub\n        /* \"#utility.yul\":20428:20429   */\n      0x00\n        /* \"#utility.yul\":20417:20426   */\n      dup4\n        /* \"#utility.yul\":20413:20430   */\n      add\n        /* \"#utility.yul\":20406:20453   */\n      mstore\n        /* \"#utility.yul\":20470:20601   */\n      tag_510\n        /* \"#utility.yul\":20596:20600   */\n      dup2\n        /* \"#utility.yul\":20470:20601   */\n      tag_298\n      jump\t// in\n    tag_510:\n        /* \"#utility.yul\":20462:20601   */\n      swap1\n      pop\n        /* \"#utility.yul\":20189:20608   */\n      swap2\n      swap1\n      pop\n      jump\t// out\n        /* \"#utility.yul\":20614:20846   */\n    tag_299:\n        /* \"#utility.yul\":20754:20788   */\n      0x436f6e76657273696f6e206e6f7420616c6c6f77656420666f72207468697320\n        /* \"#utility.yul\":20750:20751   */\n      0x00\n        /* \"#utility.yul\":20742:20748   */\n      dup3\n        /* \"#utility.yul\":20738:20752   */\n      add\n        /* \"#utility.yul\":20731:20789   */\n      mstore\n        /* \"#utility.yul\":20823:20838   */\n      0x4552433131353520746f6b656e00000000000000000000000000000000000000\n        /* \"#utility.yul\":20818:20820   */\n      0x20\n        /* \"#utility.yul\":20810:20816   */\n      dup3\n        /* \"#utility.yul\":20806:20821   */\n      add\n        /* \"#utility.yul\":20799:20839   */\n      mstore\n        /* \"#utility.yul\":20614:20846   */\n      pop\n      jump\t// out\n        /* \"#utility.yul\":20852:21218   */\n    tag_300:\n        /* \"#utility.yul\":20994:20997   */\n      0x00\n        /* \"#utility.yul\":21015:21082   */\n      tag_513\n        /* \"#utility.yul\":21079:21081   */\n      0x2d\n        /* \"#utility.yul\":21074:21077   */\n      dup4\n        /* \"#utility.yul\":21015:21082   */\n      tag_286\n      jump\t// in\n    tag_513:\n        /* \"#utility.yul\":21008:21082   */\n      swap2\n      pop\n        /* \"#utility.yul\":21091:21184   */\n      tag_514\n        /* \"#utility.yul\":21180:21183   */\n      dup3\n        /* \"#utility.yul\":21091:21184   */\n      tag_299\n      jump\t// in\n    tag_514:\n        /* \"#utility.yul\":21209:21211   */\n      0x40\n        /* \"#utility.yul\":21204:21207   */\n      dup3\n        /* \"#utility.yul\":21200:21212   */\n      add\n        /* \"#utility.yul\":21193:21212   */\n      swap1\n      pop\n        /* \"#utility.yul\":20852:21218   */\n      swap2\n      swap1\n      pop\n      jump\t// out\n        /* \"#utility.yul\":21224:21643   */\n    tag_178:\n        /* \"#utility.yul\":21390:21394   */\n      0x00\n        /* \"#utility.yul\":21428:21430   */\n      0x20\n        /* \"#utility.yul\":21417:21426   */\n      dup3\n        /* \"#utility.yul\":21413:21431   */\n      add\n        /* \"#utility.yul\":21405:21431   */\n      swap1\n      pop\n        /* \"#utility.yul\":21477:21486   */\n      dup2\n        /* \"#utility.yul\":21471:21475   */\n      dup2\n        /* \"#utility.yul\":21467:21487   */\n      sub\n        /* \"#utility.yul\":21463:21464   */\n      0x00\n        /* \"#utility.yul\":21452:21461   */\n      dup4\n        /* \"#utility.yul\":21448:21465   */\n      add\n        /* \"#utility.yul\":21441:21488   */\n      mstore\n        /* \"#utility.yul\":21505:21636   */\n      tag_516\n        /* \"#utility.yul\":21631:21635   */\n      dup2\n        /* \"#utility.yul\":21505:21636   */\n      tag_300\n      jump\t// in\n    tag_516:\n        /* \"#utility.yul\":21497:21636   */\n      swap1\n      pop\n        /* \"#utility.yul\":21224:21643   */\n      swap2\n      swap1\n      pop\n      jump\t// out\n        /* \"#utility.yul\":21649:21831   */\n    tag_301:\n        /* \"#utility.yul\":21789:21823   */\n      0x416d6f756e74206d7573742062652067726561746572207468616e207a65726f\n        /* \"#utility.yul\":21785:21786   */\n      0x00\n        /* \"#utility.yul\":21777:21783   */\n      dup3\n        /* \"#utility.yul\":21773:21787   */\n      add\n        /* \"#utility.yul\":21766:21824   */\n      mstore\n        /* \"#utility.yul\":21649:21831   */\n      pop\n      jump\t// out\n        /* \"#utility.yul\":21837:22203   */\n    tag_302:\n        /* \"#utility.yul\":21979:21982   */\n      0x00\n        /* \"#utility.yul\":22000:22067   */\n      tag_519\n        /* \"#utility.yul\":22064:22066   */\n      0x20\n        /* \"#utility.yul\":22059:22062   */\n      dup4\n        /* \"#utility.yul\":22000:22067   */\n      tag_286\n      jump\t// in\n    tag_519:\n        /* \"#utility.yul\":21993:22067   */\n      swap2\n      pop\n        /* \"#utility.yul\":22076:22169   */\n      tag_520\n        /* \"#utility.yul\":22165:22168   */\n      dup3\n        /* \"#utility.yul\":22076:22169   */\n      tag_301\n      jump\t// in\n    tag_520:\n        /* \"#utility.yul\":22194:22196   */\n      0x20\n        /* \"#utility.yul\":22189:22192   */\n      dup3\n        /* \"#utility.yul\":22185:22197   */\n      add\n        /* \"#utility.yul\":22178:22197   */\n      swap1\n      pop\n        /* \"#utility.yul\":21837:22203   */\n      swap2\n      swap1\n      pop\n      jump\t// out\n        /* \"#utility.yul\":22209:22628   */\n    tag_181:\n        /* \"#utility.yul\":22375:22379   */\n      0x00\n        /* \"#utility.yul\":22413:22415   */\n      0x20\n        /* \"#utility.yul\":22402:22411   */\n      dup3\n        /* \"#utility.yul\":22398:22416   */\n      add\n        /* \"#utility.yul\":22390:22416   */\n      swap1\n      pop\n        /* \"#utility.yul\":22462:22471   */\n      dup2\n        /* \"#utility.yul\":22456:22460   */\n      dup2\n        /* \"#utility.yul\":22452:22472   */\n      sub\n        /* \"#utility.yul\":22448:22449   */\n      0x00\n        /* \"#utility.yul\":22437:22446   */\n      dup4\n        /* \"#utility.yul\":22433:22450   */\n      add\n        /* \"#utility.yul\":22426:22473   */\n      mstore\n        /* \"#utility.yul\":22490:22621   */\n      tag_522\n        /* \"#utility.yul\":22616:22620   */\n      dup2\n        /* \"#utility.yul\":22490:22621   */\n      tag_302\n      jump\t// in\n    tag_522:\n        /* \"#utility.yul\":22482:22621   */\n      swap1\n      pop\n        /* \"#utility.yul\":22209:22628   */\n      swap2\n      swap1\n      pop\n      jump\t// out\n        /* \"#utility.yul\":22634:23076   */\n    tag_185:\n        /* \"#utility.yul\":22783:22787   */\n      0x00\n        /* \"#utility.yul\":22821:22823   */\n      0x60\n        /* \"#utility.yul\":22810:22819   */\n      dup3\n        /* \"#utility.yul\":22806:22824   */\n      add\n        /* \"#utility.yul\":22798:22824   */\n      swap1\n      pop\n        /* \"#utility.yul\":22834:22905   */\n      tag_524\n        /* \"#utility.yul\":22902:22903   */\n      0x00\n        /* \"#utility.yul\":22891:22900   */\n      dup4\n        /* \"#utility.yul\":22887:22904   */\n      add\n        /* \"#utility.yul\":22878:22884   */\n      dup7\n        /* \"#utility.yul\":22834:22905   */\n      tag_264\n      jump\t// in\n    tag_524:\n        /* \"#utility.yul\":22915:22987   */\n      tag_525\n        /* \"#utility.yul\":22983:22985   */\n      0x20\n        /* \"#utility.yul\":22972:22981   */\n      dup4\n        /* \"#utility.yul\":22968:22986   */\n      add\n        /* \"#utility.yul\":22959:22965   */\n      dup6\n        /* \"#utility.yul\":22915:22987   */\n      tag_264\n      jump\t// in\n    tag_525:\n        /* \"#utility.yul\":22997:23069   */\n      tag_526\n        /* \"#utility.yul\":23065:23067   */\n      0x40\n        /* \"#utility.yul\":23054:23063   */\n      dup4\n        /* \"#utility.yul\":23050:23068   */\n      add\n        /* \"#utility.yul\":23041:23047   */\n      dup5\n        /* \"#utility.yul\":22997:23069   */\n      tag_265\n      jump\t// in\n    tag_526:\n        /* \"#utility.yul\":22634:23076   */\n      swap5\n      swap4\n      pop\n      pop\n      pop\n      pop\n      jump\t// out\n        /* \"#utility.yul\":23082:23198   */\n    tag_303:\n        /* \"#utility.yul\":23152:23173   */\n      tag_528\n        /* \"#utility.yul\":23167:23172   */\n      dup2\n        /* \"#utility.yul\":23152:23173   */\n      tag_255\n      jump\t// in\n    tag_528:\n        /* \"#utility.yul\":23145:23150   */\n      dup2\n        /* \"#utility.yul\":23142:23174   */\n      eq\n        /* \"#utility.yul\":23132:23192   */\n      tag_529\n      jumpi\n        /* \"#utility.yul\":23188:23189   */\n      0x00\n        /* \"#utility.yul\":23185:23186   */\n      dup1\n        /* \"#utility.yul\":23178:23190   */\n      revert\n        /* \"#utility.yul\":23132:23192   */\n    tag_529:\n        /* \"#utility.yul\":23082:23198   */\n      pop\n      jump\t// out\n        /* \"#utility.yul\":23204:23341   */\n    tag_304:\n        /* \"#utility.yul\":23258:23263   */\n      0x00\n        /* \"#utility.yul\":23289:23295   */\n      dup2\n        /* \"#utility.yul\":23283:23296   */\n      mload\n        /* \"#utility.yul\":23274:23296   */\n      swap1\n      pop\n        /* \"#utility.yul\":23305:23335   */\n      tag_531\n        /* \"#utility.yul\":23329:23334   */\n      dup2\n        /* \"#utility.yul\":23305:23335   */\n      tag_303\n      jump\t// in\n    tag_531:\n        /* \"#utility.yul\":23204:23341   */\n      swap3\n      swap2\n      pop\n      pop\n      jump\t// out\n        /* \"#utility.yul\":23347:23692   */\n    tag_189:\n        /* \"#utility.yul\":23414:23420   */\n      0x00\n        /* \"#utility.yul\":23463:23465   */\n      0x20\n        /* \"#utility.yul\":23451:23460   */\n      dup3\n        /* \"#utility.yul\":23442:23449   */\n      dup5\n        /* \"#utility.yul\":23438:23461   */\n      sub\n        /* \"#utility.yul\":23434:23466   */\n      slt\n        /* \"#utility.yul\":23431:23550   */\n      iszero\n      tag_533\n      jumpi\n        /* \"#utility.yul\":23469:23548   */\n      tag_534\n      tag_250\n      jump\t// in\n    tag_534:\n        /* \"#utility.yul\":23431:23550   */\n    tag_533:\n        /* \"#utility.yul\":23589:23590   */\n      0x00\n        /* \"#utility.yul\":23614:23675   */\n      tag_535\n        /* \"#utility.yul\":23667:23674   */\n      dup5\n        /* \"#utility.yul\":23658:23664   */\n      dup3\n        /* \"#utility.yul\":23647:23656   */\n      dup6\n        /* \"#utility.yul\":23643:23665   */\n      add\n        /* \"#utility.yul\":23614:23675   */\n      tag_304\n      jump\t// in\n    tag_535:\n        /* \"#utility.yul\":23604:23675   */\n      swap2\n      pop\n        /* \"#utility.yul\":23560:23685   */\n      pop\n        /* \"#utility.yul\":23347:23692   */\n      swap3\n      swap2\n      pop\n      pop\n      jump\t// out\n        /* \"#utility.yul\":23698:23869   */\n    tag_305:\n        /* \"#utility.yul\":23838:23861   */\n      0x4552433230207472616e73666572206661696c65640000000000000000000000\n        /* \"#utility.yul\":23834:23835   */\n      0x00\n        /* \"#utility.yul\":23826:23832   */\n      dup3\n        /* \"#utility.yul\":23822:23836   */\n      add\n        /* \"#utility.yul\":23815:23862   */\n      mstore\n        /* \"#utility.yul\":23698:23869   */\n      pop\n      jump\t// out\n        /* \"#utility.yul\":23875:24241   */\n    tag_306:\n        /* \"#utility.yul\":24017:24020   */\n      0x00\n        /* \"#utility.yul\":24038:24105   */\n      tag_538\n        /* \"#utility.yul\":24102:24104   */\n      0x15\n        /* \"#utility.yul\":24097:24100   */\n      dup4\n        /* \"#utility.yul\":24038:24105   */\n      tag_286\n      jump\t// in\n    tag_538:\n        /* \"#utility.yul\":24031:24105   */\n      swap2\n      pop\n        /* \"#utility.yul\":24114:24207   */\n      tag_539\n        /* \"#utility.yul\":24203:24206   */\n      dup3\n        /* \"#utility.yul\":24114:24207   */\n      tag_305\n      jump\t// in\n    tag_539:\n        /* \"#utility.yul\":24232:24234   */\n      0x20\n        /* \"#utility.yul\":24227:24230   */\n      dup3\n        /* \"#utility.yul\":24223:24235   */\n      add\n        /* \"#utility.yul\":24216:24235   */\n      swap1\n      pop\n        /* \"#utility.yul\":23875:24241   */\n      swap2\n      swap1\n      pop\n      jump\t// out\n        /* \"#utility.yul\":24247:24666   */\n    tag_192:\n        /* \"#utility.yul\":24413:24417   */\n      0x00\n        /* \"#utility.yul\":24451:24453   */\n      0x20\n        /* \"#utility.yul\":24440:24449   */\n      dup3\n        /* \"#utility.yul\":24436:24454   */\n      add\n        /* \"#utility.yul\":24428:24454   */\n      swap1\n      pop\n        /* \"#utility.yul\":24500:24509   */\n      dup2\n        /* \"#utility.yul\":24494:24498   */\n      dup2\n        /* \"#utility.yul\":24490:24510   */\n      sub\n        /* \"#utility.yul\":24486:24487   */\n      0x00\n        /* \"#utility.yul\":24475:24484   */\n      dup4\n        /* \"#utility.yul\":24471:24488   */\n      add\n        /* \"#utility.yul\":24464:24511   */\n      mstore\n        /* \"#utility.yul\":24528:24659   */\n      tag_541\n        /* \"#utility.yul\":24654:24658   */\n      dup2\n        /* \"#utility.yul\":24528:24659   */\n      tag_306\n      jump\t// in\n    tag_541:\n        /* \"#utility.yul\":24520:24659   */\n      swap1\n      pop\n        /* \"#utility.yul\":24247:24666   */\n      swap2\n      swap1\n      pop\n      jump\t// out\n        /* \"#utility.yul\":24672:24894   */\n    tag_194:\n        /* \"#utility.yul\":24765:24769   */\n      0x00\n        /* \"#utility.yul\":24803:24805   */\n      0x20\n        /* \"#utility.yul\":24792:24801   */\n      dup3\n        /* \"#utility.yul\":24788:24806   */\n      add\n        /* \"#utility.yul\":24780:24806   */\n      swap1\n      pop\n        /* \"#utility.yul\":24816:24887   */\n      tag_543\n        /* \"#utility.yul\":24884:24885   */\n      0x00\n        /* \"#utility.yul\":24873:24882   */\n      dup4\n        /* \"#utility.yul\":24869:24886   */\n      add\n        /* \"#utility.yul\":24860:24866   */\n      dup5\n        /* \"#utility.yul\":24816:24887   */\n      tag_265\n      jump\t// in\n    tag_543:\n        /* \"#utility.yul\":24672:24894   */\n      swap3\n      swap2\n      pop\n      pop\n      jump\t// out\n        /* \"#utility.yul\":24900:25068   */\n    tag_307:\n        /* \"#utility.yul\":24983:24994   */\n      0x00\n        /* \"#utility.yul\":25017:25023   */\n      dup3\n        /* \"#utility.yul\":25012:25015   */\n      dup3\n        /* \"#utility.yul\":25005:25024   */\n      mstore\n        /* \"#utility.yul\":25057:25061   */\n      0x20\n        /* \"#utility.yul\":25052:25055   */\n      dup3\n        /* \"#utility.yul\":25048:25062   */\n      add\n        /* \"#utility.yul\":25033:25062   */\n      swap1\n      pop\n        /* \"#utility.yul\":24900:25068   */\n      swap3\n      swap2\n      pop\n      pop\n      jump\t// out\n        /* \"#utility.yul\":25074:25188   */\n    tag_308:\n      pop\n      jump\t// out\n        /* \"#utility.yul\":25194:25556   */\n    tag_309:\n        /* \"#utility.yul\":25335:25338   */\n      0x00\n        /* \"#utility.yul\":25356:25421   */\n      tag_547\n        /* \"#utility.yul\":25419:25420   */\n      0x00\n        /* \"#utility.yul\":25414:25417   */\n      dup4\n        /* \"#utility.yul\":25356:25421   */\n      tag_307\n      jump\t// in\n    tag_547:\n        /* \"#utility.yul\":25349:25421   */\n      swap2\n      pop\n        /* \"#utility.yul\":25430:25523   */\n      tag_548\n        /* \"#utility.yul\":25519:25522   */\n      dup3\n        /* \"#utility.yul\":25430:25523   */\n      tag_308\n      jump\t// in\n    tag_548:\n        /* \"#utility.yul\":25548:25549   */\n      0x00\n        /* \"#utility.yul\":25543:25546   */\n      dup3\n        /* \"#utility.yul\":25539:25550   */\n      add\n        /* \"#utility.yul\":25532:25550   */\n      swap1\n      pop\n        /* \"#utility.yul\":25194:25556   */\n      swap2\n      swap1\n      pop\n      jump\t// out\n        /* \"#utility.yul\":25562:26310   */\n    tag_199:\n        /* \"#utility.yul\":25811:25815   */\n      0x00\n        /* \"#utility.yul\":25849:25852   */\n      0x80\n        /* \"#utility.yul\":25838:25847   */\n      dup3\n        /* \"#utility.yul\":25834:25853   */\n      add\n        /* \"#utility.yul\":25826:25853   */\n      swap1\n      pop\n        /* \"#utility.yul\":25863:25934   */\n      tag_550\n        /* \"#utility.yul\":25931:25932   */\n      0x00\n        /* \"#utility.yul\":25920:25929   */\n      dup4\n        /* \"#utility.yul\":25916:25933   */\n      add\n        /* \"#utility.yul\":25907:25913   */\n      dup7\n        /* \"#utility.yul\":25863:25934   */\n      tag_264\n      jump\t// in\n    tag_550:\n        /* \"#utility.yul\":25944:26016   */\n      tag_551\n        /* \"#utility.yul\":26012:26014   */\n      0x20\n        /* \"#utility.yul\":26001:26010   */\n      dup4\n        /* \"#utility.yul\":25997:26015   */\n      add\n        /* \"#utility.yul\":25988:25994   */\n      dup6\n        /* \"#utility.yul\":25944:26016   */\n      tag_265\n      jump\t// in\n    tag_551:\n        /* \"#utility.yul\":26026:26098   */\n      tag_552\n        /* \"#utility.yul\":26094:26096   */\n      0x40\n        /* \"#utility.yul\":26083:26092   */\n      dup4\n        /* \"#utility.yul\":26079:26097   */\n      add\n        /* \"#utility.yul\":26070:26076   */\n      dup5\n        /* \"#utility.yul\":26026:26098   */\n      tag_265\n      jump\t// in\n    tag_552:\n        /* \"#utility.yul\":26145:26154   */\n      dup2\n        /* \"#utility.yul\":26139:26143   */\n      dup2\n        /* \"#utility.yul\":26135:26155   */\n      sub\n        /* \"#utility.yul\":26130:26132   */\n      0x60\n        /* \"#utility.yul\":26119:26128   */\n      dup4\n        /* \"#utility.yul\":26115:26133   */\n      add\n        /* \"#utility.yul\":26108:26156   */\n      mstore\n        /* \"#utility.yul\":26173:26303   */\n      tag_553\n        /* \"#utility.yul\":26298:26302   */\n      dup2\n        /* \"#utility.yul\":26173:26303   */\n      tag_309\n      jump\t// in\n    tag_553:\n        /* \"#utility.yul\":26165:26303   */\n      swap1\n      pop\n        /* \"#utility.yul\":25562:26310   */\n      swap5\n      swap4\n      pop\n      pop\n      pop\n      pop\n      jump\t// out\n        /* \"#utility.yul\":26316:26543   */\n    tag_310:\n        /* \"#utility.yul\":26456:26490   */\n      0x4552433131353520746f6b656e206e6f7420616c6c6f77656420666f7220636f\n        /* \"#utility.yul\":26452:26453   */\n      0x00\n        /* \"#utility.yul\":26444:26450   */\n      dup3\n        /* \"#utility.yul\":26440:26454   */\n      add\n        /* \"#utility.yul\":26433:26491   */\n      mstore\n        /* \"#utility.yul\":26525:26535   */\n      0x6e76657273696f6e000000000000000000000000000000000000000000000000\n        /* \"#utility.yul\":26520:26522   */\n      0x20\n        /* \"#utility.yul\":26512:26518   */\n      dup3\n        /* \"#utility.yul\":26508:26523   */\n      add\n        /* \"#utility.yul\":26501:26536   */\n      mstore\n        /* \"#utility.yul\":26316:26543   */\n      pop\n      jump\t// out\n        /* \"#utility.yul\":26549:26915   */\n    tag_311:\n        /* \"#utility.yul\":26691:26694   */\n      0x00\n        /* \"#utility.yul\":26712:26779   */\n      tag_556\n        /* \"#utility.yul\":26776:26778   */\n      0x28\n        /* \"#utility.yul\":26771:26774   */\n      dup4\n        /* \"#utility.yul\":26712:26779   */\n      tag_286\n      jump\t// in\n    tag_556:\n        /* \"#utility.yul\":26705:26779   */\n      swap2\n      pop\n        /* \"#utility.yul\":26788:26881   */\n      tag_557\n        /* \"#utility.yul\":26877:26880   */\n      dup3\n        /* \"#utility.yul\":26788:26881   */\n      tag_310\n      jump\t// in\n    tag_557:\n        /* \"#utility.yul\":26906:26908   */\n      0x40\n        /* \"#utility.yul\":26901:26904   */\n      dup3\n        /* \"#utility.yul\":26897:26909   */\n      add\n        /* \"#utility.yul\":26890:26909   */\n      swap1\n      pop\n        /* \"#utility.yul\":26549:26915   */\n      swap2\n      swap1\n      pop\n      jump\t// out\n        /* \"#utility.yul\":26921:27340   */\n    tag_214:\n        /* \"#utility.yul\":27087:27091   */\n      0x00\n        /* \"#utility.yul\":27125:27127   */\n      0x20\n        /* \"#utility.yul\":27114:27123   */\n      dup3\n        /* \"#utility.yul\":27110:27128   */\n      add\n        /* \"#utility.yul\":27102:27128   */\n      swap1\n      pop\n        /* \"#utility.yul\":27174:27183   */\n      dup2\n        /* \"#utility.yul\":27168:27172   */\n      dup2\n        /* \"#utility.yul\":27164:27184   */\n      sub\n        /* \"#utility.yul\":27160:27161   */\n      0x00\n        /* \"#utility.yul\":27149:27158   */\n      dup4\n        /* \"#utility.yul\":27145:27162   */\n      add\n        /* \"#utility.yul\":27138:27185   */\n      mstore\n        /* \"#utility.yul\":27202:27333   */\n      tag_559\n        /* \"#utility.yul\":27328:27332   */\n      dup2\n        /* \"#utility.yul\":27202:27333   */\n      tag_311\n      jump\t// in\n    tag_559:\n        /* \"#utility.yul\":27194:27333   */\n      swap1\n      pop\n        /* \"#utility.yul\":26921:27340   */\n      swap2\n      swap1\n      pop\n      jump\t// out\n        /* \"#utility.yul\":27346:27519   */\n    tag_312:\n        /* \"#utility.yul\":27486:27511   */\n      0x455243323020746f6b656e206e6f7420646566696e6564000000000000000000\n        /* \"#utility.yul\":27482:27483   */\n      0x00\n        /* \"#utility.yul\":27474:27480   */\n      dup3\n        /* \"#utility.yul\":27470:27484   */\n      add\n        /* \"#utility.yul\":27463:27512   */\n      mstore\n        /* \"#utility.yul\":27346:27519   */\n      pop\n      jump\t// out\n        /* \"#utility.yul\":27525:27891   */\n    tag_313:\n        /* \"#utility.yul\":27667:27670   */\n      0x00\n        /* \"#utility.yul\":27688:27755   */\n      tag_562\n        /* \"#utility.yul\":27752:27754   */\n      0x17\n        /* \"#utility.yul\":27747:27750   */\n      dup4\n        /* \"#utility.yul\":27688:27755   */\n      tag_286\n      jump\t// in\n    tag_562:\n        /* \"#utility.yul\":27681:27755   */\n      swap2\n      pop\n        /* \"#utility.yul\":27764:27857   */\n      tag_563\n        /* \"#utility.yul\":27853:27856   */\n      dup3\n        /* \"#utility.yul\":27764:27857   */\n      tag_312\n      jump\t// in\n    tag_563:\n        /* \"#utility.yul\":27882:27884   */\n      0x20\n        /* \"#utility.yul\":27877:27880   */\n      dup3\n        /* \"#utility.yul\":27873:27885   */\n      add\n        /* \"#utility.yul\":27866:27885   */\n      swap1\n      pop\n        /* \"#utility.yul\":27525:27891   */\n      swap2\n      swap1\n      pop\n      jump\t// out\n        /* \"#utility.yul\":27897:28316   */\n    tag_239:\n        /* \"#utility.yul\":28063:28067   */\n      0x00\n        /* \"#utility.yul\":28101:28103   */\n      0x20\n        /* \"#utility.yul\":28090:28099   */\n      dup3\n        /* \"#utility.yul\":28086:28104   */\n      add\n        /* \"#utility.yul\":28078:28104   */\n      swap1\n      pop\n        /* \"#utility.yul\":28150:28159   */\n      dup2\n        /* \"#utility.yul\":28144:28148   */\n      dup2\n        /* \"#utility.yul\":28140:28160   */\n      sub\n        /* \"#utility.yul\":28136:28137   */\n      0x00\n        /* \"#utility.yul\":28125:28134   */\n      dup4\n        /* \"#utility.yul\":28121:28138   */\n      add\n        /* \"#utility.yul\":28114:28161   */\n      mstore\n        /* \"#utility.yul\":28178:28309   */\n      tag_565\n        /* \"#utility.yul\":28304:28308   */\n      dup2\n        /* \"#utility.yul\":28178:28309   */\n      tag_313\n      jump\t// in\n    tag_565:\n        /* \"#utility.yul\":28170:28309   */\n      swap1\n      pop\n        /* \"#utility.yul\":27897:28316   */\n      swap2\n      swap1\n      pop\n      jump\t// out\n        /* \"#utility.yul\":28322:28764   */\n    tag_247:\n        /* \"#utility.yul\":28471:28475   */\n      0x00\n        /* \"#utility.yul\":28509:28511   */\n      0x60\n        /* \"#utility.yul\":28498:28507   */\n      dup3\n        /* \"#utility.yul\":28494:28512   */\n      add\n        /* \"#utility.yul\":28486:28512   */\n      swap1\n      pop\n        /* \"#utility.yul\":28522:28593   */\n      tag_567\n        /* \"#utility.yul\":28590:28591   */\n      0x00\n        /* \"#utility.yul\":28579:28588   */\n      dup4\n        /* \"#utility.yul\":28575:28592   */\n      add\n        /* \"#utility.yul\":28566:28572   */\n      dup7\n        /* \"#utility.yul\":28522:28593   */\n      tag_265\n      jump\t// in\n    tag_567:\n        /* \"#utility.yul\":28603:28675   */\n      tag_568\n        /* \"#utility.yul\":28671:28673   */\n      0x20\n        /* \"#utility.yul\":28660:28669   */\n      dup4\n        /* \"#utility.yul\":28656:28674   */\n      add\n        /* \"#utility.yul\":28647:28653   */\n      dup6\n        /* \"#utility.yul\":28603:28675   */\n      tag_265\n      jump\t// in\n    tag_568:\n        /* \"#utility.yul\":28685:28757   */\n      tag_569\n        /* \"#utility.yul\":28753:28755   */\n      0x40\n        /* \"#utility.yul\":28742:28751   */\n      dup4\n        /* \"#utility.yul\":28738:28756   */\n      add\n        /* \"#utility.yul\":28729:28735   */\n      dup5\n        /* \"#utility.yul\":28685:28757   */\n      tag_265\n      jump\t// in\n    tag_569:\n        /* \"#utility.yul\":28322:28764   */\n      swap5\n      swap4\n      pop\n      pop\n      pop\n      pop\n      jump\t// out\n\n    auxdata: 0xa26469706673582212200b65ff57e9097ea226c6a0cec728df58cd48db633b020281aa076e66d9250d2664736f6c63430008190033\n}\n",
				"bytecode": {
					"linkReferences": {},
					"object": "608060405234801561000f575f80fd5b50335f73ffffffffffffffffffffffffffffffffffffffff168173ffffffffffffffffffffffffffffffffffffffff1603610081575f6040517f1e4fbdf70000000000000000000000000000000000000000000000000000000081526004016100789190610196565b60405180910390fd5b6100908161009660201b60201c565b506101af565b5f805f9054906101000a900473ffffffffffffffffffffffffffffffffffffffff169050815f806101000a81548173ffffffffffffffffffffffffffffffffffffffff021916908373ffffffffffffffffffffffffffffffffffffffff1602179055508173ffffffffffffffffffffffffffffffffffffffff168173ffffffffffffffffffffffffffffffffffffffff167f8be0079c531659141344cd1fd0a4f28419497f9722a3daafe3b4186f6b6457e060405160405180910390a35050565b5f73ffffffffffffffffffffffffffffffffffffffff82169050919050565b5f61018082610157565b9050919050565b61019081610176565b82525050565b5f6020820190506101a95f830184610187565b92915050565b6129b2806101bc5f395ff3fe608060405234801561000f575f80fd5b506004361061011f575f3560e01c80639c3c4345116100ab578063df84aae91161006f578063df84aae914610334578063ea6a5b0e14610350578063f23a6e611461036c578063f2fde38b1461039c578063fce3fb2f146103b85761011f565b80639c3c43451461027c578063b1fd0a4214610298578063bc197c81146102cc578063c953e56e146102fc578063de562487146103185761011f565b806358be702f116100f257806358be702f146101ea578063652ca87e1461021a578063715018a6146102365780638a13eea7146102405780638da5cb5b1461025e5761011f565b806301ffc9a7146101235780630fcd1e841461015357806315614d5d14610183578063453a1e75146101b7575b5f80fd5b61013d60048036038101906101389190611bfa565b6103eb565b60405161014a9190611c3f565b60405180910390f35b61016d60048036038101906101689190611ce5565b610464565b60405161017a9190611c3f565b60405180910390f35b61019d60048036038101906101989190611d23565b61048e565b6040516101ae959493929190611d6c565b60405180910390f35b6101d160048036038101906101cc9190611d23565b61050d565b6040516101e19493929190611dbd565b60405180910390f35b61020460048036038101906101ff9190611ce5565b610548565b6040516102119190611c3f565b60405180910390f35b610234600480360381019061022f9190611ce5565b610572565b005b61023e6106b7565b005b6102486106ca565b6040516102559190611e5b565b60405180910390f35b6102666106ef565b6040516102739190611e74565b60405180910390f35b61029660048036038101906102919190611ce5565b610716565b005b6102b260048036038101906102ad9190611ce5565b61085b565b6040516102c3959493929190611d6c565b60405180910390f35b6102e660048036038101906102e1919061208d565b6108e5565b6040516102f39190612167565b60405180910390f35b61031660048036038101906103119190611ce5565b610c44565b005b610332600480360381019061032d9190612180565b610cf7565b005b61034e600480360381019061034991906121ab565b610e53565b005b61036a60048036038101906103659190611ce5565b611434565b005b610386600480360381019061038191906121fb565b6114e7565b6040516103939190612167565b60405180910390f35b6103b660048036038101906103b19190612180565b61169b565b005b6103d260048036038101906103cd9190611ce5565b61171f565b6040516103e29493929190611dbd565b60405180910390f35b5f7f4e2312e0000000000000000000000000000000000000000000000000000000007bffffffffffffffffffffffffffffffffffffffffffffffffffffffff1916827bffffffffffffffffffffffffffffffffffffffffffffffffffffffff1916148061045d575061045c82611765565b5b9050919050565b6003602052815f5260405f20602052805f5260405f205f915091509054906101000a900460ff1681565b6006818154811061049d575f80fd5b905f5260205f2090600502015f91509050805f015f9054906101000a900473ffffffffffffffffffffffffffffffffffffffff1690806001015f9054906101000a900473ffffffffffffffffffffffffffffffffffffffff16908060020154908060030154908060040154905085565b6005818154811061051c575f80fd5b905f5260205f2090600402015f91509050805f0154908060010154908060020154908060030154905084565b6002602052815f5260405f20602052805f5260405f205f915091509054906101000a900460ff1681565b61057a6117ce565b5f73ffffffffffffffffffffffffffffffffffffffff168273ffffffffffffffffffffffffffffffffffffffff16141580156105cc57505f8273ffffffffffffffffffffffffffffffffffffffff163b115b61060b576040517f08c379a0000000000000000000000000000000000000000000000000000000008152600401610602906122e8565b60405180910390fd5b600160035f8473ffffffffffffffffffffffffffffffffffffffff1673ffffffffffffffffffffffffffffffffffffffff1681526020019081526020015f205f8381526020019081526020015f205f6101000a81548160ff021916908315150217905550808273ffffffffffffffffffffffffffffffffffffffff167f7a7a4e4c606c134c123ed1f1b82ad01ac98f1262f47e4768a5f0f588da717e8f60405160405180910390a35050565b6106bf6117ce565b6106c85f611855565b565b60015f9054906101000a900473ffffffffffffffffffffffffffffffffffffffff1681565b5f805f9054906101000a900473ffffffffffffffffffffffffffffffffffffffff16905090565b61071e6117ce565b5f73ffffffffffffffffffffffffffffffffffffffff168273ffffffffffffffffffffffffffffffffffffffff161415801561077057505f8273ffffffffffffffffffffffffffffffffffffffff163b115b6107af576040517f08c379a00000000000000000000000000000000000000000000000000000000081526004016107a6906122e8565b60405180910390fd5b600160025f8473ffffffffffffffffffffffffffffffffffffffff1673ffffffffffffffffffffffffffffffffffffffff1681526020019081526020015f205f8381526020019081526020015f205f6101000a81548160ff021916908315150217905550808273ffffffffffffffffffffffffffffffffffffffff167f25a602cd77d0dcd2d9a9271c81530ca6b2befdc1b20ff547cdb34bd1093804b360405160405180910390a35050565b6007602052815f5260405f208181548110610874575f80fd5b905f5260205f2090600502015f9150915050805f015f9054906101000a900473ffffffffffffffffffffffffffffffffffffffff1690806001015f9054906101000a900473ffffffffffffffffffffffffffffffffffffffff16908060020154908060030154908060040154905085565b5f8473ffffffffffffffffffffffffffffffffffffffff168673ffffffffffffffffffffffffffffffffffffffff1614610954576040517f08c379a000000000000000000000000000000000000000000000000000000000815260040161094b90612376565b60405180910390fd5b8251845114610998576040517f08c379a000000000000000000000000000000000000000000000000000000000815260040161098f906123de565b60405180910390fd5b5f73ffffffffffffffffffffffffffffffffffffffff1660015f9054906101000a900473ffffffffffffffffffffffffffffffffffffffff1673ffffffffffffffffffffffffffffffffffffffff1603610a27576040517f08c379a0000000000000000000000000000000000000000000000000000000008152600401610a1e90612446565b60405180910390fd5b5f5b8451811015610c305760025f3373ffffffffffffffffffffffffffffffffffffffff1673ffffffffffffffffffffffffffffffffffffffff1681526020019081526020015f205f868381518110610a8357610a82612464565b5b602002602001015181526020019081526020015f205f9054906101000a900460ff16610ae4576040517f08c379a0000000000000000000000000000000000000000000000000000000008152600401610adb90612501565b60405180910390fd5b60015f9054906101000a900473ffffffffffffffffffffffffffffffffffffffff1673ffffffffffffffffffffffffffffffffffffffff166340c10f1987868481518110610b3557610b34612464565b5b60200260200101516040518363ffffffff1660e01b8152600401610b5a92919061251f565b5f604051808303815f87803b158015610b71575f80fd5b505af1158015610b83573d5f803e3d5ffd5b50505050848181518110610b9a57610b99612464565b5b60200260200101513373ffffffffffffffffffffffffffffffffffffffff168773ffffffffffffffffffffffffffffffffffffffff167f40ba10935627ab450dd36afe32f52afa35f94d71a0c577e5b5b655d05ff6d0ef878581518110610c0457610c03612464565b5b602002602001015142604051610c1b929190612546565b60405180910390a48080600101915050610a29565b5063bc197c8160e01b905095945050505050565b610c4c6117ce565b5f60025f8473ffffffffffffffffffffffffffffffffffffffff1673ffffffffffffffffffffffffffffffffffffffff1681526020019081526020015f205f8381526020019081526020015f205f6101000a81548160ff021916908315150217905550808273ffffffffffffffffffffffffffffffffffffffff167f7cdf80461ab5065b7b1c6ae92ce85d5d3fd752930ff8c76a2c5f0288648e5b2360405160405180910390a35050565b610cff6117ce565b5f73ffffffffffffffffffffffffffffffffffffffff168173ffffffffffffffffffffffffffffffffffffffff1614158015610d5157505f8173ffffffffffffffffffffffffffffffffffffffff163b115b610d90576040517f08c379a0000000000000000000000000000000000000000000000000000000008152600401610d87906125b7565b60405180910390fd5b5f60015f9054906101000a900473ffffffffffffffffffffffffffffffffffffffff1690508160015f6101000a81548173ffffffffffffffffffffffffffffffffffffffff021916908373ffffffffffffffffffffffffffffffffffffffff1602179055508173ffffffffffffffffffffffffffffffffffffffff168173ffffffffffffffffffffffffffffffffffffffff167f3225966cbaae2904ba12a4821319a2efec8fe5313e9e3376037823b52ab32cf160405160405180910390a35050565b60035f8473ffffffffffffffffffffffffffffffffffffffff1673ffffffffffffffffffffffffffffffffffffffff1681526020019081526020015f205f8381526020019081526020015f205f9054906101000a900460ff16610eeb576040517f08c379a0000000000000000000000000000000000000000000000000000000008152600401610ee290612645565b60405180910390fd5b5f8111610f2d576040517f08c379a0000000000000000000000000000000000000000000000000000000008152600401610f24906126ad565b60405180910390fd5b5f73ffffffffffffffffffffffffffffffffffffffff1660015f9054906101000a900473ffffffffffffffffffffffffffffffffffffffff1673ffffffffffffffffffffffffffffffffffffffff1603610fbc576040517f08c379a0000000000000000000000000000000000000000000000000000000008152600401610fb390612446565b60405180910390fd5b5f60015f9054906101000a900473ffffffffffffffffffffffffffffffffffffffff1673ffffffffffffffffffffffffffffffffffffffff166323b872dd3330856040518463ffffffff1660e01b815260040161101b939291906126cb565b6020604051808303815f875af1158015611037573d5f803e3d5ffd5b505050506040513d601f19601f8201168201806040525081019061105b919061272a565b90508061109d576040517f08c379a00000000000000000000000000000000000000000000000000000000081526004016110949061279f565b60405180910390fd5b60015f9054906101000a900473ffffffffffffffffffffffffffffffffffffffff1673ffffffffffffffffffffffffffffffffffffffff166342966c68836040518263ffffffff1660e01b81526004016110f791906127bd565b5f604051808303815f87803b15801561110e575f80fd5b505af1158015611120573d5f803e3d5ffd5b505050508373ffffffffffffffffffffffffffffffffffffffff1663731133e93385856040518463ffffffff1660e01b815260040161116193929190612809565b5f604051808303815f87803b158015611178575f80fd5b505af115801561118a573d5f803e3d5ffd5b505050505f6040518060a001604052803373ffffffffffffffffffffffffffffffffffffffff1681526020018673ffffffffffffffffffffffffffffffffffffffff168152602001858152602001848152602001428152509050600681908060018154018082558091505060019003905f5260205f2090600502015f909190919091505f820151815f015f6101000a81548173ffffffffffffffffffffffffffffffffffffffff021916908373ffffffffffffffffffffffffffffffffffffffff1602179055506020820151816001015f6101000a81548173ffffffffffffffffffffffffffffffffffffffff021916908373ffffffffffffffffffffffffffffffffffffffff160217905550604082015181600201556060820151816003015560808201518160040155505060075f3373ffffffffffffffffffffffffffffffffffffffff1673ffffffffffffffffffffffffffffffffffffffff1681526020019081526020015f2081908060018154018082558091505060019003905f5260205f2090600502015f909190919091505f820151815f015f6101000a81548173ffffffffffffffffffffffffffffffffffffffff021916908373ffffffffffffffffffffffffffffffffffffffff1602179055506020820151816001015f6101000a81548173ffffffffffffffffffffffffffffffffffffffff021916908373ffffffffffffffffffffffffffffffffffffffff1602179055506040820151816002015560608201518160030155608082015181600401555050838573ffffffffffffffffffffffffffffffffffffffff163373ffffffffffffffffffffffffffffffffffffffff167f1ca57d76d7b91ecc6a90677f1b8eb7d995f934eda6364134e6021dbba757241e8642604051611425929190612546565b60405180910390a45050505050565b61143c6117ce565b5f60035f8473ffffffffffffffffffffffffffffffffffffffff1673ffffffffffffffffffffffffffffffffffffffff1681526020019081526020015f205f8381526020019081526020015f205f6101000a81548160ff021916908315150217905550808273ffffffffffffffffffffffffffffffffffffffff167fdf3a4de361f566c7b82e2670c9f25deb777b8a9c5c03e949b07f8932f7cbed3e60405160405180910390a35050565b5f8473ffffffffffffffffffffffffffffffffffffffff168673ffffffffffffffffffffffffffffffffffffffff1614611556576040517f08c379a000000000000000000000000000000000000000000000000000000000815260040161154d90612376565b60405180910390fd5b60025f3373ffffffffffffffffffffffffffffffffffffffff1673ffffffffffffffffffffffffffffffffffffffff1681526020019081526020015f205f8581526020019081526020015f205f9054906101000a900460ff166115ee576040517f08c379a00000000000000000000000000000000000000000000000000000000081526004016115e5906128c1565b60405180910390fd5b5f73ffffffffffffffffffffffffffffffffffffffff1660015f9054906101000a900473ffffffffffffffffffffffffffffffffffffffff1673ffffffffffffffffffffffffffffffffffffffff160361167d576040517f08c379a000000000000000000000000000000000000000000000000000000000815260040161167490612446565b60405180910390fd5b611688858585611916565b63f23a6e6160e01b905095945050505050565b6116a36117ce565b5f73ffffffffffffffffffffffffffffffffffffffff168173ffffffffffffffffffffffffffffffffffffffff1603611713575f6040517f1e4fbdf700000000000000000000000000000000000000000000000000000000815260040161170a9190611e74565b60405180910390fd5b61171c81611855565b50565b6004602052815f5260405f208181548110611738575f80fd5b905f5260205f2090600402015f9150915050805f0154908060010154908060020154908060030154905084565b5f7f01ffc9a7000000000000000000000000000000000000000000000000000000007bffffffffffffffffffffffffffffffffffffffffffffffffffffffff1916827bffffffffffffffffffffffffffffffffffffffffffffffffffffffff1916149050919050565b6117d6611b8d565b73ffffffffffffffffffffffffffffffffffffffff166117f46106ef565b73ffffffffffffffffffffffffffffffffffffffff161461185357611817611b8d565b6040517f118cdaa700000000000000000000000000000000000000000000000000000000815260040161184a9190611e74565b60405180910390fd5b565b5f805f9054906101000a900473ffffffffffffffffffffffffffffffffffffffff169050815f806101000a81548173ffffffffffffffffffffffffffffffffffffffff021916908373ffffffffffffffffffffffffffffffffffffffff1602179055508173ffffffffffffffffffffffffffffffffffffffff168173ffffffffffffffffffffffffffffffffffffffff167f8be0079c531659141344cd1fd0a4f28419497f9722a3daafe3b4186f6b6457e060405160405180910390a35050565b5f8190505f73ffffffffffffffffffffffffffffffffffffffff1660015f9054906101000a900473ffffffffffffffffffffffffffffffffffffffff1673ffffffffffffffffffffffffffffffffffffffff16036119a9576040517f08c379a00000000000000000000000000000000000000000000000000000000081526004016119a090612929565b60405180910390fd5b60015f9054906101000a900473ffffffffffffffffffffffffffffffffffffffff1673ffffffffffffffffffffffffffffffffffffffff166340c10f1985836040518363ffffffff1660e01b8152600401611a0592919061251f565b5f604051808303815f87803b158015611a1c575f80fd5b505af1158015611a2e573d5f803e3d5ffd5b505050505f6040518060800160405280858152602001848152602001838152602001428152509050600581908060018154018082558091505060019003905f5260205f2090600402015f909190919091505f820151815f0155602082015181600101556040820151816002015560608201518160030155505060045f8673ffffffffffffffffffffffffffffffffffffffff1673ffffffffffffffffffffffffffffffffffffffff1681526020019081526020015f2081908060018154018082558091505060019003905f5260205f2090600402015f909190919091505f820151815f01556020820151816001015560408201518160020155606082015181600301555050838573ffffffffffffffffffffffffffffffffffffffff167f8207f4cc66476fc751f9fa47f50e7bdf31b03fad34f997e73ef4a8c554992647858542604051611b7e93929190612947565b60405180910390a35050505050565b5f33905090565b5f604051905090565b5f80fd5b5f80fd5b5f7fffffffff0000000000000000000000000000000000000000000000000000000082169050919050565b611bd981611ba5565b8114611be3575f80fd5b50565b5f81359050611bf481611bd0565b92915050565b5f60208284031215611c0f57611c0e611b9d565b5b5f611c1c84828501611be6565b91505092915050565b5f8115159050919050565b611c3981611c25565b82525050565b5f602082019050611c525f830184611c30565b92915050565b5f73ffffffffffffffffffffffffffffffffffffffff82169050919050565b5f611c8182611c58565b9050919050565b611c9181611c77565b8114611c9b575f80fd5b50565b5f81359050611cac81611c88565b92915050565b5f819050919050565b611cc481611cb2565b8114611cce575f80fd5b50565b5f81359050611cdf81611cbb565b92915050565b5f8060408385031215611cfb57611cfa611b9d565b5b5f611d0885828601611c9e565b9250506020611d1985828601611cd1565b9150509250929050565b5f60208284031215611d3857611d37611b9d565b5b5f611d4584828501611cd1565b91505092915050565b611d5781611c77565b82525050565b611d6681611cb2565b82525050565b5f60a082019050611d7f5f830188611d4e565b611d8c6020830187611d4e565b611d996040830186611d5d565b611da66060830185611d5d565b611db36080830184611d5d565b9695505050505050565b5f608082019050611dd05f830187611d5d565b611ddd6020830186611d5d565b611dea6040830185611d5d565b611df76060830184611d5d565b95945050505050565b5f819050919050565b5f611e23611e1e611e1984611c58565b611e00565b611c58565b9050919050565b5f611e3482611e09565b9050919050565b5f611e4582611e2a565b9050919050565b611e5581611e3b565b82525050565b5f602082019050611e6e5f830184611e4c565b92915050565b5f602082019050611e875f830184611d4e565b92915050565b5f80fd5b5f601f19601f8301169050919050565b7f4e487b71000000000000000000000000000000000000000000000000000000005f52604160045260245ffd5b611ed782611e91565b810181811067ffffffffffffffff82111715611ef657611ef5611ea1565b5b80604052505050565b5f611f08611b94565b9050611f148282611ece565b919050565b5f67ffffffffffffffff821115611f3357611f32611ea1565b5b602082029050602081019050919050565b5f80fd5b5f611f5a611f5584611f19565b611eff565b90508083825260208201905060208402830185811115611f7d57611f7c611f44565b5b835b81811015611fa65780611f928882611cd1565b845260208401935050602081019050611f7f565b5050509392505050565b5f82601f830112611fc457611fc3611e8d565b5b8135611fd4848260208601611f48565b91505092915050565b5f80fd5b5f67ffffffffffffffff821115611ffb57611ffa611ea1565b5b61200482611e91565b9050602081019050919050565b828183375f83830152505050565b5f61203161202c84611fe1565b611eff565b90508281526020810184848401111561204d5761204c611fdd565b5b612058848285612011565b509392505050565b5f82601f83011261207457612073611e8d565b5b813561208484826020860161201f565b91505092915050565b5f805f805f60a086880312156120a6576120a5611b9d565b5b5f6120b388828901611c9e565b95505060206120c488828901611c9e565b945050604086013567ffffffffffffffff8111156120e5576120e4611ba1565b5b6120f188828901611fb0565b935050606086013567ffffffffffffffff81111561211257612111611ba1565b5b61211e88828901611fb0565b925050608086013567ffffffffffffffff81111561213f5761213e611ba1565b5b61214b88828901612060565b9150509295509295909350565b61216181611ba5565b82525050565b5f60208201905061217a5f830184612158565b92915050565b5f6020828403121561219557612194611b9d565b5b5f6121a284828501611c9e565b91505092915050565b5f805f606084860312156121c2576121c1611b9d565b5b5f6121cf86828701611c9e565b93505060206121e086828701611cd1565b92505060406121f186828701611cd1565b9150509250925092565b5f805f805f60a0868803121561221457612213611b9d565b5b5f61222188828901611c9e565b955050602061223288828901611c9e565b945050604061224388828901611cd1565b935050606061225488828901611cd1565b925050608086013567ffffffffffffffff81111561227557612274611ba1565b5b61228188828901612060565b9150509295509295909350565b5f82825260208201905092915050565b7f496e76616c6964204552433131353520616464726573730000000000000000005f82015250565b5f6122d260178361228e565b91506122dd8261229e565b602082019050919050565b5f6020820190508181035f8301526122ff816122c6565b9050919050565b7f4f6e6c792074686520746f6b656e206f776e65722063616e20747269676765725f8201527f20636f6e76657273696f6e000000000000000000000000000000000000000000602082015250565b5f612360602b8361228e565b915061236b82612306565b604082019050919050565b5f6020820190508181035f83015261238d81612354565b9050919050565b7f49447320616e642076616c756573206c656e677468206d69736d6174636800005f82015250565b5f6123c8601e8361228e565b91506123d382612394565b602082019050919050565b5f6020820190508181035f8301526123f5816123bc565b9050919050565b7f455243323020746f6b656e206e6f7420736574000000000000000000000000005f82015250565b5f61243060138361228e565b915061243b826123fc565b602082019050919050565b5f6020820190508181035f83015261245d81612424565b9050919050565b7f4e487b71000000000000000000000000000000000000000000000000000000005f52603260045260245ffd5b7f4f6e65206f72206d6f7265204552433131353520746f6b656e73206e6f7420615f8201527f6c6c6f77656420666f7220636f6e76657273696f6e0000000000000000000000602082015250565b5f6124eb60358361228e565b91506124f682612491565b604082019050919050565b5f6020820190508181035f830152612518816124df565b9050919050565b5f6040820190506125325f830185611d4e565b61253f6020830184611d5d565b9392505050565b5f6040820190506125595f830185611d5d565b6125666020830184611d5d565b9392505050565b7f496e76616c696420455243323020746f6b656e206164647265737300000000005f82015250565b5f6125a1601b8361228e565b91506125ac8261256d565b602082019050919050565b5f6020820190508181035f8301526125ce81612595565b9050919050565b7f436f6e76657273696f6e206e6f7420616c6c6f77656420666f722074686973205f8201527f4552433131353520746f6b656e00000000000000000000000000000000000000602082015250565b5f61262f602d8361228e565b915061263a826125d5565b604082019050919050565b5f6020820190508181035f83015261265c81612623565b9050919050565b7f416d6f756e74206d7573742062652067726561746572207468616e207a65726f5f82015250565b5f61269760208361228e565b91506126a282612663565b602082019050919050565b5f6020820190508181035f8301526126c48161268b565b9050919050565b5f6060820190506126de5f830186611d4e565b6126eb6020830185611d4e565b6126f86040830184611d5d565b949350505050565b61270981611c25565b8114612713575f80fd5b50565b5f8151905061272481612700565b92915050565b5f6020828403121561273f5761273e611b9d565b5b5f61274c84828501612716565b91505092915050565b7f4552433230207472616e73666572206661696c656400000000000000000000005f82015250565b5f61278960158361228e565b915061279482612755565b602082019050919050565b5f6020820190508181035f8301526127b68161277d565b9050919050565b5f6020820190506127d05f830184611d5d565b92915050565b5f82825260208201905092915050565b50565b5f6127f45f836127d6565b91506127ff826127e6565b5f82019050919050565b5f60808201905061281c5f830186611d4e565b6128296020830185611d5d565b6128366040830184611d5d565b8181036060830152612847816127e9565b9050949350505050565b7f4552433131353520746f6b656e206e6f7420616c6c6f77656420666f7220636f5f8201527f6e76657273696f6e000000000000000000000000000000000000000000000000602082015250565b5f6128ab60288361228e565b91506128b682612851565b604082019050919050565b5f6020820190508181035f8301526128d88161289f565b9050919050565b7f455243323020746f6b656e206e6f7420646566696e65640000000000000000005f82015250565b5f61291360178361228e565b915061291e826128df565b602082019050919050565b5f6020820190508181035f83015261294081612907565b9050919050565b5f60608201905061295a5f830186611d5d565b6129676020830185611d5d565b6129746040830184611d5d565b94935050505056fea26469706673582212200b65ff57e9097ea226c6a0cec728df58cd48db633b020281aa076e66d9250d2664736f6c63430008190033",
					"opcodes": "PUSH1 0x80 PUSH1 0x40 MSTORE CALLVALUE DUP1 ISZERO PUSH2 0xF JUMPI PUSH0 DUP1 REVERT JUMPDEST POP CALLER PUSH0 PUSH20 0xFFFFFFFFFFFFFFFFFFFFFFFFFFFFFFFFFFFFFFFF AND DUP2 PUSH20 0xFFFFFFFFFFFFFFFFFFFFFFFFFFFFFFFFFFFFFFFF AND SUB PUSH2 0x81 JUMPI PUSH0 PUSH1 0x40 MLOAD PUSH32 0x1E4FBDF700000000000000000000000000000000000000000000000000000000 DUP2 MSTORE PUSH1 0x4 ADD PUSH2 0x78 SWAP2 SWAP1 PUSH2 0x196 JUMP JUMPDEST PUSH1 0x40 MLOAD DUP1 SWAP2 SUB SWAP1 REVERT JUMPDEST PUSH2 0x90 DUP2 PUSH2 0x96 PUSH1 0x20 SHL PUSH1 0x20 SHR JUMP JUMPDEST POP PUSH2 0x1AF JUMP JUMPDEST PUSH0 DUP1 PUSH0 SWAP1 SLOAD SWAP1 PUSH2 0x100 EXP SWAP1 DIV PUSH20 0xFFFFFFFFFFFFFFFFFFFFFFFFFFFFFFFFFFFFFFFF AND SWAP1 POP DUP2 PUSH0 DUP1 PUSH2 0x100 EXP DUP2 SLOAD DUP2 PUSH20 0xFFFFFFFFFFFFFFFFFFFFFFFFFFFFFFFFFFFFFFFF MUL NOT AND SWAP1 DUP4 PUSH20 0xFFFFFFFFFFFFFFFFFFFFFFFFFFFFFFFFFFFFFFFF AND MUL OR SWAP1 SSTORE POP DUP2 PUSH20 0xFFFFFFFFFFFFFFFFFFFFFFFFFFFFFFFFFFFFFFFF AND DUP2 PUSH20 0xFFFFFFFFFFFFFFFFFFFFFFFFFFFFFFFFFFFFFFFF AND PUSH32 0x8BE0079C531659141344CD1FD0A4F28419497F9722A3DAAFE3B4186F6B6457E0 PUSH1 0x40 MLOAD PUSH1 0x40 MLOAD DUP1 SWAP2 SUB SWAP1 LOG3 POP POP JUMP JUMPDEST PUSH0 PUSH20 0xFFFFFFFFFFFFFFFFFFFFFFFFFFFFFFFFFFFFFFFF DUP3 AND SWAP1 POP SWAP2 SWAP1 POP JUMP JUMPDEST PUSH0 PUSH2 0x180 DUP3 PUSH2 0x157 JUMP JUMPDEST SWAP1 POP SWAP2 SWAP1 POP JUMP JUMPDEST PUSH2 0x190 DUP2 PUSH2 0x176 JUMP JUMPDEST DUP3 MSTORE POP POP JUMP JUMPDEST PUSH0 PUSH1 0x20 DUP3 ADD SWAP1 POP PUSH2 0x1A9 PUSH0 DUP4 ADD DUP5 PUSH2 0x187 JUMP JUMPDEST SWAP3 SWAP2 POP POP JUMP JUMPDEST PUSH2 0x29B2 DUP1 PUSH2 0x1BC PUSH0 CODECOPY PUSH0 RETURN INVALID PUSH1 0x80 PUSH1 0x40 MSTORE CALLVALUE DUP1 ISZERO PUSH2 0xF JUMPI PUSH0 DUP1 REVERT JUMPDEST POP PUSH1 0x4 CALLDATASIZE LT PUSH2 0x11F JUMPI PUSH0 CALLDATALOAD PUSH1 0xE0 SHR DUP1 PUSH4 0x9C3C4345 GT PUSH2 0xAB JUMPI DUP1 PUSH4 0xDF84AAE9 GT PUSH2 0x6F JUMPI DUP1 PUSH4 0xDF84AAE9 EQ PUSH2 0x334 JUMPI DUP1 PUSH4 0xEA6A5B0E EQ PUSH2 0x350 JUMPI DUP1 PUSH4 0xF23A6E61 EQ PUSH2 0x36C JUMPI DUP1 PUSH4 0xF2FDE38B EQ PUSH2 0x39C JUMPI DUP1 PUSH4 0xFCE3FB2F EQ PUSH2 0x3B8 JUMPI PUSH2 0x11F JUMP JUMPDEST DUP1 PUSH4 0x9C3C4345 EQ PUSH2 0x27C JUMPI DUP1 PUSH4 0xB1FD0A42 EQ PUSH2 0x298 JUMPI DUP1 PUSH4 0xBC197C81 EQ PUSH2 0x2CC JUMPI DUP1 PUSH4 0xC953E56E EQ PUSH2 0x2FC JUMPI DUP1 PUSH4 0xDE562487 EQ PUSH2 0x318 JUMPI PUSH2 0x11F JUMP JUMPDEST DUP1 PUSH4 0x58BE702F GT PUSH2 0xF2 JUMPI DUP1 PUSH4 0x58BE702F EQ PUSH2 0x1EA JUMPI DUP1 PUSH4 0x652CA87E EQ PUSH2 0x21A JUMPI DUP1 PUSH4 0x715018A6 EQ PUSH2 0x236 JUMPI DUP1 PUSH4 0x8A13EEA7 EQ PUSH2 0x240 JUMPI DUP1 PUSH4 0x8DA5CB5B EQ PUSH2 0x25E JUMPI PUSH2 0x11F JUMP JUMPDEST DUP1 PUSH4 0x1FFC9A7 EQ PUSH2 0x123 JUMPI DUP1 PUSH4 0xFCD1E84 EQ PUSH2 0x153 JUMPI DUP1 PUSH4 0x15614D5D EQ PUSH2 0x183 JUMPI DUP1 PUSH4 0x453A1E75 EQ PUSH2 0x1B7 JUMPI JUMPDEST PUSH0 DUP1 REVERT JUMPDEST PUSH2 0x13D PUSH1 0x4 DUP1 CALLDATASIZE SUB DUP2 ADD SWAP1 PUSH2 0x138 SWAP2 SWAP1 PUSH2 0x1BFA JUMP JUMPDEST PUSH2 0x3EB JUMP JUMPDEST PUSH1 0x40 MLOAD PUSH2 0x14A SWAP2 SWAP1 PUSH2 0x1C3F JUMP JUMPDEST PUSH1 0x40 MLOAD DUP1 SWAP2 SUB SWAP1 RETURN JUMPDEST PUSH2 0x16D PUSH1 0x4 DUP1 CALLDATASIZE SUB DUP2 ADD SWAP1 PUSH2 0x168 SWAP2 SWAP1 PUSH2 0x1CE5 JUMP JUMPDEST PUSH2 0x464 JUMP JUMPDEST PUSH1 0x40 MLOAD PUSH2 0x17A SWAP2 SWAP1 PUSH2 0x1C3F JUMP JUMPDEST PUSH1 0x40 MLOAD DUP1 SWAP2 SUB SWAP1 RETURN JUMPDEST PUSH2 0x19D PUSH1 0x4 DUP1 CALLDATASIZE SUB DUP2 ADD SWAP1 PUSH2 0x198 SWAP2 SWAP1 PUSH2 0x1D23 JUMP JUMPDEST PUSH2 0x48E JUMP JUMPDEST PUSH1 0x40 MLOAD PUSH2 0x1AE SWAP6 SWAP5 SWAP4 SWAP3 SWAP2 SWAP1 PUSH2 0x1D6C JUMP JUMPDEST PUSH1 0x40 MLOAD DUP1 SWAP2 SUB SWAP1 RETURN JUMPDEST PUSH2 0x1D1 PUSH1 0x4 DUP1 CALLDATASIZE SUB DUP2 ADD SWAP1 PUSH2 0x1CC SWAP2 SWAP1 PUSH2 0x1D23 JUMP JUMPDEST PUSH2 0x50D JUMP JUMPDEST PUSH1 0x40 MLOAD PUSH2 0x1E1 SWAP5 SWAP4 SWAP3 SWAP2 SWAP1 PUSH2 0x1DBD JUMP JUMPDEST PUSH1 0x40 MLOAD DUP1 SWAP2 SUB SWAP1 RETURN JUMPDEST PUSH2 0x204 PUSH1 0x4 DUP1 CALLDATASIZE SUB DUP2 ADD SWAP1 PUSH2 0x1FF SWAP2 SWAP1 PUSH2 0x1CE5 JUMP JUMPDEST PUSH2 0x548 JUMP JUMPDEST PUSH1 0x40 MLOAD PUSH2 0x211 SWAP2 SWAP1 PUSH2 0x1C3F JUMP JUMPDEST PUSH1 0x40 MLOAD DUP1 SWAP2 SUB SWAP1 RETURN JUMPDEST PUSH2 0x234 PUSH1 0x4 DUP1 CALLDATASIZE SUB DUP2 ADD SWAP1 PUSH2 0x22F SWAP2 SWAP1 PUSH2 0x1CE5 JUMP JUMPDEST PUSH2 0x572 JUMP JUMPDEST STOP JUMPDEST PUSH2 0x23E PUSH2 0x6B7 JUMP JUMPDEST STOP JUMPDEST PUSH2 0x248 PUSH2 0x6CA JUMP JUMPDEST PUSH1 0x40 MLOAD PUSH2 0x255 SWAP2 SWAP1 PUSH2 0x1E5B JUMP JUMPDEST PUSH1 0x40 MLOAD DUP1 SWAP2 SUB SWAP1 RETURN JUMPDEST PUSH2 0x266 PUSH2 0x6EF JUMP JUMPDEST PUSH1 0x40 MLOAD PUSH2 0x273 SWAP2 SWAP1 PUSH2 0x1E74 JUMP JUMPDEST PUSH1 0x40 MLOAD DUP1 SWAP2 SUB SWAP1 RETURN JUMPDEST PUSH2 0x296 PUSH1 0x4 DUP1 CALLDATASIZE SUB DUP2 ADD SWAP1 PUSH2 0x291 SWAP2 SWAP1 PUSH2 0x1CE5 JUMP JUMPDEST PUSH2 0x716 JUMP JUMPDEST STOP JUMPDEST PUSH2 0x2B2 PUSH1 0x4 DUP1 CALLDATASIZE SUB DUP2 ADD SWAP1 PUSH2 0x2AD SWAP2 SWAP1 PUSH2 0x1CE5 JUMP JUMPDEST PUSH2 0x85B JUMP JUMPDEST PUSH1 0x40 MLOAD PUSH2 0x2C3 SWAP6 SWAP5 SWAP4 SWAP3 SWAP2 SWAP1 PUSH2 0x1D6C JUMP JUMPDEST PUSH1 0x40 MLOAD DUP1 SWAP2 SUB SWAP1 RETURN JUMPDEST PUSH2 0x2E6 PUSH1 0x4 DUP1 CALLDATASIZE SUB DUP2 ADD SWAP1 PUSH2 0x2E1 SWAP2 SWAP1 PUSH2 0x208D JUMP JUMPDEST PUSH2 0x8E5 JUMP JUMPDEST PUSH1 0x40 MLOAD PUSH2 0x2F3 SWAP2 SWAP1 PUSH2 0x2167 JUMP JUMPDEST PUSH1 0x40 MLOAD DUP1 SWAP2 SUB SWAP1 RETURN JUMPDEST PUSH2 0x316 PUSH1 0x4 DUP1 CALLDATASIZE SUB DUP2 ADD SWAP1 PUSH2 0x311 SWAP2 SWAP1 PUSH2 0x1CE5 JUMP JUMPDEST PUSH2 0xC44 JUMP JUMPDEST STOP JUMPDEST PUSH2 0x332 PUSH1 0x4 DUP1 CALLDATASIZE SUB DUP2 ADD SWAP1 PUSH2 0x32D SWAP2 SWAP1 PUSH2 0x2180 JUMP JUMPDEST PUSH2 0xCF7 JUMP JUMPDEST STOP JUMPDEST PUSH2 0x34E PUSH1 0x4 DUP1 CALLDATASIZE SUB DUP2 ADD SWAP1 PUSH2 0x349 SWAP2 SWAP1 PUSH2 0x21AB JUMP JUMPDEST PUSH2 0xE53 JUMP JUMPDEST STOP JUMPDEST PUSH2 0x36A PUSH1 0x4 DUP1 CALLDATASIZE SUB DUP2 ADD SWAP1 PUSH2 0x365 SWAP2 SWAP1 PUSH2 0x1CE5 JUMP JUMPDEST PUSH2 0x1434 JUMP JUMPDEST STOP JUMPDEST PUSH2 0x386 PUSH1 0x4 DUP1 CALLDATASIZE SUB DUP2 ADD SWAP1 PUSH2 0x381 SWAP2 SWAP1 PUSH2 0x21FB JUMP JUMPDEST PUSH2 0x14E7 JUMP JUMPDEST PUSH1 0x40 MLOAD PUSH2 0x393 SWAP2 SWAP1 PUSH2 0x2167 JUMP JUMPDEST PUSH1 0x40 MLOAD DUP1 SWAP2 SUB SWAP1 RETURN JUMPDEST PUSH2 0x3B6 PUSH1 0x4 DUP1 CALLDATASIZE SUB DUP2 ADD SWAP1 PUSH2 0x3B1 SWAP2 SWAP1 PUSH2 0x2180 JUMP JUMPDEST PUSH2 0x169B JUMP JUMPDEST STOP JUMPDEST PUSH2 0x3D2 PUSH1 0x4 DUP1 CALLDATASIZE SUB DUP2 ADD SWAP1 PUSH2 0x3CD SWAP2 SWAP1 PUSH2 0x1CE5 JUMP JUMPDEST PUSH2 0x171F JUMP JUMPDEST PUSH1 0x40 MLOAD PUSH2 0x3E2 SWAP5 SWAP4 SWAP3 SWAP2 SWAP1 PUSH2 0x1DBD JUMP JUMPDEST PUSH1 0x40 MLOAD DUP1 SWAP2 SUB SWAP1 RETURN JUMPDEST PUSH0 PUSH32 0x4E2312E000000000000000000000000000000000000000000000000000000000 PUSH28 0xFFFFFFFFFFFFFFFFFFFFFFFFFFFFFFFFFFFFFFFFFFFFFFFFFFFFFFFF NOT AND DUP3 PUSH28 0xFFFFFFFFFFFFFFFFFFFFFFFFFFFFFFFFFFFFFFFFFFFFFFFFFFFFFFFF NOT AND EQ DUP1 PUSH2 0x45D JUMPI POP PUSH2 0x45C DUP3 PUSH2 0x1765 JUMP JUMPDEST JUMPDEST SWAP1 POP SWAP2 SWAP1 POP JUMP JUMPDEST PUSH1 0x3 PUSH1 0x20 MSTORE DUP2 PUSH0 MSTORE PUSH1 0x40 PUSH0 KECCAK256 PUSH1 0x20 MSTORE DUP1 PUSH0 MSTORE PUSH1 0x40 PUSH0 KECCAK256 PUSH0 SWAP2 POP SWAP2 POP SWAP1 SLOAD SWAP1 PUSH2 0x100 EXP SWAP1 DIV PUSH1 0xFF AND DUP2 JUMP JUMPDEST PUSH1 0x6 DUP2 DUP2 SLOAD DUP2 LT PUSH2 0x49D JUMPI PUSH0 DUP1 REVERT JUMPDEST SWAP1 PUSH0 MSTORE PUSH1 0x20 PUSH0 KECCAK256 SWAP1 PUSH1 0x5 MUL ADD PUSH0 SWAP2 POP SWAP1 POP DUP1 PUSH0 ADD PUSH0 SWAP1 SLOAD SWAP1 PUSH2 0x100 EXP SWAP1 DIV PUSH20 0xFFFFFFFFFFFFFFFFFFFFFFFFFFFFFFFFFFFFFFFF AND SWAP1 DUP1 PUSH1 0x1 ADD PUSH0 SWAP1 SLOAD SWAP1 PUSH2 0x100 EXP SWAP1 DIV PUSH20 0xFFFFFFFFFFFFFFFFFFFFFFFFFFFFFFFFFFFFFFFF AND SWAP1 DUP1 PUSH1 0x2 ADD SLOAD SWAP1 DUP1 PUSH1 0x3 ADD SLOAD SWAP1 DUP1 PUSH1 0x4 ADD SLOAD SWAP1 POP DUP6 JUMP JUMPDEST PUSH1 0x5 DUP2 DUP2 SLOAD DUP2 LT PUSH2 0x51C JUMPI PUSH0 DUP1 REVERT JUMPDEST SWAP1 PUSH0 MSTORE PUSH1 0x20 PUSH0 KECCAK256 SWAP1 PUSH1 0x4 MUL ADD PUSH0 SWAP2 POP SWAP1 POP DUP1 PUSH0 ADD SLOAD SWAP1 DUP1 PUSH1 0x1 ADD SLOAD SWAP1 DUP1 PUSH1 0x2 ADD SLOAD SWAP1 DUP1 PUSH1 0x3 ADD SLOAD SWAP1 POP DUP5 JUMP JUMPDEST PUSH1 0x2 PUSH1 0x20 MSTORE DUP2 PUSH0 MSTORE PUSH1 0x40 PUSH0 KECCAK256 PUSH1 0x20 MSTORE DUP1 PUSH0 MSTORE PUSH1 0x40 PUSH0 KECCAK256 PUSH0 SWAP2 POP SWAP2 POP SWAP1 SLOAD SWAP1 PUSH2 0x100 EXP SWAP1 DIV PUSH1 0xFF AND DUP2 JUMP JUMPDEST PUSH2 0x57A PUSH2 0x17CE JUMP JUMPDEST PUSH0 PUSH20 0xFFFFFFFFFFFFFFFFFFFFFFFFFFFFFFFFFFFFFFFF AND DUP3 PUSH20 0xFFFFFFFFFFFFFFFFFFFFFFFFFFFFFFFFFFFFFFFF AND EQ ISZERO DUP1 ISZERO PUSH2 0x5CC JUMPI POP PUSH0 DUP3 PUSH20 0xFFFFFFFFFFFFFFFFFFFFFFFFFFFFFFFFFFFFFFFF AND EXTCODESIZE GT JUMPDEST PUSH2 0x60B JUMPI PUSH1 0x40 MLOAD PUSH32 0x8C379A000000000000000000000000000000000000000000000000000000000 DUP2 MSTORE PUSH1 0x4 ADD PUSH2 0x602 SWAP1 PUSH2 0x22E8 JUMP JUMPDEST PUSH1 0x40 MLOAD DUP1 SWAP2 SUB SWAP1 REVERT JUMPDEST PUSH1 0x1 PUSH1 0x3 PUSH0 DUP5 PUSH20 0xFFFFFFFFFFFFFFFFFFFFFFFFFFFFFFFFFFFFFFFF AND PUSH20 0xFFFFFFFFFFFFFFFFFFFFFFFFFFFFFFFFFFFFFFFF AND DUP2 MSTORE PUSH1 0x20 ADD SWAP1 DUP2 MSTORE PUSH1 0x20 ADD PUSH0 KECCAK256 PUSH0 DUP4 DUP2 MSTORE PUSH1 0x20 ADD SWAP1 DUP2 MSTORE PUSH1 0x20 ADD PUSH0 KECCAK256 PUSH0 PUSH2 0x100 EXP DUP2 SLOAD DUP2 PUSH1 0xFF MUL NOT AND SWAP1 DUP4 ISZERO ISZERO MUL OR SWAP1 SSTORE POP DUP1 DUP3 PUSH20 0xFFFFFFFFFFFFFFFFFFFFFFFFFFFFFFFFFFFFFFFF AND PUSH32 0x7A7A4E4C606C134C123ED1F1B82AD01AC98F1262F47E4768A5F0F588DA717E8F PUSH1 0x40 MLOAD PUSH1 0x40 MLOAD DUP1 SWAP2 SUB SWAP1 LOG3 POP POP JUMP JUMPDEST PUSH2 0x6BF PUSH2 0x17CE JUMP JUMPDEST PUSH2 0x6C8 PUSH0 PUSH2 0x1855 JUMP JUMPDEST JUMP JUMPDEST PUSH1 0x1 PUSH0 SWAP1 SLOAD SWAP1 PUSH2 0x100 EXP SWAP1 DIV PUSH20 0xFFFFFFFFFFFFFFFFFFFFFFFFFFFFFFFFFFFFFFFF AND DUP2 JUMP JUMPDEST PUSH0 DUP1 PUSH0 SWAP1 SLOAD SWAP1 PUSH2 0x100 EXP SWAP1 DIV PUSH20 0xFFFFFFFFFFFFFFFFFFFFFFFFFFFFFFFFFFFFFFFF AND SWAP1 POP SWAP1 JUMP JUMPDEST PUSH2 0x71E PUSH2 0x17CE JUMP JUMPDEST PUSH0 PUSH20 0xFFFFFFFFFFFFFFFFFFFFFFFFFFFFFFFFFFFFFFFF AND DUP3 PUSH20 0xFFFFFFFFFFFFFFFFFFFFFFFFFFFFFFFFFFFFFFFF AND EQ ISZERO DUP1 ISZERO PUSH2 0x770 JUMPI POP PUSH0 DUP3 PUSH20 0xFFFFFFFFFFFFFFFFFFFFFFFFFFFFFFFFFFFFFFFF AND EXTCODESIZE GT JUMPDEST PUSH2 0x7AF JUMPI PUSH1 0x40 MLOAD PUSH32 0x8C379A000000000000000000000000000000000000000000000000000000000 DUP2 MSTORE PUSH1 0x4 ADD PUSH2 0x7A6 SWAP1 PUSH2 0x22E8 JUMP JUMPDEST PUSH1 0x40 MLOAD DUP1 SWAP2 SUB SWAP1 REVERT JUMPDEST PUSH1 0x1 PUSH1 0x2 PUSH0 DUP5 PUSH20 0xFFFFFFFFFFFFFFFFFFFFFFFFFFFFFFFFFFFFFFFF AND PUSH20 0xFFFFFFFFFFFFFFFFFFFFFFFFFFFFFFFFFFFFFFFF AND DUP2 MSTORE PUSH1 0x20 ADD SWAP1 DUP2 MSTORE PUSH1 0x20 ADD PUSH0 KECCAK256 PUSH0 DUP4 DUP2 MSTORE PUSH1 0x20 ADD SWAP1 DUP2 MSTORE PUSH1 0x20 ADD PUSH0 KECCAK256 PUSH0 PUSH2 0x100 EXP DUP2 SLOAD DUP2 PUSH1 0xFF MUL NOT AND SWAP1 DUP4 ISZERO ISZERO MUL OR SWAP1 SSTORE POP DUP1 DUP3 PUSH20 0xFFFFFFFFFFFFFFFFFFFFFFFFFFFFFFFFFFFFFFFF AND PUSH32 0x25A602CD77D0DCD2D9A9271C81530CA6B2BEFDC1B20FF547CDB34BD1093804B3 PUSH1 0x40 MLOAD PUSH1 0x40 MLOAD DUP1 SWAP2 SUB SWAP1 LOG3 POP POP JUMP JUMPDEST PUSH1 0x7 PUSH1 0x20 MSTORE DUP2 PUSH0 MSTORE PUSH1 0x40 PUSH0 KECCAK256 DUP2 DUP2 SLOAD DUP2 LT PUSH2 0x874 JUMPI PUSH0 DUP1 REVERT JUMPDEST SWAP1 PUSH0 MSTORE PUSH1 0x20 PUSH0 KECCAK256 SWAP1 PUSH1 0x5 MUL ADD PUSH0 SWAP2 POP SWAP2 POP POP DUP1 PUSH0 ADD PUSH0 SWAP1 SLOAD SWAP1 PUSH2 0x100 EXP SWAP1 DIV PUSH20 0xFFFFFFFFFFFFFFFFFFFFFFFFFFFFFFFFFFFFFFFF AND SWAP1 DUP1 PUSH1 0x1 ADD PUSH0 SWAP1 SLOAD SWAP1 PUSH2 0x100 EXP SWAP1 DIV PUSH20 0xFFFFFFFFFFFFFFFFFFFFFFFFFFFFFFFFFFFFFFFF AND SWAP1 DUP1 PUSH1 0x2 ADD SLOAD SWAP1 DUP1 PUSH1 0x3 ADD SLOAD SWAP1 DUP1 PUSH1 0x4 ADD SLOAD SWAP1 POP DUP6 JUMP JUMPDEST PUSH0 DUP5 PUSH20 0xFFFFFFFFFFFFFFFFFFFFFFFFFFFFFFFFFFFFFFFF AND DUP7 PUSH20 0xFFFFFFFFFFFFFFFFFFFFFFFFFFFFFFFFFFFFFFFF AND EQ PUSH2 0x954 JUMPI PUSH1 0x40 MLOAD PUSH32 0x8C379A000000000000000000000000000000000000000000000000000000000 DUP2 MSTORE PUSH1 0x4 ADD PUSH2 0x94B SWAP1 PUSH2 0x2376 JUMP JUMPDEST PUSH1 0x40 MLOAD DUP1 SWAP2 SUB SWAP1 REVERT JUMPDEST DUP3 MLOAD DUP5 MLOAD EQ PUSH2 0x998 JUMPI PUSH1 0x40 MLOAD PUSH32 0x8C379A000000000000000000000000000000000000000000000000000000000 DUP2 MSTORE PUSH1 0x4 ADD PUSH2 0x98F SWAP1 PUSH2 0x23DE JUMP JUMPDEST PUSH1 0x40 MLOAD DUP1 SWAP2 SUB SWAP1 REVERT JUMPDEST PUSH0 PUSH20 0xFFFFFFFFFFFFFFFFFFFFFFFFFFFFFFFFFFFFFFFF AND PUSH1 0x1 PUSH0 SWAP1 SLOAD SWAP1 PUSH2 0x100 EXP SWAP1 DIV PUSH20 0xFFFFFFFFFFFFFFFFFFFFFFFFFFFFFFFFFFFFFFFF AND PUSH20 0xFFFFFFFFFFFFFFFFFFFFFFFFFFFFFFFFFFFFFFFF AND SUB PUSH2 0xA27 JUMPI PUSH1 0x40 MLOAD PUSH32 0x8C379A000000000000000000000000000000000000000000000000000000000 DUP2 MSTORE PUSH1 0x4 ADD PUSH2 0xA1E SWAP1 PUSH2 0x2446 JUMP JUMPDEST PUSH1 0x40 MLOAD DUP1 SWAP2 SUB SWAP1 REVERT JUMPDEST PUSH0 JUMPDEST DUP5 MLOAD DUP2 LT ISZERO PUSH2 0xC30 JUMPI PUSH1 0x2 PUSH0 CALLER PUSH20 0xFFFFFFFFFFFFFFFFFFFFFFFFFFFFFFFFFFFFFFFF AND PUSH20 0xFFFFFFFFFFFFFFFFFFFFFFFFFFFFFFFFFFFFFFFF AND DUP2 MSTORE PUSH1 0x20 ADD SWAP1 DUP2 MSTORE PUSH1 0x20 ADD PUSH0 KECCAK256 PUSH0 DUP7 DUP4 DUP2 MLOAD DUP2 LT PUSH2 0xA83 JUMPI PUSH2 0xA82 PUSH2 0x2464 JUMP JUMPDEST JUMPDEST PUSH1 0x20 MUL PUSH1 0x20 ADD ADD MLOAD DUP2 MSTORE PUSH1 0x20 ADD SWAP1 DUP2 MSTORE PUSH1 0x20 ADD PUSH0 KECCAK256 PUSH0 SWAP1 SLOAD SWAP1 PUSH2 0x100 EXP SWAP1 DIV PUSH1 0xFF AND PUSH2 0xAE4 JUMPI PUSH1 0x40 MLOAD PUSH32 0x8C379A000000000000000000000000000000000000000000000000000000000 DUP2 MSTORE PUSH1 0x4 ADD PUSH2 0xADB SWAP1 PUSH2 0x2501 JUMP JUMPDEST PUSH1 0x40 MLOAD DUP1 SWAP2 SUB SWAP1 REVERT JUMPDEST PUSH1 0x1 PUSH0 SWAP1 SLOAD SWAP1 PUSH2 0x100 EXP SWAP1 DIV PUSH20 0xFFFFFFFFFFFFFFFFFFFFFFFFFFFFFFFFFFFFFFFF AND PUSH20 0xFFFFFFFFFFFFFFFFFFFFFFFFFFFFFFFFFFFFFFFF AND PUSH4 0x40C10F19 DUP8 DUP7 DUP5 DUP2 MLOAD DUP2 LT PUSH2 0xB35 JUMPI PUSH2 0xB34 PUSH2 0x2464 JUMP JUMPDEST JUMPDEST PUSH1 0x20 MUL PUSH1 0x20 ADD ADD MLOAD PUSH1 0x40 MLOAD DUP4 PUSH4 0xFFFFFFFF AND PUSH1 0xE0 SHL DUP2 MSTORE PUSH1 0x4 ADD PUSH2 0xB5A SWAP3 SWAP2 SWAP1 PUSH2 0x251F JUMP JUMPDEST PUSH0 PUSH1 0x40 MLOAD DUP1 DUP4 SUB DUP2 PUSH0 DUP8 DUP1 EXTCODESIZE ISZERO DUP1 ISZERO PUSH2 0xB71 JUMPI PUSH0 DUP1 REVERT JUMPDEST POP GAS CALL ISZERO DUP1 ISZERO PUSH2 0xB83 JUMPI RETURNDATASIZE PUSH0 DUP1 RETURNDATACOPY RETURNDATASIZE PUSH0 REVERT JUMPDEST POP POP POP POP DUP5 DUP2 DUP2 MLOAD DUP2 LT PUSH2 0xB9A JUMPI PUSH2 0xB99 PUSH2 0x2464 JUMP JUMPDEST JUMPDEST PUSH1 0x20 MUL PUSH1 0x20 ADD ADD MLOAD CALLER PUSH20 0xFFFFFFFFFFFFFFFFFFFFFFFFFFFFFFFFFFFFFFFF AND DUP8 PUSH20 0xFFFFFFFFFFFFFFFFFFFFFFFFFFFFFFFFFFFFFFFF AND PUSH32 0x40BA10935627AB450DD36AFE32F52AFA35F94D71A0C577E5B5B655D05FF6D0EF DUP8 DUP6 DUP2 MLOAD DUP2 LT PUSH2 0xC04 JUMPI PUSH2 0xC03 PUSH2 0x2464 JUMP JUMPDEST JUMPDEST PUSH1 0x20 MUL PUSH1 0x20 ADD ADD MLOAD TIMESTAMP PUSH1 0x40 MLOAD PUSH2 0xC1B SWAP3 SWAP2 SWAP1 PUSH2 0x2546 JUMP JUMPDEST PUSH1 0x40 MLOAD DUP1 SWAP2 SUB SWAP1 LOG4 DUP1 DUP1 PUSH1 0x1 ADD SWAP2 POP POP PUSH2 0xA29 JUMP JUMPDEST POP PUSH4 0xBC197C81 PUSH1 0xE0 SHL SWAP1 POP SWAP6 SWAP5 POP POP POP POP POP JUMP JUMPDEST PUSH2 0xC4C PUSH2 0x17CE JUMP JUMPDEST PUSH0 PUSH1 0x2 PUSH0 DUP5 PUSH20 0xFFFFFFFFFFFFFFFFFFFFFFFFFFFFFFFFFFFFFFFF AND PUSH20 0xFFFFFFFFFFFFFFFFFFFFFFFFFFFFFFFFFFFFFFFF AND DUP2 MSTORE PUSH1 0x20 ADD SWAP1 DUP2 MSTORE PUSH1 0x20 ADD PUSH0 KECCAK256 PUSH0 DUP4 DUP2 MSTORE PUSH1 0x20 ADD SWAP1 DUP2 MSTORE PUSH1 0x20 ADD PUSH0 KECCAK256 PUSH0 PUSH2 0x100 EXP DUP2 SLOAD DUP2 PUSH1 0xFF MUL NOT AND SWAP1 DUP4 ISZERO ISZERO MUL OR SWAP1 SSTORE POP DUP1 DUP3 PUSH20 0xFFFFFFFFFFFFFFFFFFFFFFFFFFFFFFFFFFFFFFFF AND PUSH32 0x7CDF80461AB5065B7B1C6AE92CE85D5D3FD752930FF8C76A2C5F0288648E5B23 PUSH1 0x40 MLOAD PUSH1 0x40 MLOAD DUP1 SWAP2 SUB SWAP1 LOG3 POP POP JUMP JUMPDEST PUSH2 0xCFF PUSH2 0x17CE JUMP JUMPDEST PUSH0 PUSH20 0xFFFFFFFFFFFFFFFFFFFFFFFFFFFFFFFFFFFFFFFF AND DUP2 PUSH20 0xFFFFFFFFFFFFFFFFFFFFFFFFFFFFFFFFFFFFFFFF AND EQ ISZERO DUP1 ISZERO PUSH2 0xD51 JUMPI POP PUSH0 DUP2 PUSH20 0xFFFFFFFFFFFFFFFFFFFFFFFFFFFFFFFFFFFFFFFF AND EXTCODESIZE GT JUMPDEST PUSH2 0xD90 JUMPI PUSH1 0x40 MLOAD PUSH32 0x8C379A000000000000000000000000000000000000000000000000000000000 DUP2 MSTORE PUSH1 0x4 ADD PUSH2 0xD87 SWAP1 PUSH2 0x25B7 JUMP JUMPDEST PUSH1 0x40 MLOAD DUP1 SWAP2 SUB SWAP1 REVERT JUMPDEST PUSH0 PUSH1 0x1 PUSH0 SWAP1 SLOAD SWAP1 PUSH2 0x100 EXP SWAP1 DIV PUSH20 0xFFFFFFFFFFFFFFFFFFFFFFFFFFFFFFFFFFFFFFFF AND SWAP1 POP DUP2 PUSH1 0x1 PUSH0 PUSH2 0x100 EXP DUP2 SLOAD DUP2 PUSH20 0xFFFFFFFFFFFFFFFFFFFFFFFFFFFFFFFFFFFFFFFF MUL NOT AND SWAP1 DUP4 PUSH20 0xFFFFFFFFFFFFFFFFFFFFFFFFFFFFFFFFFFFFFFFF AND MUL OR SWAP1 SSTORE POP DUP2 PUSH20 0xFFFFFFFFFFFFFFFFFFFFFFFFFFFFFFFFFFFFFFFF AND DUP2 PUSH20 0xFFFFFFFFFFFFFFFFFFFFFFFFFFFFFFFFFFFFFFFF AND PUSH32 0x3225966CBAAE2904BA12A4821319A2EFEC8FE5313E9E3376037823B52AB32CF1 PUSH1 0x40 MLOAD PUSH1 0x40 MLOAD DUP1 SWAP2 SUB SWAP1 LOG3 POP POP JUMP JUMPDEST PUSH1 0x3 PUSH0 DUP5 PUSH20 0xFFFFFFFFFFFFFFFFFFFFFFFFFFFFFFFFFFFFFFFF AND PUSH20 0xFFFFFFFFFFFFFFFFFFFFFFFFFFFFFFFFFFFFFFFF AND DUP2 MSTORE PUSH1 0x20 ADD SWAP1 DUP2 MSTORE PUSH1 0x20 ADD PUSH0 KECCAK256 PUSH0 DUP4 DUP2 MSTORE PUSH1 0x20 ADD SWAP1 DUP2 MSTORE PUSH1 0x20 ADD PUSH0 KECCAK256 PUSH0 SWAP1 SLOAD SWAP1 PUSH2 0x100 EXP SWAP1 DIV PUSH1 0xFF AND PUSH2 0xEEB JUMPI PUSH1 0x40 MLOAD PUSH32 0x8C379A000000000000000000000000000000000000000000000000000000000 DUP2 MSTORE PUSH1 0x4 ADD PUSH2 0xEE2 SWAP1 PUSH2 0x2645 JUMP JUMPDEST PUSH1 0x40 MLOAD DUP1 SWAP2 SUB SWAP1 REVERT JUMPDEST PUSH0 DUP2 GT PUSH2 0xF2D JUMPI PUSH1 0x40 MLOAD PUSH32 0x8C379A000000000000000000000000000000000000000000000000000000000 DUP2 MSTORE PUSH1 0x4 ADD PUSH2 0xF24 SWAP1 PUSH2 0x26AD JUMP JUMPDEST PUSH1 0x40 MLOAD DUP1 SWAP2 SUB SWAP1 REVERT JUMPDEST PUSH0 PUSH20 0xFFFFFFFFFFFFFFFFFFFFFFFFFFFFFFFFFFFFFFFF AND PUSH1 0x1 PUSH0 SWAP1 SLOAD SWAP1 PUSH2 0x100 EXP SWAP1 DIV PUSH20 0xFFFFFFFFFFFFFFFFFFFFFFFFFFFFFFFFFFFFFFFF AND PUSH20 0xFFFFFFFFFFFFFFFFFFFFFFFFFFFFFFFFFFFFFFFF AND SUB PUSH2 0xFBC JUMPI PUSH1 0x40 MLOAD PUSH32 0x8C379A000000000000000000000000000000000000000000000000000000000 DUP2 MSTORE PUSH1 0x4 ADD PUSH2 0xFB3 SWAP1 PUSH2 0x2446 JUMP JUMPDEST PUSH1 0x40 MLOAD DUP1 SWAP2 SUB SWAP1 REVERT JUMPDEST PUSH0 PUSH1 0x1 PUSH0 SWAP1 SLOAD SWAP1 PUSH2 0x100 EXP SWAP1 DIV PUSH20 0xFFFFFFFFFFFFFFFFFFFFFFFFFFFFFFFFFFFFFFFF AND PUSH20 0xFFFFFFFFFFFFFFFFFFFFFFFFFFFFFFFFFFFFFFFF AND PUSH4 0x23B872DD CALLER ADDRESS DUP6 PUSH1 0x40 MLOAD DUP5 PUSH4 0xFFFFFFFF AND PUSH1 0xE0 SHL DUP2 MSTORE PUSH1 0x4 ADD PUSH2 0x101B SWAP4 SWAP3 SWAP2 SWAP1 PUSH2 0x26CB JUMP JUMPDEST PUSH1 0x20 PUSH1 0x40 MLOAD DUP1 DUP4 SUB DUP2 PUSH0 DUP8 GAS CALL ISZERO DUP1 ISZERO PUSH2 0x1037 JUMPI RETURNDATASIZE PUSH0 DUP1 RETURNDATACOPY RETURNDATASIZE PUSH0 REVERT JUMPDEST POP POP POP POP PUSH1 0x40 MLOAD RETURNDATASIZE PUSH1 0x1F NOT PUSH1 0x1F DUP3 ADD AND DUP3 ADD DUP1 PUSH1 0x40 MSTORE POP DUP2 ADD SWAP1 PUSH2 0x105B SWAP2 SWAP1 PUSH2 0x272A JUMP JUMPDEST SWAP1 POP DUP1 PUSH2 0x109D JUMPI PUSH1 0x40 MLOAD PUSH32 0x8C379A000000000000000000000000000000000000000000000000000000000 DUP2 MSTORE PUSH1 0x4 ADD PUSH2 0x1094 SWAP1 PUSH2 0x279F JUMP JUMPDEST PUSH1 0x40 MLOAD DUP1 SWAP2 SUB SWAP1 REVERT JUMPDEST PUSH1 0x1 PUSH0 SWAP1 SLOAD SWAP1 PUSH2 0x100 EXP SWAP1 DIV PUSH20 0xFFFFFFFFFFFFFFFFFFFFFFFFFFFFFFFFFFFFFFFF AND PUSH20 0xFFFFFFFFFFFFFFFFFFFFFFFFFFFFFFFFFFFFFFFF AND PUSH4 0x42966C68 DUP4 PUSH1 0x40 MLOAD DUP3 PUSH4 0xFFFFFFFF AND PUSH1 0xE0 SHL DUP2 MSTORE PUSH1 0x4 ADD PUSH2 0x10F7 SWAP2 SWAP1 PUSH2 0x27BD JUMP JUMPDEST PUSH0 PUSH1 0x40 MLOAD DUP1 DUP4 SUB DUP2 PUSH0 DUP8 DUP1 EXTCODESIZE ISZERO DUP1 ISZERO PUSH2 0x110E JUMPI PUSH0 DUP1 REVERT JUMPDEST POP GAS CALL ISZERO DUP1 ISZERO PUSH2 0x1120 JUMPI RETURNDATASIZE PUSH0 DUP1 RETURNDATACOPY RETURNDATASIZE PUSH0 REVERT JUMPDEST POP POP POP POP DUP4 PUSH20 0xFFFFFFFFFFFFFFFFFFFFFFFFFFFFFFFFFFFFFFFF AND PUSH4 0x731133E9 CALLER DUP6 DUP6 PUSH1 0x40 MLOAD DUP5 PUSH4 0xFFFFFFFF AND PUSH1 0xE0 SHL DUP2 MSTORE PUSH1 0x4 ADD PUSH2 0x1161 SWAP4 SWAP3 SWAP2 SWAP1 PUSH2 0x2809 JUMP JUMPDEST PUSH0 PUSH1 0x40 MLOAD DUP1 DUP4 SUB DUP2 PUSH0 DUP8 DUP1 EXTCODESIZE ISZERO DUP1 ISZERO PUSH2 0x1178 JUMPI PUSH0 DUP1 REVERT JUMPDEST POP GAS CALL ISZERO DUP1 ISZERO PUSH2 0x118A JUMPI RETURNDATASIZE PUSH0 DUP1 RETURNDATACOPY RETURNDATASIZE PUSH0 REVERT JUMPDEST POP POP POP POP PUSH0 PUSH1 0x40 MLOAD DUP1 PUSH1 0xA0 ADD PUSH1 0x40 MSTORE DUP1 CALLER PUSH20 0xFFFFFFFFFFFFFFFFFFFFFFFFFFFFFFFFFFFFFFFF AND DUP2 MSTORE PUSH1 0x20 ADD DUP7 PUSH20 0xFFFFFFFFFFFFFFFFFFFFFFFFFFFFFFFFFFFFFFFF AND DUP2 MSTORE PUSH1 0x20 ADD DUP6 DUP2 MSTORE PUSH1 0x20 ADD DUP5 DUP2 MSTORE PUSH1 0x20 ADD TIMESTAMP DUP2 MSTORE POP SWAP1 POP PUSH1 0x6 DUP2 SWAP1 DUP1 PUSH1 0x1 DUP2 SLOAD ADD DUP1 DUP3 SSTORE DUP1 SWAP2 POP POP PUSH1 0x1 SWAP1 SUB SWAP1 PUSH0 MSTORE PUSH1 0x20 PUSH0 KECCAK256 SWAP1 PUSH1 0x5 MUL ADD PUSH0 SWAP1 SWAP2 SWAP1 SWAP2 SWAP1 SWAP2 POP PUSH0 DUP3 ADD MLOAD DUP2 PUSH0 ADD PUSH0 PUSH2 0x100 EXP DUP2 SLOAD DUP2 PUSH20 0xFFFFFFFFFFFFFFFFFFFFFFFFFFFFFFFFFFFFFFFF MUL NOT AND SWAP1 DUP4 PUSH20 0xFFFFFFFFFFFFFFFFFFFFFFFFFFFFFFFFFFFFFFFF AND MUL OR SWAP1 SSTORE POP PUSH1 0x20 DUP3 ADD MLOAD DUP2 PUSH1 0x1 ADD PUSH0 PUSH2 0x100 EXP DUP2 SLOAD DUP2 PUSH20 0xFFFFFFFFFFFFFFFFFFFFFFFFFFFFFFFFFFFFFFFF MUL NOT AND SWAP1 DUP4 PUSH20 0xFFFFFFFFFFFFFFFFFFFFFFFFFFFFFFFFFFFFFFFF AND MUL OR SWAP1 SSTORE POP PUSH1 0x40 DUP3 ADD MLOAD DUP2 PUSH1 0x2 ADD SSTORE PUSH1 0x60 DUP3 ADD MLOAD DUP2 PUSH1 0x3 ADD SSTORE PUSH1 0x80 DUP3 ADD MLOAD DUP2 PUSH1 0x4 ADD SSTORE POP POP PUSH1 0x7 PUSH0 CALLER PUSH20 0xFFFFFFFFFFFFFFFFFFFFFFFFFFFFFFFFFFFFFFFF AND PUSH20 0xFFFFFFFFFFFFFFFFFFFFFFFFFFFFFFFFFFFFFFFF AND DUP2 MSTORE PUSH1 0x20 ADD SWAP1 DUP2 MSTORE PUSH1 0x20 ADD PUSH0 KECCAK256 DUP2 SWAP1 DUP1 PUSH1 0x1 DUP2 SLOAD ADD DUP1 DUP3 SSTORE DUP1 SWAP2 POP POP PUSH1 0x1 SWAP1 SUB SWAP1 PUSH0 MSTORE PUSH1 0x20 PUSH0 KECCAK256 SWAP1 PUSH1 0x5 MUL ADD PUSH0 SWAP1 SWAP2 SWAP1 SWAP2 SWAP1 SWAP2 POP PUSH0 DUP3 ADD MLOAD DUP2 PUSH0 ADD PUSH0 PUSH2 0x100 EXP DUP2 SLOAD DUP2 PUSH20 0xFFFFFFFFFFFFFFFFFFFFFFFFFFFFFFFFFFFFFFFF MUL NOT AND SWAP1 DUP4 PUSH20 0xFFFFFFFFFFFFFFFFFFFFFFFFFFFFFFFFFFFFFFFF AND MUL OR SWAP1 SSTORE POP PUSH1 0x20 DUP3 ADD MLOAD DUP2 PUSH1 0x1 ADD PUSH0 PUSH2 0x100 EXP DUP2 SLOAD DUP2 PUSH20 0xFFFFFFFFFFFFFFFFFFFFFFFFFFFFFFFFFFFFFFFF MUL NOT AND SWAP1 DUP4 PUSH20 0xFFFFFFFFFFFFFFFFFFFFFFFFFFFFFFFFFFFFFFFF AND MUL OR SWAP1 SSTORE POP PUSH1 0x40 DUP3 ADD MLOAD DUP2 PUSH1 0x2 ADD SSTORE PUSH1 0x60 DUP3 ADD MLOAD DUP2 PUSH1 0x3 ADD SSTORE PUSH1 0x80 DUP3 ADD MLOAD DUP2 PUSH1 0x4 ADD SSTORE POP POP DUP4 DUP6 PUSH20 0xFFFFFFFFFFFFFFFFFFFFFFFFFFFFFFFFFFFFFFFF AND CALLER PUSH20 0xFFFFFFFFFFFFFFFFFFFFFFFFFFFFFFFFFFFFFFFF AND PUSH32 0x1CA57D76D7B91ECC6A90677F1B8EB7D995F934EDA6364134E6021DBBA757241E DUP7 TIMESTAMP PUSH1 0x40 MLOAD PUSH2 0x1425 SWAP3 SWAP2 SWAP1 PUSH2 0x2546 JUMP JUMPDEST PUSH1 0x40 MLOAD DUP1 SWAP2 SUB SWAP1 LOG4 POP POP POP POP POP JUMP JUMPDEST PUSH2 0x143C PUSH2 0x17CE JUMP JUMPDEST PUSH0 PUSH1 0x3 PUSH0 DUP5 PUSH20 0xFFFFFFFFFFFFFFFFFFFFFFFFFFFFFFFFFFFFFFFF AND PUSH20 0xFFFFFFFFFFFFFFFFFFFFFFFFFFFFFFFFFFFFFFFF AND DUP2 MSTORE PUSH1 0x20 ADD SWAP1 DUP2 MSTORE PUSH1 0x20 ADD PUSH0 KECCAK256 PUSH0 DUP4 DUP2 MSTORE PUSH1 0x20 ADD SWAP1 DUP2 MSTORE PUSH1 0x20 ADD PUSH0 KECCAK256 PUSH0 PUSH2 0x100 EXP DUP2 SLOAD DUP2 PUSH1 0xFF MUL NOT AND SWAP1 DUP4 ISZERO ISZERO MUL OR SWAP1 SSTORE POP DUP1 DUP3 PUSH20 0xFFFFFFFFFFFFFFFFFFFFFFFFFFFFFFFFFFFFFFFF AND PUSH32 0xDF3A4DE361F566C7B82E2670C9F25DEB777B8A9C5C03E949B07F8932F7CBED3E PUSH1 0x40 MLOAD PUSH1 0x40 MLOAD DUP1 SWAP2 SUB SWAP1 LOG3 POP POP JUMP JUMPDEST PUSH0 DUP5 PUSH20 0xFFFFFFFFFFFFFFFFFFFFFFFFFFFFFFFFFFFFFFFF AND DUP7 PUSH20 0xFFFFFFFFFFFFFFFFFFFFFFFFFFFFFFFFFFFFFFFF AND EQ PUSH2 0x1556 JUMPI PUSH1 0x40 MLOAD PUSH32 0x8C379A000000000000000000000000000000000000000000000000000000000 DUP2 MSTORE PUSH1 0x4 ADD PUSH2 0x154D SWAP1 PUSH2 0x2376 JUMP JUMPDEST PUSH1 0x40 MLOAD DUP1 SWAP2 SUB SWAP1 REVERT JUMPDEST PUSH1 0x2 PUSH0 CALLER PUSH20 0xFFFFFFFFFFFFFFFFFFFFFFFFFFFFFFFFFFFFFFFF AND PUSH20 0xFFFFFFFFFFFFFFFFFFFFFFFFFFFFFFFFFFFFFFFF AND DUP2 MSTORE PUSH1 0x20 ADD SWAP1 DUP2 MSTORE PUSH1 0x20 ADD PUSH0 KECCAK256 PUSH0 DUP6 DUP2 MSTORE PUSH1 0x20 ADD SWAP1 DUP2 MSTORE PUSH1 0x20 ADD PUSH0 KECCAK256 PUSH0 SWAP1 SLOAD SWAP1 PUSH2 0x100 EXP SWAP1 DIV PUSH1 0xFF AND PUSH2 0x15EE JUMPI PUSH1 0x40 MLOAD PUSH32 0x8C379A000000000000000000000000000000000000000000000000000000000 DUP2 MSTORE PUSH1 0x4 ADD PUSH2 0x15E5 SWAP1 PUSH2 0x28C1 JUMP JUMPDEST PUSH1 0x40 MLOAD DUP1 SWAP2 SUB SWAP1 REVERT JUMPDEST PUSH0 PUSH20 0xFFFFFFFFFFFFFFFFFFFFFFFFFFFFFFFFFFFFFFFF AND PUSH1 0x1 PUSH0 SWAP1 SLOAD SWAP1 PUSH2 0x100 EXP SWAP1 DIV PUSH20 0xFFFFFFFFFFFFFFFFFFFFFFFFFFFFFFFFFFFFFFFF AND PUSH20 0xFFFFFFFFFFFFFFFFFFFFFFFFFFFFFFFFFFFFFFFF AND SUB PUSH2 0x167D JUMPI PUSH1 0x40 MLOAD PUSH32 0x8C379A000000000000000000000000000000000000000000000000000000000 DUP2 MSTORE PUSH1 0x4 ADD PUSH2 0x1674 SWAP1 PUSH2 0x2446 JUMP JUMPDEST PUSH1 0x40 MLOAD DUP1 SWAP2 SUB SWAP1 REVERT JUMPDEST PUSH2 0x1688 DUP6 DUP6 DUP6 PUSH2 0x1916 JUMP JUMPDEST PUSH4 0xF23A6E61 PUSH1 0xE0 SHL SWAP1 POP SWAP6 SWAP5 POP POP POP POP POP JUMP JUMPDEST PUSH2 0x16A3 PUSH2 0x17CE JUMP JUMPDEST PUSH0 PUSH20 0xFFFFFFFFFFFFFFFFFFFFFFFFFFFFFFFFFFFFFFFF AND DUP2 PUSH20 0xFFFFFFFFFFFFFFFFFFFFFFFFFFFFFFFFFFFFFFFF AND SUB PUSH2 0x1713 JUMPI PUSH0 PUSH1 0x40 MLOAD PUSH32 0x1E4FBDF700000000000000000000000000000000000000000000000000000000 DUP2 MSTORE PUSH1 0x4 ADD PUSH2 0x170A SWAP2 SWAP1 PUSH2 0x1E74 JUMP JUMPDEST PUSH1 0x40 MLOAD DUP1 SWAP2 SUB SWAP1 REVERT JUMPDEST PUSH2 0x171C DUP2 PUSH2 0x1855 JUMP JUMPDEST POP JUMP JUMPDEST PUSH1 0x4 PUSH1 0x20 MSTORE DUP2 PUSH0 MSTORE PUSH1 0x40 PUSH0 KECCAK256 DUP2 DUP2 SLOAD DUP2 LT PUSH2 0x1738 JUMPI PUSH0 DUP1 REVERT JUMPDEST SWAP1 PUSH0 MSTORE PUSH1 0x20 PUSH0 KECCAK256 SWAP1 PUSH1 0x4 MUL ADD PUSH0 SWAP2 POP SWAP2 POP POP DUP1 PUSH0 ADD SLOAD SWAP1 DUP1 PUSH1 0x1 ADD SLOAD SWAP1 DUP1 PUSH1 0x2 ADD SLOAD SWAP1 DUP1 PUSH1 0x3 ADD SLOAD SWAP1 POP DUP5 JUMP JUMPDEST PUSH0 PUSH32 0x1FFC9A700000000000000000000000000000000000000000000000000000000 PUSH28 0xFFFFFFFFFFFFFFFFFFFFFFFFFFFFFFFFFFFFFFFFFFFFFFFFFFFFFFFF NOT AND DUP3 PUSH28 0xFFFFFFFFFFFFFFFFFFFFFFFFFFFFFFFFFFFFFFFFFFFFFFFFFFFFFFFF NOT AND EQ SWAP1 POP SWAP2 SWAP1 POP JUMP JUMPDEST PUSH2 0x17D6 PUSH2 0x1B8D JUMP JUMPDEST PUSH20 0xFFFFFFFFFFFFFFFFFFFFFFFFFFFFFFFFFFFFFFFF AND PUSH2 0x17F4 PUSH2 0x6EF JUMP JUMPDEST PUSH20 0xFFFFFFFFFFFFFFFFFFFFFFFFFFFFFFFFFFFFFFFF AND EQ PUSH2 0x1853 JUMPI PUSH2 0x1817 PUSH2 0x1B8D JUMP JUMPDEST PUSH1 0x40 MLOAD PUSH32 0x118CDAA700000000000000000000000000000000000000000000000000000000 DUP2 MSTORE PUSH1 0x4 ADD PUSH2 0x184A SWAP2 SWAP1 PUSH2 0x1E74 JUMP JUMPDEST PUSH1 0x40 MLOAD DUP1 SWAP2 SUB SWAP1 REVERT JUMPDEST JUMP JUMPDEST PUSH0 DUP1 PUSH0 SWAP1 SLOAD SWAP1 PUSH2 0x100 EXP SWAP1 DIV PUSH20 0xFFFFFFFFFFFFFFFFFFFFFFFFFFFFFFFFFFFFFFFF AND SWAP1 POP DUP2 PUSH0 DUP1 PUSH2 0x100 EXP DUP2 SLOAD DUP2 PUSH20 0xFFFFFFFFFFFFFFFFFFFFFFFFFFFFFFFFFFFFFFFF MUL NOT AND SWAP1 DUP4 PUSH20 0xFFFFFFFFFFFFFFFFFFFFFFFFFFFFFFFFFFFFFFFF AND MUL OR SWAP1 SSTORE POP DUP2 PUSH20 0xFFFFFFFFFFFFFFFFFFFFFFFFFFFFFFFFFFFFFFFF AND DUP2 PUSH20 0xFFFFFFFFFFFFFFFFFFFFFFFFFFFFFFFFFFFFFFFF AND PUSH32 0x8BE0079C531659141344CD1FD0A4F28419497F9722A3DAAFE3B4186F6B6457E0 PUSH1 0x40 MLOAD PUSH1 0x40 MLOAD DUP1 SWAP2 SUB SWAP1 LOG3 POP POP JUMP JUMPDEST PUSH0 DUP2 SWAP1 POP PUSH0 PUSH20 0xFFFFFFFFFFFFFFFFFFFFFFFFFFFFFFFFFFFFFFFF AND PUSH1 0x1 PUSH0 SWAP1 SLOAD SWAP1 PUSH2 0x100 EXP SWAP1 DIV PUSH20 0xFFFFFFFFFFFFFFFFFFFFFFFFFFFFFFFFFFFFFFFF AND PUSH20 0xFFFFFFFFFFFFFFFFFFFFFFFFFFFFFFFFFFFFFFFF AND SUB PUSH2 0x19A9 JUMPI PUSH1 0x40 MLOAD PUSH32 0x8C379A000000000000000000000000000000000000000000000000000000000 DUP2 MSTORE PUSH1 0x4 ADD PUSH2 0x19A0 SWAP1 PUSH2 0x2929 JUMP JUMPDEST PUSH1 0x40 MLOAD DUP1 SWAP2 SUB SWAP1 REVERT JUMPDEST PUSH1 0x1 PUSH0 SWAP1 SLOAD SWAP1 PUSH2 0x100 EXP SWAP1 DIV PUSH20 0xFFFFFFFFFFFFFFFFFFFFFFFFFFFFFFFFFFFFFFFF AND PUSH20 0xFFFFFFFFFFFFFFFFFFFFFFFFFFFFFFFFFFFFFFFF AND PUSH4 0x40C10F19 DUP6 DUP4 PUSH1 0x40 MLOAD DUP4 PUSH4 0xFFFFFFFF AND PUSH1 0xE0 SHL DUP2 MSTORE PUSH1 0x4 ADD PUSH2 0x1A05 SWAP3 SWAP2 SWAP1 PUSH2 0x251F JUMP JUMPDEST PUSH0 PUSH1 0x40 MLOAD DUP1 DUP4 SUB DUP2 PUSH0 DUP8 DUP1 EXTCODESIZE ISZERO DUP1 ISZERO PUSH2 0x1A1C JUMPI PUSH0 DUP1 REVERT JUMPDEST POP GAS CALL ISZERO DUP1 ISZERO PUSH2 0x1A2E JUMPI RETURNDATASIZE PUSH0 DUP1 RETURNDATACOPY RETURNDATASIZE PUSH0 REVERT JUMPDEST POP POP POP POP PUSH0 PUSH1 0x40 MLOAD DUP1 PUSH1 0x80 ADD PUSH1 0x40 MSTORE DUP1 DUP6 DUP2 MSTORE PUSH1 0x20 ADD DUP5 DUP2 MSTORE PUSH1 0x20 ADD DUP4 DUP2 MSTORE PUSH1 0x20 ADD TIMESTAMP DUP2 MSTORE POP SWAP1 POP PUSH1 0x5 DUP2 SWAP1 DUP1 PUSH1 0x1 DUP2 SLOAD ADD DUP1 DUP3 SSTORE DUP1 SWAP2 POP POP PUSH1 0x1 SWAP1 SUB SWAP1 PUSH0 MSTORE PUSH1 0x20 PUSH0 KECCAK256 SWAP1 PUSH1 0x4 MUL ADD PUSH0 SWAP1 SWAP2 SWAP1 SWAP2 SWAP1 SWAP2 POP PUSH0 DUP3 ADD MLOAD DUP2 PUSH0 ADD SSTORE PUSH1 0x20 DUP3 ADD MLOAD DUP2 PUSH1 0x1 ADD SSTORE PUSH1 0x40 DUP3 ADD MLOAD DUP2 PUSH1 0x2 ADD SSTORE PUSH1 0x60 DUP3 ADD MLOAD DUP2 PUSH1 0x3 ADD SSTORE POP POP PUSH1 0x4 PUSH0 DUP7 PUSH20 0xFFFFFFFFFFFFFFFFFFFFFFFFFFFFFFFFFFFFFFFF AND PUSH20 0xFFFFFFFFFFFFFFFFFFFFFFFFFFFFFFFFFFFFFFFF AND DUP2 MSTORE PUSH1 0x20 ADD SWAP1 DUP2 MSTORE PUSH1 0x20 ADD PUSH0 KECCAK256 DUP2 SWAP1 DUP1 PUSH1 0x1 DUP2 SLOAD ADD DUP1 DUP3 SSTORE DUP1 SWAP2 POP POP PUSH1 0x1 SWAP1 SUB SWAP1 PUSH0 MSTORE PUSH1 0x20 PUSH0 KECCAK256 SWAP1 PUSH1 0x4 MUL ADD PUSH0 SWAP1 SWAP2 SWAP1 SWAP2 SWAP1 SWAP2 POP PUSH0 DUP3 ADD MLOAD DUP2 PUSH0 ADD SSTORE PUSH1 0x20 DUP3 ADD MLOAD DUP2 PUSH1 0x1 ADD SSTORE PUSH1 0x40 DUP3 ADD MLOAD DUP2 PUSH1 0x2 ADD SSTORE PUSH1 0x60 DUP3 ADD MLOAD DUP2 PUSH1 0x3 ADD SSTORE POP POP DUP4 DUP6 PUSH20 0xFFFFFFFFFFFFFFFFFFFFFFFFFFFFFFFFFFFFFFFF AND PUSH32 0x8207F4CC66476FC751F9FA47F50E7BDF31B03FAD34F997E73EF4A8C554992647 DUP6 DUP6 TIMESTAMP PUSH1 0x40 MLOAD PUSH2 0x1B7E SWAP4 SWAP3 SWAP2 SWAP1 PUSH2 0x2947 JUMP JUMPDEST PUSH1 0x40 MLOAD DUP1 SWAP2 SUB SWAP1 LOG3 POP POP POP POP POP JUMP JUMPDEST PUSH0 CALLER SWAP1 POP SWAP1 JUMP JUMPDEST PUSH0 PUSH1 0x40 MLOAD SWAP1 POP SWAP1 JUMP JUMPDEST PUSH0 DUP1 REVERT JUMPDEST PUSH0 DUP1 REVERT JUMPDEST PUSH0 PUSH32 0xFFFFFFFF00000000000000000000000000000000000000000000000000000000 DUP3 AND SWAP1 POP SWAP2 SWAP1 POP JUMP JUMPDEST PUSH2 0x1BD9 DUP2 PUSH2 0x1BA5 JUMP JUMPDEST DUP2 EQ PUSH2 0x1BE3 JUMPI PUSH0 DUP1 REVERT JUMPDEST POP JUMP JUMPDEST PUSH0 DUP2 CALLDATALOAD SWAP1 POP PUSH2 0x1BF4 DUP2 PUSH2 0x1BD0 JUMP JUMPDEST SWAP3 SWAP2 POP POP JUMP JUMPDEST PUSH0 PUSH1 0x20 DUP3 DUP5 SUB SLT ISZERO PUSH2 0x1C0F JUMPI PUSH2 0x1C0E PUSH2 0x1B9D JUMP JUMPDEST JUMPDEST PUSH0 PUSH2 0x1C1C DUP5 DUP3 DUP6 ADD PUSH2 0x1BE6 JUMP JUMPDEST SWAP2 POP POP SWAP3 SWAP2 POP POP JUMP JUMPDEST PUSH0 DUP2 ISZERO ISZERO SWAP1 POP SWAP2 SWAP1 POP JUMP JUMPDEST PUSH2 0x1C39 DUP2 PUSH2 0x1C25 JUMP JUMPDEST DUP3 MSTORE POP POP JUMP JUMPDEST PUSH0 PUSH1 0x20 DUP3 ADD SWAP1 POP PUSH2 0x1C52 PUSH0 DUP4 ADD DUP5 PUSH2 0x1C30 JUMP JUMPDEST SWAP3 SWAP2 POP POP JUMP JUMPDEST PUSH0 PUSH20 0xFFFFFFFFFFFFFFFFFFFFFFFFFFFFFFFFFFFFFFFF DUP3 AND SWAP1 POP SWAP2 SWAP1 POP JUMP JUMPDEST PUSH0 PUSH2 0x1C81 DUP3 PUSH2 0x1C58 JUMP JUMPDEST SWAP1 POP SWAP2 SWAP1 POP JUMP JUMPDEST PUSH2 0x1C91 DUP2 PUSH2 0x1C77 JUMP JUMPDEST DUP2 EQ PUSH2 0x1C9B JUMPI PUSH0 DUP1 REVERT JUMPDEST POP JUMP JUMPDEST PUSH0 DUP2 CALLDATALOAD SWAP1 POP PUSH2 0x1CAC DUP2 PUSH2 0x1C88 JUMP JUMPDEST SWAP3 SWAP2 POP POP JUMP JUMPDEST PUSH0 DUP2 SWAP1 POP SWAP2 SWAP1 POP JUMP JUMPDEST PUSH2 0x1CC4 DUP2 PUSH2 0x1CB2 JUMP JUMPDEST DUP2 EQ PUSH2 0x1CCE JUMPI PUSH0 DUP1 REVERT JUMPDEST POP JUMP JUMPDEST PUSH0 DUP2 CALLDATALOAD SWAP1 POP PUSH2 0x1CDF DUP2 PUSH2 0x1CBB JUMP JUMPDEST SWAP3 SWAP2 POP POP JUMP JUMPDEST PUSH0 DUP1 PUSH1 0x40 DUP4 DUP6 SUB SLT ISZERO PUSH2 0x1CFB JUMPI PUSH2 0x1CFA PUSH2 0x1B9D JUMP JUMPDEST JUMPDEST PUSH0 PUSH2 0x1D08 DUP6 DUP3 DUP7 ADD PUSH2 0x1C9E JUMP JUMPDEST SWAP3 POP POP PUSH1 0x20 PUSH2 0x1D19 DUP6 DUP3 DUP7 ADD PUSH2 0x1CD1 JUMP JUMPDEST SWAP2 POP POP SWAP3 POP SWAP3 SWAP1 POP JUMP JUMPDEST PUSH0 PUSH1 0x20 DUP3 DUP5 SUB SLT ISZERO PUSH2 0x1D38 JUMPI PUSH2 0x1D37 PUSH2 0x1B9D JUMP JUMPDEST JUMPDEST PUSH0 PUSH2 0x1D45 DUP5 DUP3 DUP6 ADD PUSH2 0x1CD1 JUMP JUMPDEST SWAP2 POP POP SWAP3 SWAP2 POP POP JUMP JUMPDEST PUSH2 0x1D57 DUP2 PUSH2 0x1C77 JUMP JUMPDEST DUP3 MSTORE POP POP JUMP JUMPDEST PUSH2 0x1D66 DUP2 PUSH2 0x1CB2 JUMP JUMPDEST DUP3 MSTORE POP POP JUMP JUMPDEST PUSH0 PUSH1 0xA0 DUP3 ADD SWAP1 POP PUSH2 0x1D7F PUSH0 DUP4 ADD DUP9 PUSH2 0x1D4E JUMP JUMPDEST PUSH2 0x1D8C PUSH1 0x20 DUP4 ADD DUP8 PUSH2 0x1D4E JUMP JUMPDEST PUSH2 0x1D99 PUSH1 0x40 DUP4 ADD DUP7 PUSH2 0x1D5D JUMP JUMPDEST PUSH2 0x1DA6 PUSH1 0x60 DUP4 ADD DUP6 PUSH2 0x1D5D JUMP JUMPDEST PUSH2 0x1DB3 PUSH1 0x80 DUP4 ADD DUP5 PUSH2 0x1D5D JUMP JUMPDEST SWAP7 SWAP6 POP POP POP POP POP POP JUMP JUMPDEST PUSH0 PUSH1 0x80 DUP3 ADD SWAP1 POP PUSH2 0x1DD0 PUSH0 DUP4 ADD DUP8 PUSH2 0x1D5D JUMP JUMPDEST PUSH2 0x1DDD PUSH1 0x20 DUP4 ADD DUP7 PUSH2 0x1D5D JUMP JUMPDEST PUSH2 0x1DEA PUSH1 0x40 DUP4 ADD DUP6 PUSH2 0x1D5D JUMP JUMPDEST PUSH2 0x1DF7 PUSH1 0x60 DUP4 ADD DUP5 PUSH2 0x1D5D JUMP JUMPDEST SWAP6 SWAP5 POP POP POP POP POP JUMP JUMPDEST PUSH0 DUP2 SWAP1 POP SWAP2 SWAP1 POP JUMP JUMPDEST PUSH0 PUSH2 0x1E23 PUSH2 0x1E1E PUSH2 0x1E19 DUP5 PUSH2 0x1C58 JUMP JUMPDEST PUSH2 0x1E00 JUMP JUMPDEST PUSH2 0x1C58 JUMP JUMPDEST SWAP1 POP SWAP2 SWAP1 POP JUMP JUMPDEST PUSH0 PUSH2 0x1E34 DUP3 PUSH2 0x1E09 JUMP JUMPDEST SWAP1 POP SWAP2 SWAP1 POP JUMP JUMPDEST PUSH0 PUSH2 0x1E45 DUP3 PUSH2 0x1E2A JUMP JUMPDEST SWAP1 POP SWAP2 SWAP1 POP JUMP JUMPDEST PUSH2 0x1E55 DUP2 PUSH2 0x1E3B JUMP JUMPDEST DUP3 MSTORE POP POP JUMP JUMPDEST PUSH0 PUSH1 0x20 DUP3 ADD SWAP1 POP PUSH2 0x1E6E PUSH0 DUP4 ADD DUP5 PUSH2 0x1E4C JUMP JUMPDEST SWAP3 SWAP2 POP POP JUMP JUMPDEST PUSH0 PUSH1 0x20 DUP3 ADD SWAP1 POP PUSH2 0x1E87 PUSH0 DUP4 ADD DUP5 PUSH2 0x1D4E JUMP JUMPDEST SWAP3 SWAP2 POP POP JUMP JUMPDEST PUSH0 DUP1 REVERT JUMPDEST PUSH0 PUSH1 0x1F NOT PUSH1 0x1F DUP4 ADD AND SWAP1 POP SWAP2 SWAP1 POP JUMP JUMPDEST PUSH32 0x4E487B7100000000000000000000000000000000000000000000000000000000 PUSH0 MSTORE PUSH1 0x41 PUSH1 0x4 MSTORE PUSH1 0x24 PUSH0 REVERT JUMPDEST PUSH2 0x1ED7 DUP3 PUSH2 0x1E91 JUMP JUMPDEST DUP2 ADD DUP2 DUP2 LT PUSH8 0xFFFFFFFFFFFFFFFF DUP3 GT OR ISZERO PUSH2 0x1EF6 JUMPI PUSH2 0x1EF5 PUSH2 0x1EA1 JUMP JUMPDEST JUMPDEST DUP1 PUSH1 0x40 MSTORE POP POP POP JUMP JUMPDEST PUSH0 PUSH2 0x1F08 PUSH2 0x1B94 JUMP JUMPDEST SWAP1 POP PUSH2 0x1F14 DUP3 DUP3 PUSH2 0x1ECE JUMP JUMPDEST SWAP2 SWAP1 POP JUMP JUMPDEST PUSH0 PUSH8 0xFFFFFFFFFFFFFFFF DUP3 GT ISZERO PUSH2 0x1F33 JUMPI PUSH2 0x1F32 PUSH2 0x1EA1 JUMP JUMPDEST JUMPDEST PUSH1 0x20 DUP3 MUL SWAP1 POP PUSH1 0x20 DUP2 ADD SWAP1 POP SWAP2 SWAP1 POP JUMP JUMPDEST PUSH0 DUP1 REVERT JUMPDEST PUSH0 PUSH2 0x1F5A PUSH2 0x1F55 DUP5 PUSH2 0x1F19 JUMP JUMPDEST PUSH2 0x1EFF JUMP JUMPDEST SWAP1 POP DUP1 DUP4 DUP3 MSTORE PUSH1 0x20 DUP3 ADD SWAP1 POP PUSH1 0x20 DUP5 MUL DUP4 ADD DUP6 DUP2 GT ISZERO PUSH2 0x1F7D JUMPI PUSH2 0x1F7C PUSH2 0x1F44 JUMP JUMPDEST JUMPDEST DUP4 JUMPDEST DUP2 DUP2 LT ISZERO PUSH2 0x1FA6 JUMPI DUP1 PUSH2 0x1F92 DUP9 DUP3 PUSH2 0x1CD1 JUMP JUMPDEST DUP5 MSTORE PUSH1 0x20 DUP5 ADD SWAP4 POP POP PUSH1 0x20 DUP2 ADD SWAP1 POP PUSH2 0x1F7F JUMP JUMPDEST POP POP POP SWAP4 SWAP3 POP POP POP JUMP JUMPDEST PUSH0 DUP3 PUSH1 0x1F DUP4 ADD SLT PUSH2 0x1FC4 JUMPI PUSH2 0x1FC3 PUSH2 0x1E8D JUMP JUMPDEST JUMPDEST DUP2 CALLDATALOAD PUSH2 0x1FD4 DUP5 DUP3 PUSH1 0x20 DUP7 ADD PUSH2 0x1F48 JUMP JUMPDEST SWAP2 POP POP SWAP3 SWAP2 POP POP JUMP JUMPDEST PUSH0 DUP1 REVERT JUMPDEST PUSH0 PUSH8 0xFFFFFFFFFFFFFFFF DUP3 GT ISZERO PUSH2 0x1FFB JUMPI PUSH2 0x1FFA PUSH2 0x1EA1 JUMP JUMPDEST JUMPDEST PUSH2 0x2004 DUP3 PUSH2 0x1E91 JUMP JUMPDEST SWAP1 POP PUSH1 0x20 DUP2 ADD SWAP1 POP SWAP2 SWAP1 POP JUMP JUMPDEST DUP3 DUP2 DUP4 CALLDATACOPY PUSH0 DUP4 DUP4 ADD MSTORE POP POP POP JUMP JUMPDEST PUSH0 PUSH2 0x2031 PUSH2 0x202C DUP5 PUSH2 0x1FE1 JUMP JUMPDEST PUSH2 0x1EFF JUMP JUMPDEST SWAP1 POP DUP3 DUP2 MSTORE PUSH1 0x20 DUP2 ADD DUP5 DUP5 DUP5 ADD GT ISZERO PUSH2 0x204D JUMPI PUSH2 0x204C PUSH2 0x1FDD JUMP JUMPDEST JUMPDEST PUSH2 0x2058 DUP5 DUP3 DUP6 PUSH2 0x2011 JUMP JUMPDEST POP SWAP4 SWAP3 POP POP POP JUMP JUMPDEST PUSH0 DUP3 PUSH1 0x1F DUP4 ADD SLT PUSH2 0x2074 JUMPI PUSH2 0x2073 PUSH2 0x1E8D JUMP JUMPDEST JUMPDEST DUP2 CALLDATALOAD PUSH2 0x2084 DUP5 DUP3 PUSH1 0x20 DUP7 ADD PUSH2 0x201F JUMP JUMPDEST SWAP2 POP POP SWAP3 SWAP2 POP POP JUMP JUMPDEST PUSH0 DUP1 PUSH0 DUP1 PUSH0 PUSH1 0xA0 DUP7 DUP9 SUB SLT ISZERO PUSH2 0x20A6 JUMPI PUSH2 0x20A5 PUSH2 0x1B9D JUMP JUMPDEST JUMPDEST PUSH0 PUSH2 0x20B3 DUP9 DUP3 DUP10 ADD PUSH2 0x1C9E JUMP JUMPDEST SWAP6 POP POP PUSH1 0x20 PUSH2 0x20C4 DUP9 DUP3 DUP10 ADD PUSH2 0x1C9E JUMP JUMPDEST SWAP5 POP POP PUSH1 0x40 DUP7 ADD CALLDATALOAD PUSH8 0xFFFFFFFFFFFFFFFF DUP2 GT ISZERO PUSH2 0x20E5 JUMPI PUSH2 0x20E4 PUSH2 0x1BA1 JUMP JUMPDEST JUMPDEST PUSH2 0x20F1 DUP9 DUP3 DUP10 ADD PUSH2 0x1FB0 JUMP JUMPDEST SWAP4 POP POP PUSH1 0x60 DUP7 ADD CALLDATALOAD PUSH8 0xFFFFFFFFFFFFFFFF DUP2 GT ISZERO PUSH2 0x2112 JUMPI PUSH2 0x2111 PUSH2 0x1BA1 JUMP JUMPDEST JUMPDEST PUSH2 0x211E DUP9 DUP3 DUP10 ADD PUSH2 0x1FB0 JUMP JUMPDEST SWAP3 POP POP PUSH1 0x80 DUP7 ADD CALLDATALOAD PUSH8 0xFFFFFFFFFFFFFFFF DUP2 GT ISZERO PUSH2 0x213F JUMPI PUSH2 0x213E PUSH2 0x1BA1 JUMP JUMPDEST JUMPDEST PUSH2 0x214B DUP9 DUP3 DUP10 ADD PUSH2 0x2060 JUMP JUMPDEST SWAP2 POP POP SWAP3 SWAP6 POP SWAP3 SWAP6 SWAP1 SWAP4 POP JUMP JUMPDEST PUSH2 0x2161 DUP2 PUSH2 0x1BA5 JUMP JUMPDEST DUP3 MSTORE POP POP JUMP JUMPDEST PUSH0 PUSH1 0x20 DUP3 ADD SWAP1 POP PUSH2 0x217A PUSH0 DUP4 ADD DUP5 PUSH2 0x2158 JUMP JUMPDEST SWAP3 SWAP2 POP POP JUMP JUMPDEST PUSH0 PUSH1 0x20 DUP3 DUP5 SUB SLT ISZERO PUSH2 0x2195 JUMPI PUSH2 0x2194 PUSH2 0x1B9D JUMP JUMPDEST JUMPDEST PUSH0 PUSH2 0x21A2 DUP5 DUP3 DUP6 ADD PUSH2 0x1C9E JUMP JUMPDEST SWAP2 POP POP SWAP3 SWAP2 POP POP JUMP JUMPDEST PUSH0 DUP1 PUSH0 PUSH1 0x60 DUP5 DUP7 SUB SLT ISZERO PUSH2 0x21C2 JUMPI PUSH2 0x21C1 PUSH2 0x1B9D JUMP JUMPDEST JUMPDEST PUSH0 PUSH2 0x21CF DUP7 DUP3 DUP8 ADD PUSH2 0x1C9E JUMP JUMPDEST SWAP4 POP POP PUSH1 0x20 PUSH2 0x21E0 DUP7 DUP3 DUP8 ADD PUSH2 0x1CD1 JUMP JUMPDEST SWAP3 POP POP PUSH1 0x40 PUSH2 0x21F1 DUP7 DUP3 DUP8 ADD PUSH2 0x1CD1 JUMP JUMPDEST SWAP2 POP POP SWAP3 POP SWAP3 POP SWAP3 JUMP JUMPDEST PUSH0 DUP1 PUSH0 DUP1 PUSH0 PUSH1 0xA0 DUP7 DUP9 SUB SLT ISZERO PUSH2 0x2214 JUMPI PUSH2 0x2213 PUSH2 0x1B9D JUMP JUMPDEST JUMPDEST PUSH0 PUSH2 0x2221 DUP9 DUP3 DUP10 ADD PUSH2 0x1C9E JUMP JUMPDEST SWAP6 POP POP PUSH1 0x20 PUSH2 0x2232 DUP9 DUP3 DUP10 ADD PUSH2 0x1C9E JUMP JUMPDEST SWAP5 POP POP PUSH1 0x40 PUSH2 0x2243 DUP9 DUP3 DUP10 ADD PUSH2 0x1CD1 JUMP JUMPDEST SWAP4 POP POP PUSH1 0x60 PUSH2 0x2254 DUP9 DUP3 DUP10 ADD PUSH2 0x1CD1 JUMP JUMPDEST SWAP3 POP POP PUSH1 0x80 DUP7 ADD CALLDATALOAD PUSH8 0xFFFFFFFFFFFFFFFF DUP2 GT ISZERO PUSH2 0x2275 JUMPI PUSH2 0x2274 PUSH2 0x1BA1 JUMP JUMPDEST JUMPDEST PUSH2 0x2281 DUP9 DUP3 DUP10 ADD PUSH2 0x2060 JUMP JUMPDEST SWAP2 POP POP SWAP3 SWAP6 POP SWAP3 SWAP6 SWAP1 SWAP4 POP JUMP JUMPDEST PUSH0 DUP3 DUP3 MSTORE PUSH1 0x20 DUP3 ADD SWAP1 POP SWAP3 SWAP2 POP POP JUMP JUMPDEST PUSH32 0x496E76616C696420455243313135352061646472657373000000000000000000 PUSH0 DUP3 ADD MSTORE POP JUMP JUMPDEST PUSH0 PUSH2 0x22D2 PUSH1 0x17 DUP4 PUSH2 0x228E JUMP JUMPDEST SWAP2 POP PUSH2 0x22DD DUP3 PUSH2 0x229E JUMP JUMPDEST PUSH1 0x20 DUP3 ADD SWAP1 POP SWAP2 SWAP1 POP JUMP JUMPDEST PUSH0 PUSH1 0x20 DUP3 ADD SWAP1 POP DUP2 DUP2 SUB PUSH0 DUP4 ADD MSTORE PUSH2 0x22FF DUP2 PUSH2 0x22C6 JUMP JUMPDEST SWAP1 POP SWAP2 SWAP1 POP JUMP JUMPDEST PUSH32 0x4F6E6C792074686520746F6B656E206F776E65722063616E2074726967676572 PUSH0 DUP3 ADD MSTORE PUSH32 0x20636F6E76657273696F6E000000000000000000000000000000000000000000 PUSH1 0x20 DUP3 ADD MSTORE POP JUMP JUMPDEST PUSH0 PUSH2 0x2360 PUSH1 0x2B DUP4 PUSH2 0x228E JUMP JUMPDEST SWAP2 POP PUSH2 0x236B DUP3 PUSH2 0x2306 JUMP JUMPDEST PUSH1 0x40 DUP3 ADD SWAP1 POP SWAP2 SWAP1 POP JUMP JUMPDEST PUSH0 PUSH1 0x20 DUP3 ADD SWAP1 POP DUP2 DUP2 SUB PUSH0 DUP4 ADD MSTORE PUSH2 0x238D DUP2 PUSH2 0x2354 JUMP JUMPDEST SWAP1 POP SWAP2 SWAP1 POP JUMP JUMPDEST PUSH32 0x49447320616E642076616C756573206C656E677468206D69736D617463680000 PUSH0 DUP3 ADD MSTORE POP JUMP JUMPDEST PUSH0 PUSH2 0x23C8 PUSH1 0x1E DUP4 PUSH2 0x228E JUMP JUMPDEST SWAP2 POP PUSH2 0x23D3 DUP3 PUSH2 0x2394 JUMP JUMPDEST PUSH1 0x20 DUP3 ADD SWAP1 POP SWAP2 SWAP1 POP JUMP JUMPDEST PUSH0 PUSH1 0x20 DUP3 ADD SWAP1 POP DUP2 DUP2 SUB PUSH0 DUP4 ADD MSTORE PUSH2 0x23F5 DUP2 PUSH2 0x23BC JUMP JUMPDEST SWAP1 POP SWAP2 SWAP1 POP JUMP JUMPDEST PUSH32 0x455243323020746F6B656E206E6F742073657400000000000000000000000000 PUSH0 DUP3 ADD MSTORE POP JUMP JUMPDEST PUSH0 PUSH2 0x2430 PUSH1 0x13 DUP4 PUSH2 0x228E JUMP JUMPDEST SWAP2 POP PUSH2 0x243B DUP3 PUSH2 0x23FC JUMP JUMPDEST PUSH1 0x20 DUP3 ADD SWAP1 POP SWAP2 SWAP1 POP JUMP JUMPDEST PUSH0 PUSH1 0x20 DUP3 ADD SWAP1 POP DUP2 DUP2 SUB PUSH0 DUP4 ADD MSTORE PUSH2 0x245D DUP2 PUSH2 0x2424 JUMP JUMPDEST SWAP1 POP SWAP2 SWAP1 POP JUMP JUMPDEST PUSH32 0x4E487B7100000000000000000000000000000000000000000000000000000000 PUSH0 MSTORE PUSH1 0x32 PUSH1 0x4 MSTORE PUSH1 0x24 PUSH0 REVERT JUMPDEST PUSH32 0x4F6E65206F72206D6F7265204552433131353520746F6B656E73206E6F742061 PUSH0 DUP3 ADD MSTORE PUSH32 0x6C6C6F77656420666F7220636F6E76657273696F6E0000000000000000000000 PUSH1 0x20 DUP3 ADD MSTORE POP JUMP JUMPDEST PUSH0 PUSH2 0x24EB PUSH1 0x35 DUP4 PUSH2 0x228E JUMP JUMPDEST SWAP2 POP PUSH2 0x24F6 DUP3 PUSH2 0x2491 JUMP JUMPDEST PUSH1 0x40 DUP3 ADD SWAP1 POP SWAP2 SWAP1 POP JUMP JUMPDEST PUSH0 PUSH1 0x20 DUP3 ADD SWAP1 POP DUP2 DUP2 SUB PUSH0 DUP4 ADD MSTORE PUSH2 0x2518 DUP2 PUSH2 0x24DF JUMP JUMPDEST SWAP1 POP SWAP2 SWAP1 POP JUMP JUMPDEST PUSH0 PUSH1 0x40 DUP3 ADD SWAP1 POP PUSH2 0x2532 PUSH0 DUP4 ADD DUP6 PUSH2 0x1D4E JUMP JUMPDEST PUSH2 0x253F PUSH1 0x20 DUP4 ADD DUP5 PUSH2 0x1D5D JUMP JUMPDEST SWAP4 SWAP3 POP POP POP JUMP JUMPDEST PUSH0 PUSH1 0x40 DUP3 ADD SWAP1 POP PUSH2 0x2559 PUSH0 DUP4 ADD DUP6 PUSH2 0x1D5D JUMP JUMPDEST PUSH2 0x2566 PUSH1 0x20 DUP4 ADD DUP5 PUSH2 0x1D5D JUMP JUMPDEST SWAP4 SWAP3 POP POP POP JUMP JUMPDEST PUSH32 0x496E76616C696420455243323020746F6B656E20616464726573730000000000 PUSH0 DUP3 ADD MSTORE POP JUMP JUMPDEST PUSH0 PUSH2 0x25A1 PUSH1 0x1B DUP4 PUSH2 0x228E JUMP JUMPDEST SWAP2 POP PUSH2 0x25AC DUP3 PUSH2 0x256D JUMP JUMPDEST PUSH1 0x20 DUP3 ADD SWAP1 POP SWAP2 SWAP1 POP JUMP JUMPDEST PUSH0 PUSH1 0x20 DUP3 ADD SWAP1 POP DUP2 DUP2 SUB PUSH0 DUP4 ADD MSTORE PUSH2 0x25CE DUP2 PUSH2 0x2595 JUMP JUMPDEST SWAP1 POP SWAP2 SWAP1 POP JUMP JUMPDEST PUSH32 0x436F6E76657273696F6E206E6F7420616C6C6F77656420666F72207468697320 PUSH0 DUP3 ADD MSTORE PUSH32 0x4552433131353520746F6B656E00000000000000000000000000000000000000 PUSH1 0x20 DUP3 ADD MSTORE POP JUMP JUMPDEST PUSH0 PUSH2 0x262F PUSH1 0x2D DUP4 PUSH2 0x228E JUMP JUMPDEST SWAP2 POP PUSH2 0x263A DUP3 PUSH2 0x25D5 JUMP JUMPDEST PUSH1 0x40 DUP3 ADD SWAP1 POP SWAP2 SWAP1 POP JUMP JUMPDEST PUSH0 PUSH1 0x20 DUP3 ADD SWAP1 POP DUP2 DUP2 SUB PUSH0 DUP4 ADD MSTORE PUSH2 0x265C DUP2 PUSH2 0x2623 JUMP JUMPDEST SWAP1 POP SWAP2 SWAP1 POP JUMP JUMPDEST PUSH32 0x416D6F756E74206D7573742062652067726561746572207468616E207A65726F PUSH0 DUP3 ADD MSTORE POP JUMP JUMPDEST PUSH0 PUSH2 0x2697 PUSH1 0x20 DUP4 PUSH2 0x228E JUMP JUMPDEST SWAP2 POP PUSH2 0x26A2 DUP3 PUSH2 0x2663 JUMP JUMPDEST PUSH1 0x20 DUP3 ADD SWAP1 POP SWAP2 SWAP1 POP JUMP JUMPDEST PUSH0 PUSH1 0x20 DUP3 ADD SWAP1 POP DUP2 DUP2 SUB PUSH0 DUP4 ADD MSTORE PUSH2 0x26C4 DUP2 PUSH2 0x268B JUMP JUMPDEST SWAP1 POP SWAP2 SWAP1 POP JUMP JUMPDEST PUSH0 PUSH1 0x60 DUP3 ADD SWAP1 POP PUSH2 0x26DE PUSH0 DUP4 ADD DUP7 PUSH2 0x1D4E JUMP JUMPDEST PUSH2 0x26EB PUSH1 0x20 DUP4 ADD DUP6 PUSH2 0x1D4E JUMP JUMPDEST PUSH2 0x26F8 PUSH1 0x40 DUP4 ADD DUP5 PUSH2 0x1D5D JUMP JUMPDEST SWAP5 SWAP4 POP POP POP POP JUMP JUMPDEST PUSH2 0x2709 DUP2 PUSH2 0x1C25 JUMP JUMPDEST DUP2 EQ PUSH2 0x2713 JUMPI PUSH0 DUP1 REVERT JUMPDEST POP JUMP JUMPDEST PUSH0 DUP2 MLOAD SWAP1 POP PUSH2 0x2724 DUP2 PUSH2 0x2700 JUMP JUMPDEST SWAP3 SWAP2 POP POP JUMP JUMPDEST PUSH0 PUSH1 0x20 DUP3 DUP5 SUB SLT ISZERO PUSH2 0x273F JUMPI PUSH2 0x273E PUSH2 0x1B9D JUMP JUMPDEST JUMPDEST PUSH0 PUSH2 0x274C DUP5 DUP3 DUP6 ADD PUSH2 0x2716 JUMP JUMPDEST SWAP2 POP POP SWAP3 SWAP2 POP POP JUMP JUMPDEST PUSH32 0x4552433230207472616E73666572206661696C65640000000000000000000000 PUSH0 DUP3 ADD MSTORE POP JUMP JUMPDEST PUSH0 PUSH2 0x2789 PUSH1 0x15 DUP4 PUSH2 0x228E JUMP JUMPDEST SWAP2 POP PUSH2 0x2794 DUP3 PUSH2 0x2755 JUMP JUMPDEST PUSH1 0x20 DUP3 ADD SWAP1 POP SWAP2 SWAP1 POP JUMP JUMPDEST PUSH0 PUSH1 0x20 DUP3 ADD SWAP1 POP DUP2 DUP2 SUB PUSH0 DUP4 ADD MSTORE PUSH2 0x27B6 DUP2 PUSH2 0x277D JUMP JUMPDEST SWAP1 POP SWAP2 SWAP1 POP JUMP JUMPDEST PUSH0 PUSH1 0x20 DUP3 ADD SWAP1 POP PUSH2 0x27D0 PUSH0 DUP4 ADD DUP5 PUSH2 0x1D5D JUMP JUMPDEST SWAP3 SWAP2 POP POP JUMP JUMPDEST PUSH0 DUP3 DUP3 MSTORE PUSH1 0x20 DUP3 ADD SWAP1 POP SWAP3 SWAP2 POP POP JUMP JUMPDEST POP JUMP JUMPDEST PUSH0 PUSH2 0x27F4 PUSH0 DUP4 PUSH2 0x27D6 JUMP JUMPDEST SWAP2 POP PUSH2 0x27FF DUP3 PUSH2 0x27E6 JUMP JUMPDEST PUSH0 DUP3 ADD SWAP1 POP SWAP2 SWAP1 POP JUMP JUMPDEST PUSH0 PUSH1 0x80 DUP3 ADD SWAP1 POP PUSH2 0x281C PUSH0 DUP4 ADD DUP7 PUSH2 0x1D4E JUMP JUMPDEST PUSH2 0x2829 PUSH1 0x20 DUP4 ADD DUP6 PUSH2 0x1D5D JUMP JUMPDEST PUSH2 0x2836 PUSH1 0x40 DUP4 ADD DUP5 PUSH2 0x1D5D JUMP JUMPDEST DUP2 DUP2 SUB PUSH1 0x60 DUP4 ADD MSTORE PUSH2 0x2847 DUP2 PUSH2 0x27E9 JUMP JUMPDEST SWAP1 POP SWAP5 SWAP4 POP POP POP POP JUMP JUMPDEST PUSH32 0x4552433131353520746F6B656E206E6F7420616C6C6F77656420666F7220636F PUSH0 DUP3 ADD MSTORE PUSH32 0x6E76657273696F6E000000000000000000000000000000000000000000000000 PUSH1 0x20 DUP3 ADD MSTORE POP JUMP JUMPDEST PUSH0 PUSH2 0x28AB PUSH1 0x28 DUP4 PUSH2 0x228E JUMP JUMPDEST SWAP2 POP PUSH2 0x28B6 DUP3 PUSH2 0x2851 JUMP JUMPDEST PUSH1 0x40 DUP3 ADD SWAP1 POP SWAP2 SWAP1 POP JUMP JUMPDEST PUSH0 PUSH1 0x20 DUP3 ADD SWAP1 POP DUP2 DUP2 SUB PUSH0 DUP4 ADD MSTORE PUSH2 0x28D8 DUP2 PUSH2 0x289F JUMP JUMPDEST SWAP1 POP SWAP2 SWAP1 POP JUMP JUMPDEST PUSH32 0x455243323020746F6B656E206E6F7420646566696E6564000000000000000000 PUSH0 DUP3 ADD MSTORE POP JUMP JUMPDEST PUSH0 PUSH2 0x2913 PUSH1 0x17 DUP4 PUSH2 0x228E JUMP JUMPDEST SWAP2 POP PUSH2 0x291E DUP3 PUSH2 0x28DF JUMP JUMPDEST PUSH1 0x20 DUP3 ADD SWAP1 POP SWAP2 SWAP1 POP JUMP JUMPDEST PUSH0 PUSH1 0x20 DUP3 ADD SWAP1 POP DUP2 DUP2 SUB PUSH0 DUP4 ADD MSTORE PUSH2 0x2940 DUP2 PUSH2 0x2907 JUMP JUMPDEST SWAP1 POP SWAP2 SWAP1 POP JUMP JUMPDEST PUSH0 PUSH1 0x60 DUP3 ADD SWAP1 POP PUSH2 0x295A PUSH0 DUP4 ADD DUP7 PUSH2 0x1D5D JUMP JUMPDEST PUSH2 0x2967 PUSH1 0x20 DUP4 ADD DUP6 PUSH2 0x1D5D JUMP JUMPDEST PUSH2 0x2974 PUSH1 0x40 DUP4 ADD DUP5 PUSH2 0x1D5D JUMP JUMPDEST SWAP5 SWAP4 POP POP POP POP JUMP INVALID LOG2 PUSH5 0x6970667358 0x22 SLT KECCAK256 SIGNEXTEND PUSH6 0xFF57E9097EA2 0x26 0xC6 LOG0 0xCE 0xC7 0x28 0xDF PC 0xCD BASEFEE 0xDB PUSH4 0x3B020281 0xAA SMOD PUSH15 0x66D9250D2664736F6C634300081900 CALLER "
				},
				"gasEstimates": {
					"creation": {
						"codeDepositCost": "2134800",
						"executionCost": "infinite",
						"totalCost": "infinite"
					},
					"external": {
						"addAllowedERC1155Forward(address,uint256)": "infinite",
						"addAllowedERC1155Reverse(address,uint256)": "infinite",
						"allowedERC1155Forward(address,uint256)": "3094",
						"allowedERC1155Reverse(address,uint256)": "3117",
						"conversionHistory(uint256)": "infinite",
						"conversionRecordsBySender(address,uint256)": "infinite",
						"conversionRecordsERC20ToERC1155ByUser(address,uint256)": "infinite",
						"convertToERC1155(address,uint256,uint256)": "infinite",
						"erc20ToErc1155History(uint256)": "infinite",
						"erc20Token()": "infinite",
						"onERC1155BatchReceived(address,address,uint256[],uint256[],bytes)": "infinite",
						"onERC1155Received(address,address,uint256,uint256,bytes)": "infinite",
						"owner()": "2626",
						"removeAllowedERC1155Forward(address,uint256)": "infinite",
						"removeAllowedERC1155Reverse(address,uint256)": "infinite",
						"renounceOwnership()": "infinite",
						"setERC20Token(address)": "infinite",
						"supportsInterface(bytes4)": "741",
						"transferOwnership(address)": "infinite"
					},
					"internal": {
						"_convertERC1155ToERC20(address,uint256,uint256)": "infinite"
					}
				},
				"methodIdentifiers": {
					"addAllowedERC1155Forward(address,uint256)": "9c3c4345",
					"addAllowedERC1155Reverse(address,uint256)": "652ca87e",
					"allowedERC1155Forward(address,uint256)": "58be702f",
					"allowedERC1155Reverse(address,uint256)": "0fcd1e84",
					"conversionHistory(uint256)": "453a1e75",
					"conversionRecordsBySender(address,uint256)": "fce3fb2f",
					"conversionRecordsERC20ToERC1155ByUser(address,uint256)": "b1fd0a42",
					"convertToERC1155(address,uint256,uint256)": "df84aae9",
					"erc20ToErc1155History(uint256)": "15614d5d",
					"erc20Token()": "8a13eea7",
					"onERC1155BatchReceived(address,address,uint256[],uint256[],bytes)": "bc197c81",
					"onERC1155Received(address,address,uint256,uint256,bytes)": "f23a6e61",
					"owner()": "8da5cb5b",
					"removeAllowedERC1155Forward(address,uint256)": "c953e56e",
					"removeAllowedERC1155Reverse(address,uint256)": "ea6a5b0e",
					"renounceOwnership()": "715018a6",
					"setERC20Token(address)": "de562487",
					"supportsInterface(bytes4)": "01ffc9a7",
					"transferOwnership(address)": "f2fde38b"
				}
			},
			"storageLayout": {
				"storage": [
					{
						"astId": 8,
						"contract": "DualERC1155ERC20Converter.sol:DualERC1155ERC20Converter",
						"label": "_owner",
						"offset": 0,
						"slot": "0",
						"type": "t_address"
					},
					{
						"astId": 387,
						"contract": "DualERC1155ERC20Converter.sol:DualERC1155ERC20Converter",
						"label": "erc20Token",
						"offset": 0,
						"slot": "1",
						"type": "t_contract(IERC20MintableBurnable)365"
					},
					{
						"astId": 394,
						"contract": "DualERC1155ERC20Converter.sol:DualERC1155ERC20Converter",
						"label": "allowedERC1155Forward",
						"offset": 0,
						"slot": "2",
						"type": "t_mapping(t_address,t_mapping(t_uint256,t_bool))"
					},
					{
						"astId": 401,
						"contract": "DualERC1155ERC20Converter.sol:DualERC1155ERC20Converter",
						"label": "allowedERC1155Reverse",
						"offset": 0,
						"slot": "3",
						"type": "t_mapping(t_address,t_mapping(t_uint256,t_bool))"
					},
					{
						"astId": 418,
						"contract": "DualERC1155ERC20Converter.sol:DualERC1155ERC20Converter",
						"label": "conversionRecordsBySender",
						"offset": 0,
						"slot": "4",
						"type": "t_mapping(t_address,t_array(t_struct(ConversionRecord)411_storage)dyn_storage)"
					},
					{
						"astId": 423,
						"contract": "DualERC1155ERC20Converter.sol:DualERC1155ERC20Converter",
						"label": "conversionHistory",
						"offset": 0,
						"slot": "5",
						"type": "t_array(t_struct(ConversionRecord)411_storage)dyn_storage"
					},
					{
						"astId": 439,
						"contract": "DualERC1155ERC20Converter.sol:DualERC1155ERC20Converter",
						"label": "erc20ToErc1155History",
						"offset": 0,
						"slot": "6",
						"type": "t_array(t_struct(ConversionRecordERC20ToERC1155)434_storage)dyn_storage"
					},
					{
						"astId": 446,
						"contract": "DualERC1155ERC20Converter.sol:DualERC1155ERC20Converter",
						"label": "conversionRecordsERC20ToERC1155ByUser",
						"offset": 0,
						"slot": "7",
						"type": "t_mapping(t_address,t_array(t_struct(ConversionRecordERC20ToERC1155)434_storage)dyn_storage)"
					}
				],
				"types": {
					"t_address": {
						"encoding": "inplace",
						"label": "address",
						"numberOfBytes": "20"
					},
					"t_array(t_struct(ConversionRecord)411_storage)dyn_storage": {
						"base": "t_struct(ConversionRecord)411_storage",
						"encoding": "dynamic_array",
						"label": "struct DualERC1155ERC20Converter.ConversionRecord[]",
						"numberOfBytes": "32"
					},
					"t_array(t_struct(ConversionRecordERC20ToERC1155)434_storage)dyn_storage": {
						"base": "t_struct(ConversionRecordERC20ToERC1155)434_storage",
						"encoding": "dynamic_array",
						"label": "struct DualERC1155ERC20Converter.ConversionRecordERC20ToERC1155[]",
						"numberOfBytes": "32"
					},
					"t_bool": {
						"encoding": "inplace",
						"label": "bool",
						"numberOfBytes": "1"
					},
					"t_contract(IERC20MintableBurnable)365": {
						"encoding": "inplace",
						"label": "contract IERC20MintableBurnable",
						"numberOfBytes": "20"
					},
					"t_mapping(t_address,t_array(t_struct(ConversionRecord)411_storage)dyn_storage)": {
						"encoding": "mapping",
						"key": "t_address",
						"label": "mapping(address => struct DualERC1155ERC20Converter.ConversionRecord[])",
						"numberOfBytes": "32",
						"value": "t_array(t_struct(ConversionRecord)411_storage)dyn_storage"
					},
					"t_mapping(t_address,t_array(t_struct(ConversionRecordERC20ToERC1155)434_storage)dyn_storage)": {
						"encoding": "mapping",
						"key": "t_address",
						"label": "mapping(address => struct DualERC1155ERC20Converter.ConversionRecordERC20ToERC1155[])",
						"numberOfBytes": "32",
						"value": "t_array(t_struct(ConversionRecordERC20ToERC1155)434_storage)dyn_storage"
					},
					"t_mapping(t_address,t_mapping(t_uint256,t_bool))": {
						"encoding": "mapping",
						"key": "t_address",
						"label": "mapping(address => mapping(uint256 => bool))",
						"numberOfBytes": "32",
						"value": "t_mapping(t_uint256,t_bool)"
					},
					"t_mapping(t_uint256,t_bool)": {
						"encoding": "mapping",
						"key": "t_uint256",
						"label": "mapping(uint256 => bool)",
						"numberOfBytes": "32",
						"value": "t_bool"
					},
					"t_struct(ConversionRecord)411_storage": {
						"encoding": "inplace",
						"label": "struct DualERC1155ERC20Converter.ConversionRecord",
						"members": [
							{
								"astId": 404,
								"contract": "DualERC1155ERC20Converter.sol:DualERC1155ERC20Converter",
								"label": "erc1155TokenId",
								"offset": 0,
								"slot": "0",
								"type": "t_uint256"
							},
							{
								"astId": 406,
								"contract": "DualERC1155ERC20Converter.sol:DualERC1155ERC20Converter",
								"label": "erc1155Amount",
								"offset": 0,
								"slot": "1",
								"type": "t_uint256"
							},
							{
								"astId": 408,
								"contract": "DualERC1155ERC20Converter.sol:DualERC1155ERC20Converter",
								"label": "erc20Amount",
								"offset": 0,
								"slot": "2",
								"type": "t_uint256"
							},
							{
								"astId": 410,
								"contract": "DualERC1155ERC20Converter.sol:DualERC1155ERC20Converter",
								"label": "timestamp",
								"offset": 0,
								"slot": "3",
								"type": "t_uint256"
							}
						],
						"numberOfBytes": "128"
					},
					"t_struct(ConversionRecordERC20ToERC1155)434_storage": {
						"encoding": "inplace",
						"label": "struct DualERC1155ERC20Converter.ConversionRecordERC20ToERC1155",
						"members": [
							{
								"astId": 425,
								"contract": "DualERC1155ERC20Converter.sol:DualERC1155ERC20Converter",
								"label": "user",
								"offset": 0,
								"slot": "0",
								"type": "t_address"
							},
							{
								"astId": 427,
								"contract": "DualERC1155ERC20Converter.sol:DualERC1155ERC20Converter",
								"label": "erc1155Contract",
								"offset": 0,
								"slot": "1",
								"type": "t_address"
							},
							{
								"astId": 429,
								"contract": "DualERC1155ERC20Converter.sol:DualERC1155ERC20Converter",
								"label": "tokenId",
								"offset": 0,
								"slot": "2",
								"type": "t_uint256"
							},
							{
								"astId": 431,
								"contract": "DualERC1155ERC20Converter.sol:DualERC1155ERC20Converter",
								"label": "amount",
								"offset": 0,
								"slot": "3",
								"type": "t_uint256"
							},
							{
								"astId": 433,
								"contract": "DualERC1155ERC20Converter.sol:DualERC1155ERC20Converter",
								"label": "timestamp",
								"offset": 0,
								"slot": "4",
								"type": "t_uint256"
							}
						],
						"numberOfBytes": "160"
					},
					"t_uint256": {
						"encoding": "inplace",
						"label": "uint256",
						"numberOfBytes": "32"
					}
				}
			},
			"userdoc": {
				"events": {
					"ConversionPerformed(address,uint256,uint256,uint256,uint256)": {
						"notice": "Emitted when a conversion is performed."
					}
				},
				"kind": "user",
				"methods": {
					"addAllowedERC1155Forward(address,uint256)": {
						"notice": "Adds an allowed ERC1155 contract/token pair for forward conversion."
					},
					"addAllowedERC1155Reverse(address,uint256)": {
						"notice": "Adds an allowed ERC1155 contract/token pair for reverse conversion."
					},
					"allowedERC1155Forward(address,uint256)": {
						"notice": "Allowed ERC1155 contract/token pairs for forward conversion (ERC1155 -> ERC20). When an ERC1155 token is sent to this contract, the sender receives ERC20 tokens if allowedERC1155Forward[erc1155Contract][tokenId] is true."
					},
					"allowedERC1155Reverse(address,uint256)": {
						"notice": "Allowed ERC1155 contract/token pairs for reverse conversion (ERC20 -> ERC1155). When converting ERC20 tokens, the specified ERC1155 contract/token pair must be allowed."
					},
					"constructor": {
						"notice": "Constructor that passes msg.sender to Ownable."
					},
					"conversionHistory(uint256)": {
						"notice": "Global array of all conversion records."
					},
					"conversionRecordsBySender(address,uint256)": {
						"notice": "Mapping from a sender address to an array of conversion records."
					},
					"conversionRecordsERC20ToERC1155ByUser(address,uint256)": {
						"notice": "Mapping from a user address to an array of their reverse conversion records."
					},
					"convertToERC1155(address,uint256,uint256)": {
						"notice": "Converts ERC20 tokens into ERC1155 tokens. Transfers ERC20 tokens from the user, burns them, and then mints ERC1155 tokens on the specified contract."
					},
					"erc20ToErc1155History(uint256)": {
						"notice": "Global array of reverse conversion records."
					},
					"erc20Token()": {
						"notice": "The ERC20 token used in conversion."
					},
					"onERC1155BatchReceived(address,address,uint256[],uint256[],bytes)": {
						"notice": "Called when multiple ERC1155 token types are transferred in a batch. Requirements: - The caller (operator) must equal the token owner (`from`). - Each ERC1155 contract (msg.sender) and token id must be allowed."
					},
					"onERC1155Received(address,address,uint256,uint256,bytes)": {
						"notice": "Called when a single ERC1155 token type is transferred to this contract. Requirements: - The caller (operator) must equal the token owner (`from`). - The ERC1155 contract (msg.sender) and token id must be allowed for forward conversion."
					},
					"removeAllowedERC1155Forward(address,uint256)": {
						"notice": "Removes an allowed ERC1155 contract/token pair for forward conversion."
					},
					"removeAllowedERC1155Reverse(address,uint256)": {
						"notice": "Removes an allowed ERC1155 contract/token pair for reverse conversion."
					},
					"setERC20Token(address)": {
						"notice": "Sets (or updates) the ERC20 token contract address."
					}
				},
				"notice": "This contract supports two conversion directions:         1. Forward conversion (ERC1155 -> ERC20): when the contract receives ERC1155 tokens,            it mints ERC20 tokens (1:1 ratio) to the sender if the pair is allowed.         2. Reverse conversion (ERC20 -> ERC1155): a user can convert ERC20 tokens into ERC1155 tokens            by calling a function. The contract transfers and burns the ERC20 tokens and then            calls mint on an allowed ERC1155 contract.         Allowed ERC1155 token pairs (contract address and token ID) are configured separately         for forward and reverse conversions. The ERC20 token is set via an admin function.",
				"version": 1
			}
		}
	}
}